:020000040000FA
:060000000A128A110C280F
:10000800FE00030EF1000A08F2000A168A11CC2D30
:100018000A128A110F28F801F901FA018312031351
:10002800ED01EE01EF018313A0308400B7300A120E
:100038008A1501200A128A1183010A128A11992B42
:100048008312031349088039CE004E08D3004908AB
:10005800CE004E07CF004F08D900C81F34283528D6
:10006800372859143728590803193B283C284C28A5
:10007800590A031D402841284A280030C900003089
:10008800C8000030C7000030C6004A28C8175528E5
:100098000030C9000030C8000030C7000030C6007A
:1000A80055284D088039CE004E08D3064D08CE009D
:1000B8004E07CF004F08D800CC1F63286428662855
:1000C80058146628580803196A286B287B28580A88
:1000D800031D6F28702879280030CD000030CC002F
:1000E8000030CB000030CA007928CC1784280030B3
:1000F800CD000030CC000030CB000030CA0084288E
:1001080058080319882889288F285908031D8D281D
:100118008E2899288F280030C9000030C800003088
:10012800C7000030C600982B982B4608CE004E0812
:10013800F3004C080A168A11EB250A128A11740872
:1001480083120313DF007308DE005E08CE00CF01C0
:10015800D001D1015108D7005008D6004F08D5006A
:100168004E08D4005F08CE00CF01D001D10151085C
:10017800DD005008DC004F08DB004E08DA004708B5
:10018800CE004E08F3004B080A168A11EB250A1216
:100198008A11740883120313DF007308DE005E08F7
:1001A800CE00CF01D001D1014E08D4074F0803116A
:1001B8000318013E0319E128D50750080311031855
:1001C800013E0319E828D607510803110318013E18
:1001D8000319EF28D7075F08CE00CF01D001D1015E
:1001E8004E08DA074F0803110318013E0319FD28CA
:1001F800DB07500803110318013E03190429DC0723
:10020800510803110318013E03190B29DD0748089B
:10021800CE004E08F3004A080A168A11EB250A1286
:100228008A11740883120313DF007308DE005E0866
:10023800CE00CF01D001D1014E08D4074F080311D9
:100248000318013E03192929D5075008031103187B
:10025800013E03193029D607510803110318013E3E
:1002680003193729D7075F08CE00CF01D001D10184
:100278004E08DA074F0803110318013E03194529F0
:10028800DB07500803110318013E03194C29DC074A
:10029800510803110318013E03195329DD070830DB
:1002A800CE000310D40DD50DD60DD70DCE0B552984
:1002B8004708CE004E08F3004A080A168A11EB25B3
:1002C8000A128A11740883120313DF007308DE0010
:1002D8005E08CE005F08CF00D001D1014E08D407D8
:1002E8004F0803110318013E03197B29D50750084D
:1002F80003110318013E03198229D6075108031177
:100308000318013E03198929D7074608CE004E086D
:10031800F3004B080A168A11EB250A128A11740891
:1003280083120313DF007308DE005E08CE005F0847
:10033800CF00D001D1014E08D4074F08031103188C
:10034800013E0319A829D507500803110318013ED7
:100358000319AF29D607510803110318013E0319E1
:10036800B629D7070830CE000310D40DD50DD60D09
:10037800D70DCE0BB8294608CE004E08F3004A0820
:100388000A168A11EB250A128A11740883120313BC
:10039800DF007308DE005E08CE005F08CF00D001E2
:1003A800D1014E08D4074F0803110318013E031961
:1003B800DE29D507500803110318013E0319E52962
:1003C800D607510803110318013E0319EC29D70772
:1003D8004708CE004E08F3004C080A168A11EB2590
:1003E8000A128A11740883120313DF007308DE00EF
:1003F8005E08CE005F08CF00D001D1014E08DA07B1
:100408004F0803110318013E03190B2ADB07500894
:1004180003110318013E0319122ADC0751080311BE
:100428000318013E0319192ADD074808CE004E08B3
:10043800F3004B080A168A11EB250A128A11740870
:1004480083120313DF007308DE005E08CE005F0826
:10045800CF00D001D1014E08DA074F080311031865
:10046800013E0319382ADB07500803110318013E1F
:1004780003193F2ADC07510803110318013E031929
:10048800462ADD074808CE004E08F3004C080A1635
:100498008A11EB250A128A11740883120313DF00EC
:1004A8007308DE005E08CE005F08CF00D001D101DE
:1004B80008300310CE0DCF0DD00DD10DFF3E031D1A
:1004C8005D2A4E08DA074F0803110318013E031985
:1004D8006E2ADB07500803110318013E0319752A19
:1004E800DC07510803110318013E03197C2ADD07B4
:1004F8005408CE005508CF005608D0005708D10040
:1005080018300310D10CD00CCF0CCE0CFF3E031DBD
:10051800852A4E08DA074F0803110318013E03190C
:10052800962ADB07500803110318013E03199D2A78
:10053800DC07510803110318013E0319A42ADD073B
:100548000830CE000310D40DD50DD60DD70DCE0B27
:10055800A62A59085807CE00CF01CF0D4E08823E73
:10056800DE004F080318013EFF3EDF00DA2A0130A3
:10057800CE000310DA0DDB0DDC0DDD0DCE0BBD2A30
:10058800D71FC72AC82ACA2A5A14CA2A0130CE0035
:100598000310D40DD50DD60DD70DCE0BCC2AFF30B8
:1005A800DE070318DF0AFF30DF07DA2ADC1FDD2A3F
:1005B800DE2ABB2ADF2AD801D71FE32AE42A042B24
:1005C800FF305405CE00FF305505CF00FF305605EB
:1005D800D0007F305705D100510850044F044E0415
:1005E8000319F72AF82AFB2AD801D80A042B5A1C1F
:1005F800FE2AFF2A042BD801D80A042B042B042B2B
:1006080058080319082B092B3C2B0130DA07003056
:1006180003180130DB07003003180130DC07003015
:1006280003180130DD075D1C1A2B1B2B3C2B5A08C5
:10063800CE005B08CF005C08D0005D08D100013017
:10064800D200510DD10CD00CCF0CCE0CD20B252BD7
:100658005108DD005008DC004F08DB004E08DA00C6
:100668000130DE070318DF0A0030DF073C2B3C2B84
:100678005F08803AFF0080307F02031D452BFF3062
:100688005E02031C482B492B542B7F308312031323
:10069800DD008030DC000030DB000030DA008B2B1E
:1006A800831203135F08803AFF0080307F02031D26
:1006B8005F2B01305E020318622B632B6F2B003017
:1006C80083120313DD000030DC000030DB00003053
:1006D800DA00D3018B2B831203135E08CE004E0879
:1006E800D900FF30DA05FF30DB057F30DC0500304C
:1006F800DD05591C802B812B832BDC17832B590894
:10070800CE0003104E0CCF004F08DD008B2B530892
:10071800CE004E08DD045D08C9005C08C8005B080F
:10072800C7005A08C600982B08000A168A118A259D
:100738000A128A118030F3002530F400F501F50A19
:10074800F601F60AF7010A168A1186270A128A1193
:1007580001300A168A1117260A128A110A300A125B
:100768008A1588210A128A110C300A128A158821E2
:100778000A128A110A128A11C5270A128A110A1640
:100788008A1149250A128A11F601F60A01300A125D
:100798008A1509200A128A111230F5008030F600F5
:1007A8000A168A1191260A128A1107308316031332
:1007B800C4004408F60001300A128A1509200A12FA
:1007C8008A111530F5008030F6000A168A11912634
:1007D8000A128A110D3083160313C4004408F60068
:1007E80001300A128A1509200A128A110B30F50005
:1007F8008030F6000A168A1191260A128A11F6012B
:10080800F60A02300A128A1509200A128A110C2CDB
:100818007A080319102C112C432C0130831603136A
:10082800C4004408B407341C1A2C1B2C2E2C0A3084
:100838000A168A1150250A128A110A168A114425A5
:100848000A128A1183160313C4004408831203137F
:10085800EF00412C0C300A168A1150250A128A1111
:100868000A168A1144250A128A1183160313C40032
:10087800440883120313EE00412CFA01432C433041
:1008880083120313E3007F30E2000030E100003000
:10089800E0004030C900A030C8000030C700003078
:1008A800C6006F0883160313C400C501C601C7013B
:1008B8004708F6004608F5004508F4004408F30028
:1008C80000300A128A15C4200A128A117608831287
:1008D8000313CD007508CC007408CB007308CA0058
:1008E8000A128A1124200A128A1183120313490852
:1008F800E7004808E6004708E5004608E4000A1251
:100908008A1532250A128A11831203136308831683
:100918000313AF0083120313620883160313AE0098
:1009280083120313610883160313AD0083120313A4
:10093800600883160313AC002F08F6002E08F50094
:100948002D08F4002C08F3000A128A1528200A1230
:100958008A11730883160313C4004408831203130F
:10096800ED004230C900C830C8000030C700003070
:10097800C600831603132F0883120313B1008316CE
:1009880003132E0883120313B000831603132D08D4
:1009980083120313AF00831603132C088312031367
:1009A800AE006D0883160313C400C501C601C70154
:1009B8004708F6004608F5004508F4004408F30027
:1009C80001300A128A15C4200A128A117608831285
:1009D8000313AD007508AC007408AB007308AA00D7
:1009E8000A168A116C250A128A11831203132D081C
:1009F800B5002C08B4002B08B3002A08B2000A126C
:100A08008A1576220A128A11831203133108CD003F
:100A18003008CC002F08CB002E08CA000A128A1111
:100A280024200A128A118312031349088316031318
:100A3800A70083120313480883160313A600831222
:100A48000313470883160313A500831203134608EC
:100A580083160313A4002708F6002608F5002508C6
:100A6800F4002408F3000A128A1528200A128A11B1
:100A7800730883160313C4004408B200433083127A
:100A88000313E3007F30E2000030E1000030E000B3
:100A98004030C900A030C8000030C7000030C60090
:100AA8006E0883160313C400C501C601C7014708B1
:100AB800F6004608F5004508F4004408F300003045
:100AC8000A128A15C4200A128A117608831203139F
:100AD800CD007508CC007408CB007308CA000A1250
:100AE8008A1124200A128A11831203134908E70085
:100AF8004808E6004708E5004608E4000A128A1597
:100B080032250A128A11831203136308831603130A
:100B1800AB0083120313620883160313AA0083121F
:100B28000313610883160313A900831203136008D3
:100B380083160313A8002B08F6002A08F5002908D5
:100B4800F4002808F3000A128A1528200A128A11CC
:100B5800730883160313C4004408F9004230831253
:100B68000313C900C830C8000030C7000030C600F1
:100B7800831603132B0883120313B1008316031380
:100B88002A0883120313B00083160313290883125B
:100B98000313AF0083160313280883120313AE0050
:100BA800790883160313C400C501C601C7014708A5
:100BB800F6004608F5004508F4004408F300013043
:100BC8000A128A15C4200A128A117608831203139E
:100BD800AD007508AC007408AB007308AA000A16CB
:100BE8008A116C250A128A11831203132D08B50085
:100BF8002C08B4002B08B3002A08B2000A128A1580
:100C080076220A128A11831203133108CD003008A4
:100C1800CC002F08CB002E08CA000A128A11242003
:100C28000A128A1183120313490883160313A300B7
:100C380083120313480883160313A20083120313B5
:100C4800470883160313A10083120313460883166B
:100C58000313A0002308F6002208F5002108F40079
:100C68002008F3000A128A1528200A128A1173082C
:100C780083160313C4004408B1003208C4004408B2
:100C880083120313BE00BF01BF0A6D080A168A113A
:100C980026270A128A11831603133108C400440850
:100CA80083120313BE00073083160313C5004508DB
:100CB80083120313BF0079080A168A1126270A121D
:100CC8008A110D3083160313C4004408F60002305D
:100CD8000A128A1509200A128A1183160313330887
:100CE8000A168A11AE250A128A110F30F5008030D3
:100CF800F6000A168A1191260A128A118312031322
:100D08006F080A168A115E250A128A1183120313C4
:100D18006E080A168A115E250A128A11FF300A1611
:100D28008A115E250A128A118316031330080319E3
:100D38009E2E9F2EB62E2B307806031DA42EA52E90
:100D4800AA2E0130C4004408B307B42E2D3078060B
:100D5800031DAF2EB02EB42E0130B302B42EB42E24
:100D6800B001B62E831203139F18BB2EBC2E0C2C79
:100D78009F140C2C0C2C0C2C0A128A110C28831290
:100D88000313B4002A30AC002C08AF00AB2F253079
:100D980035060319D02ED12EDD2E3508AC003408C7
:100DA80084002C08831380000130AC002C08B407A1
:100DB800AB2FB001E42EBF2F012F012FAB2F012F36
:100DC8000130A907FF30290784000A168A110A2072
:100DD8000A128A11B500AC00AD012D08003A0319BA
:100DE800F62EAB2F2C08003A0319BF2F643A0319CB
:100DF800012F0D3A0319012FAB2F2F0884008313FD
:100E08000008B200840A0008B3000230AC002C08C5
:100E1800AF07B31F102F112F1B2F0330AC002C0866
:100E2800B004B209B309B20A0319B30A1B2FB501FA
:100E3800B50A05303506031D222F232F252F4D2FE8
:100E48004D2F3508AC002C07013E84000A168A1184
:100E58000A200A128A11AD000A168A110A200A12FB
:100E68008A11AE002E083302031D3C2F2D083202D2
:100E780003183F2F402F422F4D2F4D2F0130AC002C
:100E88002C08B50705303506031D4B2F4C2F252F91
:100E98004D2F300803390319522F532F5F2F2D3050
:100EA800AC00340884002C08831380000130AC00A7
:100EB8002C08B4075F2F3508AC002C08B100A02F10
:100EC8000A30A3000030A4003108AC002C07013E12
:100ED80084000A168A110A200A128A11F3000A16D7
:100EE8008A110A200A128A11F4003308F60032081F
:100EF800F5000A168A11D9260A128A117408831273
:100F08000313A6007308A5000A168A114E260A12B2
:100F18008A11831203132308303EAD002D08B50053
:100F28003508AC00340884002C0883138000013095
:100F3800AC002C08B407A02FFF30AC002C08B10778
:100F4800310A031DA82FA92F642FAB2FAB2F013017
:100F5800A907FF30290784000A168A110A200A12F5
:100F68008A11AC002C08B5003508031DBC2FBD2F15
:100F7800CB2EBF2FBF2F3408840083138001C42FCA
:100F880008001430F7007930F600F60BC92FF70B7C
:100F9800C92FCE2F30300A168A119A250A128A11C3
:100FA80030300A168A119A250A128A1130300A1628
:100FB8008A119A250A128A1138300A168A119A2536
:100FC8000A128A1110300A168A119A250A128A11F1
:100FD80001300A168A119A250A128A1106300A1651
:100FE8008A119A250A128A110E300A168A119A2530
:060FF8000A128A11080034
:1010020064008001840A04060319003404060228DD
:1010120083120313A0002003031D1028112819288E
:1010220076087F3EF700770883160313B500212860
:101032007608BF3EF700770883160313B500212810
:1010420035080A168A119A250A128A1508007308A9
:1010520083120313A0007408A1007508A200760889
:10106200A3000310220D230DA4002408A6002608C5
:10107200031D3C283D2847280030F6000030F500CB
:101082000030F4000030F300C328C3287308A00026
:101092007408A1007508A2007608A3001F3003108F
:1010A200A30CA20CA10CA00CFF3E031D502820088B
:1010B200A4002408A500F517FF30F305FF30F4055E
:1010C200FF30F5050030F6059630A602A61F6A2805
:1010D2006B2890282608803A973E031871287228B8
:1010E2007D280030F6000030F5000030F4000030BA
:1010F200F300C328C3287D2801300310F60CF50C39
:10110200F40CF30CFF3E031D7E280130A0002008E2
:10111200A607031D8D288E287D28B328B3282030EA
:101122002602031C95289628AC280030F6000030D1
:10113200F5000030F4000030F300C328C328AC28C7
:101142000130A0000310F30DF40DF50DF60DA00B08
:10115200A3280130A6022608031DB028B128A12821
:10116200B328B32825080319B728B828C328F309D8
:10117200F409F509F609F30A0319F40A0319F50A41
:101182000319F60A080083120313A40024080319A2
:10119200CB28CC28E028F61FCF28D028E0287309D6
:1011A200A6007409A7007509A8007609A900A60A75
:1011B2000319A70A0319A80A0319A90AE828760835
:1011C200A9007508A8007408A7007308A60076088D
:1011D200750474047304031DEF28F028FA28003004
:1011E200F6000030F5000030F4000030F3008729EB
:1011F20087299630A0002008A5000D290130A00003
:101202002008A50701300310A90CA80CA70CA60CF6
:10121200FF3E031D04290D29FE302905031D122955
:101222001329FF28302930290130A0002008A50702
:101232000130A607003003180130A7070030031859
:101242000130A807003003180130A907013003104C
:10125200A90CA80CA70CA60CFF3E031D2829FF30E1
:101262002905031D35293629152944294429013028
:10127200A5020130A0000310A60DA70DA80DA90D0F
:10128200A00B3C294429A81B472948294F29023091
:10129200250203184D294E2938294F29251852298C
:1012A20053295B29FF30A605FF30A7057F30A8052B
:1012B200FF30A9050310A50C2508A000A101A20179
:1012C200A30118300310A00DA10DA20DA30DFF3E26
:1012D200031D63292008A6042108A7042208A804E4
:1012E2002308A90424080319772978297E29F61FDF
:1012F2007B297C297E29A9177E292908F60028083E
:10130200F5002708F4002608F30087290800F500F5
:10131200412A831203131F119F111F129F1283165A
:1013220003170814831603130514752A8312031373
:101332001F159F111F129F128316031788148316FD
:1013420003138514752A831203131F119F151F128D
:101352009F12831603170815831603130515752AA2
:10136200831203131F159F151F129F128316031753
:101372008815831603138515752A831203131F110B
:101382009F111F169F128316031708168316031345
:101392008516752A831203131F159F111F169F129C
:1013A200831603178816831603130914752A8312EA
:1013B20003131F119F151F169F1283160317081779
:1013C200831603138914752A831203131F159F159D
:1013D2001F169F1283160317881783160313091506
:1013E200752A831203131F119F111F129F16831652
:1013F20003170914831603130615752A83120313A0
:101402001F159F111F129F16831603178914831627
:1014120003138615752A831203131F119F151F12BA
:101422009F16831603170915831603138614752A4C
:10143200831203131F159F151F129F16831603177E
:101442008915831603130616752A831203131F11B7
:101452009F111F169F16831603170916831603136F
:101462000614752A831203131F159F111F169F1648
:10147200831603178916831603138616752A752A8F
:101482007508F300F4017408003A0319492A752A11
:101492007308003A03198A29013A03199729033A72
:1014A2000319A429013A0319B129073A0319BE29DC
:1014B200013A0319CB29033A0319D829013A03192E
:1014C200E5290F3A0319F229013A0319FF29033AD0
:1014D20003190C2A013A0319192A073A0319262A71
:1014E200013A0319332A752A0800831203133108BB
:1014F2008039B6003608C2003108B6003607B70098
:101502003708C400B01F862A872A892A4414892AE8
:10151200440803198D2A8E2A9F2A440A031D922AFF
:10152200932A9C2A0030B1000030B0000030AF0096
:101532000030AE009C2AB017B101A82A0030B100D9
:101542000030B0000030AF000030AE00A82A3508ED
:101552008039B6003608C300430842060319B22A8E
:10156200B32AB52A4217B52A3508B6003607B7009E
:101572003708C300B41FBE2ABF2AC12A4314C12A96
:1015820043080319C52AC62AD72A430A031DCA2AB1
:10159200CB2AD42A0030B5000030B4000030B300AA
:1015A2000030B200D42AB417B501DF2A0030B500EA
:1015B2000030B4000030B3000030B20044084302EF
:1015C2000318E42AE52A2B2B421FE82AE92AEE2AED
:1015D2008030B6003608C206EE2A4408B600360845
:1015E200C5004308B6003608C4004508B6003608F0
:1015F200C3002E08B6003608C5003208B600360809
:10160200AE004508B6003608B2002F08B60036080C
:10161200C5003308B6003608AF004508B6003608E4
:10162200B3003008B6003608C5003408B6003608E4
:10163200B0004508B6003608B4003108B6003608D6
:10164200C5003508B6003608B1004508B6003608B0
:10165200B5002B2BC5014408B600B701B609B7097E
:10166200B60A0319B70A43083607B8003708031841
:10167200370AB9003908803AFF0080307F02031D23
:10168200442B1A303802031C472B482B892B831218
:101692000313310830042F042E04031D512B532B46
:1016A2000130542B0030B6003608C5000030B100BE
:1016B2000030B0000030AF000030AE004308B6008A
:1016C2003608C400922B892B451C682B692B722B80
:1016D2004508B6000310360C0138B7003708C500BC
:1016E200752B0310C50C752B2E1C782B792B7B2B9D
:1016F200C5177B2B0130B600310DB10CB00CAF0C0D
:10170200AE0CB60B7D2B0130B6003608C407892B10
:101712008312031343084402031C902B912B652B65
:10172200922B421B952B962BE52B4408031D9A2BDB
:101732009B2BA52B0030B1000030B0000030AF0071
:101742000030AE00312D312D3208AE0733080311BF
:101752000318013E0319AE2BAF0734080311031817
:10176200013E0319B52BB007350803110318013EDA
:101772000319BC2BB107311CBF2BC02BAE2C451C4F
:10178200C32BC42BCD2B4508B6000310360C0138F1
:10179200B7003708C500D02B0310C50CD02B2E1C68
:1017A200D32BD42BD62BC517D62B0130B600310D37
:1017B200B10CB00CAF0CAE0CB60BD82B0130B6008E
:1017C2003608C407AE2CAE2C3108803AFF0035082B
:1017D200803A7F02031DF72B34083002031DF72BDA
:1017E20033082F02031DF72B32082E020318FA2B9F
:1017F200FB2B612CFF30B600FF30B700FF30B80082
:10180200FF30B9003208BA003308BB003408BC000C
:101812003508BD002E09BE002F09BF003009C000E7
:101822003109C100BE0A0319BF0A0319C00A03190C
:10183200C10A3E08BA073F0803183F0F212C222C89
:10184200BB0740080318400F272C282CBC0741086F
:101852000318410ABD073A08B6073B0803183B0FB5
:10186200332C342CB7073C0803183C0F392C3A2C84
:10187200B8073D0803183D0AB9073908B10038080E
:10188200B0003708AF003608AE008030B600360828
:10189200C206C509C50A4508031D502C512C6F2CE0
:1018A2000130AE07003003180130AF0700300318D3
:1018B2000130B007003003180130B1076F2C6F2CD4
:1018C2003208AE023308031C330FAF023408031C84
:1018D200340FB0023508031C350FB1023108300451
:1018E2002F042E04031D762C772CA82C4508031DEB
:1018F2007B2C7C2CA82C0030B1000030B0000030D2
:10190200AF000030AE00312D312DA82C0130B600D1
:101912000310AE0DAF0DB00DB10DB60B892CC51F66
:10192200932C942C952C2E14451C982C992C9C2C81
:101932000314C50D9F2C0310C50D9F2C44080319D9
:10194200A32CA42CA82C0130C402A82CA82CB01FB4
:10195200AB2CAC2C872CAE2CAE2CC301C51FB22CE9
:10196200B32CC52C45087F390319B82CB92CBC2CD3
:10197200C301C30AC52C2E1CBF2CC02CC52CC3010D
:10198200C30AC52CC52CC52C43080319C92CCA2C63
:10199200002D0130AE07003003180130AF070030D0
:1019A20003180130B007003003180130B107311CB1
:1019B200DB2CDC2C002D2E08B6002F08B7003008D7
:1019C200B8003108B9000130BA00390DB90CB80CB1
:1019D200B70CB60CBA0BE62C3908B1003808B000C7
:1019E2003708AF003608AE00440A0319F92CFA2C66
:1019F200002D0130B6003608C407002D002D440A20
:101A02000319042D052D0B2D4408031D092D0A2D44
:101A12001B2D0B2D0030B1000030B0000030AF00A4
:101A22000030AE004408031D172D182D1B2DC201D6
:101A32001B2D1B2D441C1E2D1F2D212DB017252DB6
:101A42007F30B6003608B0054408B6000310360CE5
:101A5200B7003708B100C21F2F2D302D312DB1171D
:101A620008008312031367088039E80068088316A8
:101A72000313BB00831203136708E8006807E90039
:101A8200690883160313C20083120313E61F4A2D4B
:101A92004B2D4F2D8316031342144F2D8316031320
:101AA20042080319552D562D6A2D420A031D5A2D3F
:101AB2005B2D662D003083120313E7000030E60031
:101AC2000030E5000030E400662D8312E617E701DE
:101AD200742D00308312E7000030E6000030E5008C
:101AE2000030E400742D63088039E800680883162A
:101AF2000313BB06831203136308E8006807E900B7
:101B0200690883160313C30083120313E21F8A2D8D
:101B12008B2D8F2D8316031343148F2D83160313DE
:101B220043080319952D962DAA2D430A031D9A2DBC
:101B32009B2DA62D003083120313E3000030E20038
:101B42000030E1000030E000A62D8312E217E3012D
:101B5200B32D00308312E3000030E2000030E100D8
:101B62000030E0006308620461046004031DBA2DC2
:101B7200BB2DD92D0030E7000030E6000030E50033
:101B82000030E4008030E6047F30E704831603135C
:101B92003B0883120313E8006808E7046708E300C0
:101BA2006608E2006508E1006408E000FF2FFF2FED
:101BB200831603134208031DDF2DE02DF42D0030A0
:101BC20083120313E7000030E6000030E500003026
:101BD200E4006708E3006608E2006508E1006408C3
:101BE200E000FF2FFF2F8316031343088312031312
:101BF200E800E901E809E909E80A0319E90A831694
:101C020003134208831203136807EA0069080318E2
:101C1200690AEB006A087F3E83160313BC00831235
:101C220003136B080318013E003E83160313BD0025
:101C320083120313670883160313BA008312031374
:101C4200660883160313B90083120313650883160B
:101C52000313B80083120313640883160313B70037
:101C6200003083120313E7000030E6000030E50085
:101C72000030E400003083160313C1000030C000BE
:101C82000030BF000030BE00C301D12E430803194B
:101C92004B2E4C2E7D2E013083120313E8000310CD
:101CA20083160313B70DB80DB90DBA0D83120313C2
:101CB200E80B502E0130E8000310E40DE50DE60DAF
:101CC200E70DE80B5D2E83160313C11F692E6A2EE2
:101CD2006E2E8312031364146E2E01308312E800F9
:101CE200031083160313BE0DBF0DC00DC10D831269
:101CF2000313E80B712E7D2E8312630883160313E0
:101D02003A02031D9A2E83120313620883160313E9
:101D12003902031D9A2E83120313610883160313DB
:101D22003802031D9A2E83120313600883160313CD
:101D32003702031C9D2E9E2EC82E411783120313B9
:101D4200600883160313B702831203136108031C8E
:101D5200610FAC2EAF2E83160313B8028312031346
:101D62006208031C620FB62EB92E83160313B90242
:101D7200831203136308031C630FC02EC32E831642
:101D82000313BA028312031383160313C82E0130FE
:101D920083120313E800680883160313C307D12EC6
:101DA2001A304302031CD62ED72E472ED82E3A08BD
:101DB2003904380437040319DF2EE02E0E2F3E14A7
:101DC2000E2F0E2F01308312E8000310E40DE50DF3
:101DD200E60DE70DE80BE62E83160313C11FF22E64
:101DE200F32EF72E831203136414F72E013083129D
:101DF200E800031083160313BE0DBF0DC00DC10D05
:101E020083120313E80BFA2EFF3083160313BC0769
:101E12000318BD0AFF30BD070E2F83120313E61FFE
:101E2200132F142FE32E152F83160313C301C11F83
:101E32001B2F1C2F4E2FFF303E0583120313E80089
:101E4200FF30831603133F0583120313E900FF30AB
:101E520083160313400583120313EA007F308316AF
:101E62000313410583120313EB006B086A04690430
:101E7200680403193D2F3E2F432F83160313C3011A
:101E8200C30A4E2F641C462F472F4E2F831603136F
:101E9200C301C30A4E2F4E2F4E2F8316031343083E
:101EA2000319542F552F8C2F013083120313E4078B
:101EB200003003180130E507003003180130E6074F
:101EC200003003180130E707671C682F692F8C2F39
:101ED2006408E8006508E9006608EA006708EB00A4
:101EE2000130EC006B0DEB0CEA0CE90CE80CEC0B8E
:101EF200732F6B08E7006A08E6006908E5006808C6
:101F0200E400013083160313BC070318BD0A003036
:101F1200BD078C2F8C2F831603133D08803AFF00D8
:101F220080307F02031D972FFF303C02031C9A2F43
:101F32009B2FAC2FFF3083160313BC000030BD0073
:101F4200003083120313E7000030E6000030E500A2
:101F52000030E400AC2F831603133D08803AFF00E3
:101F620080307F02031DB72F01303C020318BA2FC5
:101F7200BB2FCC2F83160313BC01BD01003083128B
:101F82000313E7000030E6000030E5000030E40013
:101F920083160313BB01831603133C088312031336
:101FA200E800680883160313C200421CD92FDA2FF7
:101FB200DE2F83120313E617E32F7F308312E8002C
:101FC2006808E60583160313420883120313E80028
:101FD2000310680CE9006908E700831603133B0845
:101FE20083120313E8006808E7046708E300660841
:101FF200E2006508E1006408E000FF2F0800FF1B13
:102002000A2883137F1883170008840A0319FF0A1A
:10201200080010308A000408840A82070034013460
:1020220000340A34003464340034E83403341034A5
:10203200273443344F344D340034203420340034B8
:10204200533431340034533432340034253464345C
:02205200003458
:102A8800831203131E08482D080001300A168A1104
:102A98009A250A168A110800F4007408F300F30D49
:102AA800F30D831203131F087306C33973069F00BF
:102AB8005D2D0800F300602D83160313981C652D07
:102AC800662D602D672D7308831203139900080083
:102AD800831203132D082C042B042A040319752DC3
:102AE800762D792D8030AD06792D7A2D0800F400E9
:102AF8008312031307147408850087140D30F3003C
:102B0800F30B842D83120313871008008312031319
:102B180085018601870188018901831603138501D0
:102B2800803086008701880189010800F50083123A
:102B3800031307107508850087140630F400303039
:102B4800F300F30BA52DF40BA52D0000831203133E
:102B58008710080083120313BD001830B60036082A
:102B6800A9003D08B700B8013708AA003808AB002B
:102B780039300A128A11C3260A168A113930F5002B
:102B88000030F6000A168A1191260A168A110800E2
:102B9800831203139F18D12DD22DD52DFA01FA0ACD
:102BA8000C138C1ED82DD92DE42D83160313B001D8
:102BB800B00A831203131A08F0007008F800E42D15
:102BC80072088A00710E8300FE0E7E0E09008312C1
:102BD8000313A400A001A1017308F500F60175080C
:102BE800A2007608A300F82D241CFB2DFC2D022E34
:102BF8002208A0070318A10A2308A107013003101F
:102C0800A20DA30DFF3E031D032E0310A40C2408E0
:102C1800031D0F2E102EF82D112E2108F400200868
:102C2800F300162E0800F5000B17831603130C1774
:102C3800831203130C13831603139F139F121F127F
:102C4800831203131F14352E9F131F134B2E9F132C
:102C58001F174B2E9F171F134B2E9F171F174B2EF7
:102C68004B2E7508F300F4017408003A03193D2E41
:102C78004B2E7308003A0319282E013A03192B2EFC
:102C8800033A03192E2E013A0319312E4B2E9F14A5
:102C98008B17080083120313230824040319552EE5
:102CA800562E8B2EA801A80A652E01300310A30DFD
:102CB800A40DFF3E031D5A2E0130A7002708A807C0
:102CC800652EA41F682E692E592E6B2E6B2E240894
:102CD8002602031D712E23082502031C742E752E4F
:102CE8007C2E2308A5022408031CA603A6027C2E1A
:102CF80001300310A40CA30CFF3E031D7D2E0130F0
:102D0800A802031D882E892E6B2E8B2E8B2E26084B
:102D1800A4002508A300902E080083120313A30122
:102D2800A401BB2E23087507A1007608A00003188C
:102D3800A00AA31FA02EA003831203132008A20039
:102D48002208FF00210884000A168A1100200A16AA
:102D58008A110A168A117B250A168A1101308312F4
:102D68000313A3070318A40A0030A407BB2E2308E3
:102D78007507A1007608A0000318A00AA31FC52E96
:102D8800A003831203132008A2002208FF002108D1
:102D980084000A168A1100200A168A11003A031DB7
:102DA800D62ED72E962ED82E080083120313A101F3
:102DB800A201730874040319E22EE32E202FA00148
:102DC800A00AF22E01300310F30DF40DFF3E031D8F
:102DD800E72E0130F7007708A007F22EF41FF52E32
:102DE800F62EE62EF82EF82E01300310A10DA20DB6
:102DF800FF3E031DF92E74087602031D052F730884
:102E08007502031C082F092F112F7308F502740887
:102E1800031CF603F6022114112F01300310F40CE1
:102E2800F30CFF3E031D122F0130A002031D1D2FBE
:102E38001E2FF82E202F202F2208F4002108F3003F
:102E4800252F080083120313C1003F08C000400863
:102E5800F60002300A128A1509200A168A1183120E
:102E6800031341080A168A11AE250A168A1183121D
:102E780003133F08013EC0004008F60002300A1262
:102E88008A1509200A168A112E300A168A117B25FE
:102E98000A168A11831203133F08023EC000400835
:102EA800F60002300A128A1509200A168A110A3019
:102EB800831203133E020318622F632F6A2F3030E8
:102EC8000A168A117B250A168A116A2F83120313A0
:102ED8003E080A168A11AE250A168A1183120313B0
:102EE8003F08043EC0004008F60002300A128A1566
:102EF80009200A168A1156300A168A117B250A16E5
:102F08008A11080080308316031387008C128312FD
:102F180003139817770C83160313031C181203184E
:102F2800181676080319992F9A2FA42F83120313C2
:102F38001816831603138C16831203138C12A42FEE
:102F480075080319A82FA92FAC2F831603139816F9
:102F58008316031787158316031318112C3073066D
:102F6800031DBA2F7403031DBA2FBB2FC02F403087
:102F7800990003309A00FF2FB0307306043003190C
:102F88007406031DC82FC92FCC2FCF309900FF2FEF
:102F980060307306093003197406031DD42FD52F2A
:102FA800D82F67309900FF2F80307306253003191A
:102FB8007406031DE02FE12FE42F19309900FF2F2D
:102FC800B1307306283003197406031DEC2FED2F5A
:102FD800F02F17309900FF2F4B3074067304031D30
:102FE800F62FF72FFF2F0C309900FF2FFF2FFF2F01
:082FF800FF2FFF2FFF2F08003F
:04400E00D4E0FFFFFC
:00000001FF
