:020000040000FA
:060000000A128A110C280F
:10000800FE00030EF0000A08F1000A128A114A2ABB
:100018000A128A110F28F701F801F901FA01FB0108
:1000280083120313A20183010A128A110929F40019
:10003800D428831203131F119F111F129F128316B6
:1000480003170814831603130514082983120313CE
:100058001F159F111F129F128316031788148316EA
:10006800031385140829831203131F119F151F12E8
:100078009F128316031708158316031305150829FD
:10008800831203131F159F151F129F128316031740
:1000980088158316031385150829831203131F1166
:1000A8009F111F169F128316031708168316031332
:1000B80085160829831203131F159F111F169F12F7
:1000C8008316031788168316031309140829831245
:1000D80003131F119F151F169F1283160317081766
:1000E8008316031389140829831203131F159F15F8
:1000F8001F169F12831603178817831603130915F3
:100108000829831203131F119F111F129F168316AC
:1001180003170914831603130615082983120313FA
:100128001F159F111F129F16831603178914831614
:10013800031386150829831203131F119F151F1215
:100148009F168316031709158316031386140829A7
:10015800831203131F159F151F129F16831603176B
:1001680089158316031306160829831203131F1112
:100178009F111F169F16831603170916831603135C
:1001880006140829831203131F159F111F169F16A3
:100198008316031789168316031386160829082958
:1001A8007408F200F3017308003A0319DC280829DF
:1001B8007208003A03191D28013A03192A28033A3C
:1001C80003193728013A03194428073A0319512813
:1001D800013A03195E28033A03196B28013A0319F7
:1001E80078280F3A03198528013A03199228033A07
:1001F80003199F28013A0319AC28073A0319B928AB
:10020800013A0319C628082908000A128A115B2234
:100218000A128A1101300A128A11BD210A128A11A2
:100228000A300A128A111B200A128A110C300A128B
:100238008A111B200A128A110A128A1183210A12B2
:100248008A110A128A1191220A128A11F501F50AF5
:1002580001300A128A111B220A128A1101300A126D
:100268008A11F4210A128A1139297B0803193D29B8
:100278003E296C29013083120313A1002108F907D4
:10028800791C4729482959290A300A128A117A22E1
:100298000A128A110A128A1198220A128A118312E2
:1002A8000313A1002108F8006A290C300A128A11E8
:1002B8007A220A128A110A128A1198220A128A11BB
:1002C80083120313A1002108F7006A29FB016C2996
:1002D80083120313861F71297229752978088800EB
:1002E80078297708880078299F187B297C2939295B
:1002F8009F143929392939290A128A110C281430EE
:10030800F6007930F500F50B8729F60B87298C293B
:1003180030300A128A1136220A128A1130300A1233
:100328008A1136220A128A1130300A128A113622AC
:100338000A128A1138300A128A1136220A128A11D0
:1003480010300A128A1136220A128A1101300A1252
:100358008A1136220A128A1106300A128A113622A6
:100368000A128A110E300A128A1136220A128A11CA
:100378000800F4000B17831603130C1783120313DA
:100388000C13831603139F139F121F128312031358
:100398001F14DB299F131F13F1299F131F17F1291E
:1003A8009F171F13F1299F171F17F129F1297408A7
:1003B800F200F3017308003A0319E329F1297208DE
:1003C800003A0319CE29013A0319D129033A03192E
:1003D800D429013A0319D729F1299F148B1708004A
:1003E800F600F401F5010C2A7408760784000A1255
:1003F8008A1188220A128A110A128A116B220A1299
:100408008A110130F4070318F50A0030F5070C2AA1
:100418007408760784000A128A1188220A128A113F
:10042800003A031D182A192AF8291A2A08008312E3
:100438000313A0002003031D222A232A292A750852
:100448007F3EF6007608FA002F2A7508BF3EF600B0
:100458007608FA002F2A7A080A128A1136220A1216
:100468008A110800F400831203130710740885002A
:1004780087140630F3003030F200F20B412AF30BF8
:10048800412A000083120313871008008312031304
:100498009F184F2A502A542AFB01FB0A0C13542A8E
:1004A80071088A00700E8300FE0E7E0E090083120A
:1004B80003138501860187018801890183160313C7
:1004C8008501803086008701880189010800F300D2
:1004D8008312031307147308850087140D30F20084
:1004E800F20B742A8312031387100800F3007308B1
:1004F800F200F20DF20D831203131F087206C339BE
:1005080072069F00872A080002308A000408840ABD
:100518008207003453343134003401300A128A110E
:1005280036220A128A110800831203131E089C2A15
:020538000800B9
:04400E00D4E0FFFFFC
:00000001FF
