:020000040000FA
:060000000A128A110C280F
:10000800FE00030EF0000A08F1000A128A11A12965
:100018000A128A110F28F601F701F801F901FA010D
:1000280083010A128A110629F400D12883120313C6
:100038001F119F111F129F1283160317081483168E
:10004800031305140529831203131F159F111F128B
:100058009F12831603178814831603138514052922
:10006800831203131F119F151F129F128316031764
:1000780008158316031305150529831203131F1585
:100088009F151F129F1283160317881583160313D3
:1000980085150529831203131F119F111F169F121F
:1000A800831603170816831603138516052983126A
:1000B80003131F159F111F169F1283160317881607
:1000C8008316031309140529831203131F119F159F
:1000D8001F169F1283160317081783160313891414
:1000E8000529831203131F159F151F169F128316C8
:1000F8000317881783160313091505298312031399
:100108001F119F111F129F168316031709148316B8
:10011800031306150529831203131F159F111F12B8
:100128009F1683160317891483160313861505294A
:10013800831203131F119F151F129F16831603178F
:1001480009158316031386140529831203131F1533
:100158009F151F129F1683160317891583160313FD
:1001680006160529831203131F119F111F169F16C8
:100178008316031709168316031306140529831219
:1001880003131F159F111F169F1683160317891631
:10019800831603138616052905297408F200F3014E
:1001A8007308003A0319D92805297208003A031977
:1001B8001A28013A03192728033A03193428013A5F
:1001C80003194128073A03194E28013A03195B28F5
:1001D800033A03196828013A031975280F3A0319D5
:1001E8008228013A03198F28033A03199C28013AF7
:1001F8000319A928073A0319B628013A0319C3288D
:10020800052908000A128A11B2210A128A1101303E
:100218000A128A116A210A128A110A300A128A11EC
:1002280018200A128A110C300A128A1118200A1290
:100238008A111E297A0803192229232951290130F4
:10024800F5007508F807781C2A292B293D298312FF
:10025800031387140A300A128A11C2210A128A115A
:100268000A128A11D0210A128A11F5007508F700BE
:100278004F298312031307140C300A128A11C22162
:100288000A128A110A128A11D0210A128A11F5005B
:100298007508F6004F29FA01512983120313861FA6
:1002A800562957295B290715770888005F2987157C
:1002B800760888005F299F18622963291E299F14E0
:1002C8001E291E291E290A128A110C28F4000B1750
:1002D800831603130C17831203130C1383160313CB
:1002E8009F139F121F12831203131F1488299F1331
:1002F8001F139E299F131F179E299F171F139E299F
:100308009F171F179E299E297408F200F30173088E
:10031800003A031990299E297208003A03197B298B
:10032800013A03197E29033A03198129013A03196D
:1003380084299E299F148B170800831203139F1882
:10034800A629A729AB29FA01FA0A0C13AB297108C7
:100358008A00700E8300FE0E7E0E090083120313BE
:1003680085018601870188018901831603138501A8
:10037800803086008701880189010800F30073082E
:10038800F200F20DF20D831203131F087206C3392F
:1003980072069F00CF290800831203131E08D42970
:0203A80008004B
:04400E00D4E0FFFFFC
:00000001FF
