:020000040000FA
:060000000A128A110C280F
:10000800FE00030EF0000A08F1000A128A11812C82
:100018000A128A110F28FA01FB0183120313BC018B
:10002800BD01BE01BF01C00183010A128A11F32973
:10003800F400D428831203131F119F111F129F125B
:10004800831603170814831603130514082983124B
:1000580003131F159F111F129F128316031788146D
:100068008316031385140829831203131F119F1580
:100078001F129F12831603170815831603130515FD
:100088000829831203131F159F151F129F12831629
:10009800031788158316031385150829831203137C
:1000A8001F119F111F169F12831603170816831618
:1000B800031385160829831203131F159F111F1692
:1000C8009F12831603178816831603130914082929
:1000D800831203131F119F151F169F1283160317F0
:1000E80008178316031389140829831203131F158D
:1000F8009F151F169F12831603178817831603135D
:1001080009150829831203131F119F111F129F1627
:100118008316031709148316031306150829831277
:1001280003131F159F111F129F1683160317891497
:100138008316031386150829831203131F119F15AD
:100148001F129F16831603170915831603138614A7
:100158000829831203131F159F151F129F16831654
:100168000317891583160313061608298312031328
:100178001F119F111F169F16831603170916831642
:10018800031306140829831203131F159F111F1642
:100198009F168316031789168316031386160829D4
:1001A8007408F200F3017308003A0319DC280829DF
:1001B8007208003A03191E28013A03192B28033A3A
:1001C80003193828013A03194528073A0319522810
:1001D800013A03195F28033A03196C28013A0319F5
:1001E80079280F3A03198628013A03199328033A04
:1001F8000319A028013A0319AD28073A0319BA28A8
:10020800013A0319C7280829080083120313B1000B
:100218002730A9002908AC00DC292530320603194B
:100228001629172923293208A9003108840029082A
:10023800831380000130A9002908B107DC29AD012A
:100248000130A607FF30260784000A128A110A2403
:100258000A128A11B200A900AA012A08003A031951
:100268003629DC292908003A0319EE29643A0319CA
:1002780041290D3A03194129DC292C0884008313EC
:100288000008AF00840A0008B0000230A90029085D
:10029800AC07B01F502951295A290330A900290851
:1002A800AD04AF09B009AF0A0319B00AB201B20A26
:1002B8003208A9002907013E84000A128A110A247B
:1002C8000A128A11AA000A128A110A240A128A1129
:1002D800AB002B083002031D73292A082F020318CC
:1002E80076297729782982290130A9002908B207B7
:1002F80005303206031D812982295C292D0803391E
:1003080003198729882993292D30A90031088400E9
:100318002908831380000130A9002908B107320891
:10032800A9002908AE00D3290A30A0000030A10096
:100338002E08A9002907013E84000A128A110A24FE
:100348000A128A11F2000A128A110A240A128A1160
:10035800F3003008F5002F08F4000A128A110F2361
:100368000A128A11730883120313A3007208A200E9
:100378000A128A1153230A128A11831203132008BE
:10038800303EAA002A08B2003208A90031088400C9
:100398002908831380000130A9002908B107FF301C
:1003A800A9002908AE072E0A031DDB29DC29982994
:1003B8000130A607FF30260784000A128A110A2492
:1003C8000A128A11A9002908B2003208031DED2972
:1003D800EE291129310884008313800108000A12CC
:1003E8008A1171240A128A1101300A128A11C9234A
:1003F8000A128A110A300A128A111C200A128A115A
:100408000C300A128A111C200A128A110A128A1147
:100418008F230A128A110A128A11AD240A128A112C
:10042800F501F50A01300A128A1145240A128A11C7
:100438000F30F4008030F5000A128A11C9220A121E
:100448008A11073083120313BB003B08F500013003
:100458000A128A1145240A128A111230F4008030D7
:10046800F5000A128A11C9220A128A110D30831264
:100478000313BB003B08F50001300A128A1145241A
:100488000A128A110B30F4008030F5000A128A1122
:10049800C9220A128A11F501F50A02300A128A11D4
:1004A80045240A128A1183120313400803195D2A8E
:1004B8005E2A882A0130BB003B08BF073F1C652A1B
:1004C800662A772A0A300A128A11A0240A128A1187
:1004D8000A128A11B4240A128A1183120313BB0068
:1004E8003B08BE00872A0C300A128A11A0240A127F
:1004F8008A110A128A11B4240A128A118312031368
:10050800BB003B08BD00C001F501F50A02300A1224
:100518008A1145240A128A11831203133E080A120B
:100528008A1127240A128A11073083120313BB0089
:100538003B08F50002300A128A1145240A128A1172
:10054800831203133D080A128A1127240A128A11FA
:100558000D3083120313BB003B08F50002300A126A
:100568008A1145240A128A1100300A128A11272496
:100578000A128A11831203139F18C32AC42A572AFE
:100588009F14572A0A128A110C2883120313A001F8
:10059800A101F22A20087407F7007508F60003186D
:1005A800F60AA01FD82AF6037608F80078088312FE
:1005B8000313FF00770884000A128A1100240A1224
:1005C8008A110A128A1191240A128A11013083129F
:1005D8000313A0070318A10A0030A1072008740715
:1005E800F7007508F6000318F60AA01FFC2AF603A0
:1005F8007608F800780883120313FF007708840050
:100608000A128A1100240A128A11003A031D0D2BBE
:100618000E2BCE2A0800F701F8017208730403199B
:10062800162B172B4E2BF901F90A252B0130031035
:10063800F20DF30DFF3E031D1B2B0130F60076086B
:10064800F907F31F282B292B1A2B01300310F70D5C
:10065800F80DFF3E031D2A2B73087502031D362B68
:1006680072087402031C392B3A2B412B7208F402CE
:100678007308031CF503F502771401300310F30C1B
:10068800F20CFF3E031D422B0130F902031D4D2BD6
:100698004E2B292B7808F3007708F2000800831204
:1006A80003132008210403195A2B5B2B8A2BA5015D
:1006B800A50A692B01300310A00DA10DFF3E031DF3
:1006C8005F2B0130A4002408A507A11F6C2B6D2BFC
:1006D8005E2B21082302031D732B20082202031C12
:1006E800762B772B7D2B2008A2022108031CA3035D
:1006F800A30201300310A10CA00CFF3E031D7E2BAA
:100708000130A502031D892B8A2B6D2B2308A1001C
:100718002208A00008001430F6007930F500F50B27
:10072800932BF60B932B982B30300A128A115D24E9
:100738000A128A1130300A128A115D240A128A11AB
:1007480030300A128A115D240A128A1138300A12CE
:100758008A115D240A128A1110300A128A115D2446
:100768000A128A1101300A128A115D240A128A11AA
:1007780006300A128A115D240A128A110E300A12F2
:100788008A115D240A128A110800F4000B178316D7
:1007980003130C17831203130C13831603139F13ED
:1007A8009F121F12831203131F14E62B9F131F138C
:1007B800FC2B9F131F17FC2B9F171F13FC2B9F1736
:1007C8001F17FC2B7408F200F3017308003A031991
:1007D800EE2BFC2B7208003A0319DA2B013A0319A5
:1007E800DD2B033A0319E02B013A0319E32BFC2B09
:0607F8009F148B1708009E
:10080000FF1B0A2C83137F1883170008840A03191F
:10081000FF0A080004308A000408840A82070034B2
:10082000013400340A34003464340034E8340334CE
:100830001034273443344F344D340034533431347E
:100840000034533432340034253464340034831299
:100850000313BA001530B3003308A6003A08B400F9
:10086000B5013408A7003508A80036300A128A11ED
:1008700009210A128A113630F4000030F5000A12FC
:100880008A11C9220A128A110800F7007703031D92
:100890004A2C4B2C512C75087F3EF6007608FA0046
:1008A000562C7508BF3EF6007608FA007A080A1240
:1008B0008A115D240A128A110800F40083120313BE
:1008C00007107408850087140630F3003030F200FA
:1008D000F20B682CF30B682C0000831203138710B3
:1008E00008008312031385018601870188018901AD
:1008F00083160313850180308600870188018901F2
:100900000800831203139F18862C872C8A2CC001A1
:10091000C00A0C1371088A00700E8300FE0E7E0E52
:100920000900F3008312031307147308850087146A
:100930000D30F200F20B9A2C83120313871008007B
:10094000F3007308F200F20DF20D831203131F0877
:100950007206C33972069F00080001300A128A111C
:100960005D240A128A110800831203131E0808006E
:04400E00D4E0FFFFFC
:00000001FF
