:020000040000FA
:060000000A128A110C280F
:10000800FE00030EF1000A08F2000A128A111528F0
:100018000A128A110F28F701F80183010A128A11BE
:100028007E28831203138C1D1A281B287728141284
:10003800141B1F2820282528941F232824282D280E
:1000480025281308F0007008F800141394131416E8
:100058002D2883160313941A32283328502814198C
:10006800362837285028831203131308F000700825
:10007800F8008C111416402883160313141C452805
:100088004628402847288312031313088800533052
:10009800F000F00B4D287328941A5328542873281D
:1000A800141D572858287328831203131308F000C7
:1000B8007008F8008316031314108312031306083C
:1000C800930014165330F000F00B68286B28831641
:1000D80003131418702871286B2873287328831247
:1000E80003138C11772872088A00710E8300FE0EA4
:1000F8007E0E09000A128A11B4200A128A11842875
:1001080001308312031386020330F6008A30F500AB
:100118005530F400F40B8E28F50B8E28F60B8E283C
:100128009528842884280A128A110C28F300730859
:100138008316031393003630831203139400803020
:1001480083160313940001309100871507168B1747
:100158000B17831203138C11831603138C150800D5
:100168008316031788018901831603138601880102
:10017800831203138601880150300A128A119A20CB
:060188000A128A110800B2
:04400E00D4E0FFFFFC
:00000001FF
