:020000040000FA
:060000000A128A110C280F
:10000800FE00030EFA000A08FB000A128A11A8284B
:100018000A128A110F28F001F101F201F301F4012B
:10002800F501F601F701F80183010A128A111C286B
:100038000A128A112B210A128A1183120313081536
:100048002528061C2828292831287308031D2D284F
:100058002E283128F301F30A31289730710203184A
:10006800362837283D2873087107FD007D08F10000
:100078006528061C402841285B287303031D452872
:1000880046285B287508031D4A284B285B280F3033
:100098000506031D5028512853288501582801308A
:1000A800FD007D0885075828F501F50A652806181A
:1000B8005E285F286528F101F301F50165286528A8
:1000C8006528061F6828692871287208031D6D288D
:1000D8006E287128F201F20A71289730700203180D
:1000E800762877287D2872087007FD007D08F000C3
:1000F8002528061F8028812899287203031D852832
:10010800862899287408031D8A288B2899280508A9
:10011800031D8F28902893280F30850096280130DA
:1001280085029628F401F40A2528061B9C289D2898
:100138002528F001F201F40125282528252825285D
:1001480025280A128A110C28831203138C1DAD2846
:10015800AE280A291412141BB228B328B828941FF1
:10016800B628B728C028B8281308F9007908F80075
:10017800141394131416C02883160313941AC5284D
:10018800C628E3281419C928CA28E32883120313A8
:100198001308F9007908F8008C111416D32883166F
:1001A8000313141CD828D928D328DA288312031358
:1001B800130888005330F900F90BE0280629941A2F
:1001C800E628E7280629141DEA28EB2806298312C1
:1001D80003131308F9007908F800831603131410A1
:1001E800831203130508930014165330F900F90B12
:1001F800FB28FE2883160313141803290429FE2854
:1002080006290629831203138C110A297B088A0000
:100218007A0E8300FE0E7E0E0900FC007C08831611
:10022800031393003630831203139400803083162F
:100238000313940001309100871507168B170B17CD
:10024800831203138C11831603138C15080083166D
:10025800031788018901831603138501413086003D
:1002680088018312031385018601880160300A1210
:0A0278008A1111210A128A110800F0
:04400E00D4E0FFFFFC
:00000001FF
