:020000040000FA
:060000000A128A110C280F
:10000800FE00030EF1000A08F2000A128A111728EE
:100018000A128A110F28F601F701F801F901830184
:100028000A128A11F928831203138C1D1C281D2813
:1000380078281412141B212822282728941F2528E1
:1000480026282F2827281308F0007008F700141313
:10005800941314162F2883160313941A342835285A
:1000680052281419382839285228831203131308E0
:10007800F0007008F7008C11141642288316031339
:10008800141C4728482842284928831203131308B8
:1000980088005330F000F00B4F287528941A552823
:1000A80056287528141D59285A28752883120313B1
:1000B8001308F0007008F70083160313141079086A
:1000C80083120313930014165330F000F00B6A28C0
:1000D8006D28831603131418722873286D28752841
:1000E8007528831203138C119F187B287C28882875
:1000F8000A128A110E210A128A11F0007008F900FA
:10010800831203130C13882872088A00710E830067
:10011800FE0E7E0E0900F5000B17831603130C174D
:10012800831203130C13831603139F139F121F12BA
:10013800831203131F14AD289F131F13C3289F1383
:100148001F17C3289F171F13C3289F171F17C328DC
:10015800C3287508F300F4017408003A0319B52898
:10016800C3287308003A0319A028013A0319A328E1
:10017800033A0319A628013A0319A928C3289F148A
:100188008B170800F30073088316031393003630A7
:1001980083120313940080308316031394000130F4
:1001A8009100871507168B170B17831203138C11F1
:1001B800831603138C150800831603178801890119
:1001C80083160313860188018312031386018801AD
:1001D80000300A128A118F200A128A1140300A123E
:1001E8008A11C6200A128A1108000A128A11E02010
:1001F8000A128A11FF28831203139F18042905295C
:1002080007299F14072979088600FF28FF280A1262
:0E0218008A110C28831203131E0812290800F5
:04400E00D4E0FFFFFC
:00000001FF
