:020000040000FA
:060000000A128A110C280F
:10000800FE00030EF0000A08F1000A128A11B42853
:100018000A128A110F280A128A11C1200A128A119B
:10002800F9000A128A11C2200A128A11FA00830101
:100038000A128A111F280A128A1171200A128A11BB
:10004800252883120313851F2A282B282E287A088F
:100058008600312879088600312801300A128A1171
:10006800BB200A128A110A128A11A1200A128A11C7
:10007800F6007608FA000D30F700FB30F600F60BB4
:100088004328F70B4328482802300A128A11BB205C
:100098000A128A110A128A11A1200A128A11F6007C
:1000A8007608F9000D30F700FB30F600F60B5A28F9
:1000B800F70B5A285F280230F8004530F700A930BE
:1000C800F600F60B6528F70B6528F80B65286C28F1
:1000D800252825280A128A110C2883160317880157
:1000E8008901831603130711803085008601880172
:1000F80083120313860188010715F201F301F40145
:1001080020300A128A118B200A128A110800F50081
:10011800831603138712751D92289328972874084D
:10012800940087159B287208740494008711750839
:10013800730483120313940008000A128A11AB2077
:100148000A128A11831203131308AA280800AC287C
:1001580083160313141CB128B228AC28B32808004E
:1001680071088A00700E8300FE0E7E0E0900F200F0
:0E017800720883120313930008005934673491
:04400E00D4E0FFFFFC
:00000001FF
