:020000040000FA
:060000000A128A110C280F
:10000800FE00030EF0000A08F1000A128A15FC2906
:100018000A128A110F28F801F901FA018312031351
:10002800ED01EE01EF018313B1308400C1300A12F3
:100038008A15CE210A128A1183010A128A15BA2A50
:100048008312031349088039CE004E08D3004908AB
:10005800CE004E07CF004F08D900C81F34283528D6
:10006800372859143728590803193B283C284C28A5
:10007800590A031D402841284A280030C900003089
:10008800C8000030C7000030C6004A28C8175528E5
:100098000030C9000030C8000030C7000030C6007A
:1000A80055284D088039CE004E08D3064D08CE009D
:1000B8004E07CF004F08D400CC1F63286428662859
:1000C80054146628540803196A286B287B28540A94
:1000D800031D6F28702879280030CD000030CC002F
:1000E8000030CB000030CA007928CC1784280030B3
:1000F800CD000030CC000030CB000030CA0084288E
:1001080054080319882889288F285908031D8D2821
:100118008E2899288F280030C9000030C800003088
:10012800C7000030C600982B982B4608CE004E0812
:10013800F2004C080A128A11C7270A128A1173089A
:1001480083120313DF007208DE005E08CE00CF01C1
:10015800D001D1015108D8005008D7004F08D60067
:100168004E08D5005F08CE00CF01D001D10151085B
:10017800DD005008DC004F08DB004E08DA004708B5
:10018800CE004E08F2004B080A128A11C7270A123D
:100198008A11730883120313DF007208DE005E08F9
:1001A800CE00CF01D001D1014E08D5074F08031169
:1001B8000318013E0319E128D60750080311031854
:1001C800013E0319E828D707510803110318013E17
:1001D8000319EF28D8075F08CE00CF01D001D1015D
:1001E8004E08DA074F0803110318013E0319FD28CA
:1001F800DB07500803110318013E03190429DC0723
:10020800510803110318013E03190B29DD0748089B
:10021800CE004E08F2004A080A128A11C7270A12AD
:100228008A11730883120313DF007208DE005E0868
:10023800CE00CF01D001D1014E08D5074F080311D8
:100248000318013E03192929D6075008031103187A
:10025800013E03193029D707510803110318013E3D
:1002680003193729D8075F08CE00CF01D001D10183
:100278004E08DA074F0803110318013E03194529F0
:10028800DB07500803110318013E03194C29DC074A
:10029800510803110318013E03195329DD070830DB
:1002A800CE000310D50DD60DD70DD80DCE0B552980
:1002B8004708CE004E08F2004A080A128A11C727DA
:1002C8000A128A11730883120313DF007208DE0012
:1002D8005E08CE005F08CF00D001D1014E08D507D7
:1002E8004F0803110318013E03197B29D60750084C
:1002F80003110318013E03198229D7075108031176
:100308000318013E03198929D8074608CE004E086C
:10031800F2004B080A128A11C7270A128A117308B9
:1003280083120313DF007208DE005E08CE005F0848
:10033800CF00D001D1014E08D5074F08031103188B
:10034800013E0319A829D607500803110318013ED6
:100358000319AF29D707510803110318013E0319E0
:10036800B629D8070830CE000310D50DD60DD70D05
:10037800D80DCE0BB8294608CE004E08F2004A0820
:100388000A128A11C7270A128A11730883120313E3
:10039800DF007208DE005E08CE005F08CF00D001E3
:1003A800D1014E08D5074F0803110318013E031960
:1003B800DE29D607500803110318013E0319E52961
:1003C800D707510803110318013E0319EC29D80770
:1003D8004708CE004E08F2004C080A128A11C727B7
:1003E8000A128A11730883120313DF007208DE00F1
:1003F8005E08CE005F08CF00D001D1014E08DA07B1
:100408004F0803110318013E03190B2ADB07500894
:1004180003110318013E0319122ADC0751080311BE
:100428000318013E0319192ADD074808CE004E08B3
:10043800F2004B080A128A11C7270A128A11730898
:1004480083120313DF007208DE005E08CE005F0827
:10045800CF00D001D1014E08DA074F080311031865
:10046800013E0319382ADB07500803110318013E1F
:1004780003193F2ADC07510803110318013E031929
:10048800462ADD074808CE004E08F2004C080A123A
:100498008A11C7270A128A11730883120313DF000F
:1004A8007208DE005E08CE005F08CF00D001D101DF
:1004B80008300310CE0DCF0DD00DD10DFF3E031D1A
:1004C8005D2A4E08DA074F0803110318013E031985
:1004D8006E2ADB07500803110318013E0319752A19
:1004E800DC07510803110318013E03197C2ADD07B4
:1004F8005508CE005608CF005708D0005808D1003C
:1005080018300310D10CD00CCF0CCE0CFF3E031DBD
:10051800852A4E08DA074F0803110318013E03190C
:10052800962ADB07500803110318013E03199D2A78
:10053800DC07510803110318013E0319A42ADD073B
:100548000830CE000310D50DD60DD70DD80DCE0B23
:10055800A62A59085407CE00CF01CF0D4E08823E77
:10056800DE004F080318013EFF3EDF00DA2A0130A3
:10057800CE000310DA0DDB0DDC0DDD0DCE0BBD2A30
:10058800D81FC72AC82ACA2A5A14CA2A0130CE0034
:100598000310D50DD60DD70DD80DCE0BCC2AFF30B4
:1005A800DE070318DF0AFF30DF07DA2ADC1FDD2A3F
:1005B800DE2ABB2ADF2AD401D81FE32AE42A042B27
:1005C800FF305505CE00FF305605CF00FF305705E8
:1005D800D0007F305805D100510850044F044E0414
:1005E8000319F72AF82AFB2AD401D40A042B5A1C27
:1005F800FE2AFF2A042BD401D40A042B042B042B33
:1006080054080319082B092B3C2B0130DA0700305A
:1006180003180130DB07003003180130DC07003015
:1006280003180130DD075D1C1A2B1B2B3C2B5A08C5
:10063800CE005B08CF005C08D0005D08D100013017
:10064800D200510DD10CD00CCF0CCE0CD20B252BD7
:100658005108DD005008DC004F08DB004E08DA00C6
:100668000130DE070318DF0A0030DF073C2B3C2B84
:100678005F08803AFF0080307F02031D452BFF3062
:100688005E02031C482B492B542B7F308312031323
:10069800DD008030DC000030DB000030DA008B2B1E
:1006A800831203135F08803AFF0080307F02031D26
:1006B8005F2B01305E020318622B632B6F2B003017
:1006C80083120313DD000030DC000030DB00003053
:1006D800DA00D3018B2B831203135E08CE004E0879
:1006E800D900FF30DA05FF30DB057F30DC0500304C
:1006F800DD05591C802B812B832BDC17832B590894
:10070800CE0003104E0CCF004F08DD008B2B530892
:10071800CE004E08DD045D08C9005C08C8005B080F
:10072800C7005A08C600982B0800831203136708ED
:100738008039E800680883160313A40083120313A2
:100748006708E8006807E900690883160313AB0027
:1007580083120313E61FB12BB22BB62B8316031398
:100768002B14B62B831603132B080319BC2BBD2B94
:10077800D12B2B0A031DC12BC22BCD2B003083128A
:100788000313E7000030E6000030E5000030E40025
:10079800CD2B8312E617E701DB2B00308312E7002D
:1007A8000030E6000030E5000030E400DB2B630891
:1007B8008039E800680883160313A406831203131C
:1007C8006308E8006807E900690883160313AC00AA
:1007D80083120313E21FF12BF22BF62B831603135C
:1007E8002C14F62B831603132C080319FC2BFD2B52
:1007F800112C2C0A031D012C022C0D2C0030831205
:100808000313E3000030E2000030E1000030E000B4
:100818000D2C8312E217E3011A2C00308312E30037
:100828000030E2000030E1000030E00063086204BC
:1008380061046004031D212C222C402C0030E700A9
:100848000030E6000030E5000030E4008030E604C7
:100858007F30E70483160313240883120313E80088
:100868006808E7046708E3006608E2006508E10035
:100878006408E000662E662E831603132B08031DFA
:10088800462C472C5B2C003083120313E700003002
:10089800E6000030E5000030E4006708E300660881
:1008A800E2006508E1006408E000662E662E831603
:1008B80003132C0883120313E800E901E809E90986
:1008C800E80A0319E90A831603132B088312031392
:1008D8006807EA0069080318690AEB006A087F3E9E
:1008E80083160313A500831203136B080318013E34
:1008F800003E83160313A6008312031367088316AA
:100908000313A30083120313660883160313A200BC
:1009180083120313650883160313A10083120313BC
:10092800640883160313A000003083120313E70042
:100938000030E6000030E5000030E40000308316A7
:100948000313AA000030A9000030A8000030A70057
:10095800AC01382D2C080319B22CB32CE42C01302F
:1009680083120313E800031083160313A00DA10DCF
:10097800A20DA30D83120313E80BB72C0130E80076
:100988000310E40DE50DE60DE70DE80BC42C831606
:100998000313AA1FD02CD12CD52C83120313641453
:1009A800D52C01308312E800031083160313A70D1A
:1009B800A80DA90DAA0D83120313E80BD82CE42C5B
:1009C80083126308831603132302031D012D831268
:1009D80003136208831603132202031D012D8312D9
:1009E80003136108831603132102031D012D8312CB
:1009F80003136008831603132002031C042D052D1E
:100A08002F2D2A1783120313600883160313A002DD
:100A1800831203136108031C610F132D162D83160F
:100A28000313A102831203136208031C620F1D2D16
:100A3800202D83160313A202831203136308031CD9
:100A4800630F272D2A2D83160313A3028312031382
:100A5800831603132F2D013083120313E80068084F
:100A680083160313AC07382D1A302C02031C3D2DB6
:100A78003E2DAE2C3F2D2308220421042004031907
:100A8800462D472D752D2714752D752D0130831290
:100A9800E8000310E40DE50DE60DE70DE80B4D2D1C
:100AA80083160313AA1F592D5A2D5E2D8312031383
:100AB80064145E2D01308312E800031083160313BB
:100AC800A70DA80DA90DAA0D83120313E80B612D1C
:100AD800FF3083160313A5070318A60AFF30A607DD
:100AE800752D83120313E61F7A2D7B2D4A2D7C2D3D
:100AF80083160313AC01AA1F822D832DB52DFF3059
:100B0800270583120313E800FF3083160313280513
:100B180083120313E900FF30831603132905831298
:100B28000313EA007F30831603132A058312031385
:100B3800EB006B086A04690468040319A42DA52D49
:100B4800AA2D83160313AC01AC0AB52D641CAD2D78
:100B5800AE2DB52D83160313AC01AC0AB52DB52DFA
:100B6800B52D831603132C080319BB2DBC2DF32DAB
:100B7800013083120313E407003003180130E5073E
:100B8800003003180130E607003003180130E7078A
:100B9800671CCF2DD02DF32D6408E8006508E90007
:100BA8006608EA006708EB000130EC006B0DEB0CFF
:100BB800EA0CE90CE80CEC0BDA2D6B08E7006A0884
:100BC800E6006908E5006808E400013083160313AD
:100BD800A5070318A60A0030A607F32DF32D8316E0
:100BE80003132608803AFF0080307F02031DFE2D84
:100BF800FF302502031C012E022E132EFF30831610
:100C08000313A5000030A600003083120313E70089
:100C18000030E6000030E5000030E400132E8316B3
:100C280003132608803AFF0080307F02031D1E2E22
:100C3800013025020318212E222E332E831603138A
:100C4800A501A601003083120313E7000030E60077
:100C58000030E5000030E40083160313A401831676
:100C68000313250883120313E80068088316031387
:100C7800AB002B1C402E412E452E83120313E61782
:100C88004A2E7F308312E8006808E60583160313AE
:100C98002B0883120313E8000310680CE9006908A5
:100CA800E70083160313240883120313E800680877
:100CB800E7046708E3006608E2006508E1006408E5
:100CC800E000662E080083120313A4002408031909
:100CD8006E2E6F2E832EF51F722E732E832E7209A1
:100CE800A6007309A7007409A8007509A900A60A37
:100CF8000319A70A0319A80A0319A90A8B2E75084C
:100D0800A9007408A8007308A7007208A60075084F
:100D1800740473047204031D922E932E9D2E0030CA
:100D2800F5000030F4000030F3000030F2002A2F04
:100D38002A2F9630A0002008A500B02E0130A00070
:100D48002008A50701300310A90CA80CA70CA60CB5
:100D5800FF3E031DA72EB02EFE302905031DB52E1C
:100D6800B62EA22ED32ED32E0130A0002008A50720
:100D78000130A607003003180130A7070030031818
:100D88000130A807003003180130A907013003100B
:100D9800A90CA80CA70CA60CFF3E031DCB2EFF30F8
:100DA8002905031DD82ED92EB82EE72EE72E01309F
:100DB800A5020130A0000310A60DA70DA80DA90DCE
:100DC800A00BDF2EE72EA81BEA2EEB2EF22E023008
:100DD80025020318F02EF12EDB2EF22E2518F52E03
:100DE800F62EFE2EFF30A605FF30A7057F30A8059A
:100DF800FF30A9050310A50C2508A000A101A20138
:100E0800A30118300310A00DA10DA20DA30DFF3EE4
:100E1800031D062F2008A6042108A7042208A804F9
:100E28002308A904240803191A2F1B2F212FF51FA3
:100E38001E2F1F2F212FA917212F2908F500280859
:100E4800F4002708F3002608F2002A2F0800720889
:100E580083120313A0007308A1007408A200750888
:100E6800A3000310220D230DA4002408F70077081F
:100E7800031D3F2F402F4A2F0030F5000030F400AB
:100E88000030F3000030F200C62FC62F7208A00011
:100E98007308A1007408A2007508A3001F3003108E
:100EA800A30CA20CA10CA00CFF3E031D532F20087D
:100EB800A4002408F600F417FF30F205FF30F3050C
:100EC800FF30F4050030F5059630F702F71F6D2F57
:100ED8006E2F932F7708803A973E0318742F752F3B
:100EE800802F0030F5000030F4000030F3000030AF
:100EF800F200C62FC62F802F01300310F50CF40C1A
:100F0800F30CF20CFF3E031D812F0130A0002008D6
:100F1800F707031D902F912F802FB62FB62F203063
:100F28007702031C982F992FAF2F0030F50000305F
:100F3800F4000030F3000030F200C62FC62FAF2FA8
:100F48000130A0000310F20DF30DF40DF50DA00B08
:100F5800A62F0130F7027708031DB32FB42FA42F53
:100F6800B62FB62F76080319BA2FBB2FC62FF20952
:100F7800F309F409F509F20A0319F30A0319F40A43
:100F88000319F50A080083120313A400A001A101A4
:100F98007208F400F5017408A2007508A300D42FA4
:100FA800241CD72FD82FDE2F2208A0070318A10A48
:100FB8002308A10701300310A20DA30DFF3E031D56
:100FC800DF2F0310A40C2408031DEB2FEC2FD42FC4
:100FD800ED2F2108F3002008F200F22F08000A1272
:100FE8008A15D6210A128A11831203131308FC2FBB
:020FF8000800EF
:10139000F2007208831203139300080064008001B6
:1013A000840A0406031900340406CF29D7298316BA
:1013B0000313141CDC29DD29D729DE290800F200DB
:1013C000E12983160313981CE629E729E129E82976
:1013D00072088312031399000800831203132D0867
:1013E0002C042B042A040319F629F729FA29803042
:1013F000AD06FA29FB290800831203138C1E012A6B
:10140000022A062A05141A088600062A71088A008C
:10141000700E8300FE0E7E0E0900F5008316031386
:101420008712751D142A152A192A74089400871525
:101430001D2A7208740494008711750873048312BE
:10144000031394000800831603178801890183168B
:101450000313071187120716803085008601880163
:1014600083120313860188010715F201F301F401C9
:1014700020300A128A150D220A128A1508008316D6
:10148000031387178C12831203139817760C831695
:101490000313031C18120318181675080319512A90
:1014A000522A5C2A831203131816831603138C1610
:1014B000831203138C125C2A74080319602A612AB0
:1014C000642A831603139816831603178715831649
:1014D000031318112C307206031D722A7303031DA7
:1014E000722A732A782A4030990003309A00B72A6A
:1014F000B0307206043003197306031D802A812A56
:10150000842ACF309900B72A603072060930031957
:101510007306031D8C2A8D2A902A67309900B72AFA
:1015200080307206253003197306031D982A992A04
:101530009C2A19309900B72AB13072062830031955
:101540007306031DA42AA52AA82A17309900B72AD2
:101550004B3073067204031DAE2AAF2AB72A0C3033
:101560009900B72AB72AB72AB72AB72AB72A0B177A
:101570008B1708000A128A1523220A128A15803056
:10158000F2002530F300F401F40AF501F50AF60142
:101590000A128A153F220A128A1501300A128A1588
:1015A000C8210A128A150A128A11F3270A128A150B
:1015B00083160313AD002D08FA000D3083160313B4
:1015C000AE00FB30AD00AD0BE32AAE0BE32A0230D8
:1015D0000A128A15C8210A128A150A128A11F327DB
:1015E0000A128A1583160313AD002D088312031304
:1015F000EF000D3083160313AE00FB30AD00AD0BD2
:10160000FF2AAE0BFF2A433083120313E3007F301F
:10161000E2000030E1000030E0004030C900A030BE
:10162000C8000030C7000030C6007A0883160313D4
:10163000AD00AE01AF01B0013008F5002F08F40095
:101640002E08F3002D08F20000300A128A116726D6
:101650000A128A15750883120313CD007408CC0092
:101660007308CB007208CA000A128A1124200A12D9
:101670008A15831203134908E7004808E600470863
:10168000E5004608E4000A128A1199230A128A1515
:1016900083120313630883160313B8008312031322
:1016A000620883160313B7008312031361088316BD
:1016B0000313B60083120313600883160313B500E7
:1016C0003808F5003708F4003608F3003508F20052
:1016D0000A128A112B270A128A157208831603131D
:1016E000AD002D08F900423083120313C900C83041
:1016F000C8000030C7000030C60083160313380846
:1017000083120313B10083160313370883120313E4
:10171000B00083160313360883120313AF00831639
:101720000313350883120313AE00790883160313DD
:10173000AD00AE01AF01B0013008F5002F08F40094
:101740002E08F3002D08F20001300A128A116726D4
:101750000A128A15750883120313AD007408AC00D1
:101760007308AB007208AA000A128A15ED210A124A
:101770008A15831203132D08B5002C08B4002B081A
:10178000B3002A08B2000A128A1544250A128A15E3
:10179000831203133108CD003008CC002F08CB0092
:1017A0002E08CA000A128A1124200A128A158312EE
:1017B0000313490883160313C00083120313480858
:1017C00083160313BF008312031347088316031302
:1017D000BE0083120313460883160313BD0040089E
:1017E000F5003F08F4003E08F3003D08F2000A123D
:1017F0008A112B270A128A15720883160313AD006B
:101800002D0883120313EE004330E3007F30E20023
:101810000030E1000030E0004030C900A030C800D6
:101820000030C7000030C6006F0883160313AD00F8
:10183000AE01AF01B0013008F5002F08F4002E080A
:10184000F3002D08F20000300A128A1167260A12EE
:101850008A15750883120313CD007408CC00730831
:10186000CB007208CA000A128A1124200A128A15B3
:10187000831203134908E7004808E6004708E5001B
:101880004608E4000A128A1199230A128A15831263
:101890000313630883160313B4008312031362084F
:1018A00083160313B3008312031361088316031313
:1018B000B20083120313600883160313B1003408C7
:1018C000F5003308F4003208F3003108F2000A1280
:1018D0008A112B270A128A15720883160313AD008A
:1018E0002D08F800423083120313C900C830C80025
:1018F0000030C7000030C60083160313340883127B
:101900000313B10083160313330883120313B000CB
:1019100083160313320883120313AF0083160313D5
:10192000310883120313AE00780883160313AD0049
:10193000AE01AF01B0013008F5002F08F4002E0809
:10194000F3002D08F20001300A128A1167260A12EC
:101950008A15750883120313AD007408AC00730870
:10196000AB007208AA000A128A15ED210A128A1524
:10197000831203132D08B5002C08B4002B08B30004
:101980002A08B2000A128A1544250A128A158312FF
:1019900003133108CD003008CC002F08CB002E08EF
:1019A000CA000A128A1124200A128A15831203130C
:1019B000490883160313BC008312031348088316D7
:1019C0000313BB0083120313470883160313BA00E3
:1019D00083120313460883160313B9003C08F5006D
:1019E0003B08F4003A08F3003908F2000A128A11A1
:1019F0002B270A128A15720883160313AD002D08CF
:101A000083120313ED0079080A128A15DF210A12E6
:101A10008A15831603134008F5003F08F4003E08BA
:101A2000F3003D08F2000A128A112B270A128A15C8
:101A300072080A128A15DF210A128A1578080A121A
:101A40008A15DF210A128A15831603133C08F50054
:101A50003B08F4003A08F3003908F2000A128A1130
:101A60002B270A128A1572080A128A15DF210A1218
:101A70008A15B0300A128A15DF210A128A15CD2A7A
:101A8000CD2A0A128A110C288312031331088039D7
:101A9000B6003608C2003108B6003607B70037086E
:101AA000C400B01F542D552D572D4414572D4408F4
:101AB00003195B2D5C2D6D2D440A031D602D612DD6
:101AC0006A2D0030B1000030B0000030AF000030AF
:101AD000AE006A2DB017B101762D0030B100003094
:101AE000B0000030AF000030AE00762D35088039F0
:101AF000B6003608C300430842060319802D812D25
:101B0000832D4217832D3508B6003607B7003708F6
:101B1000C300B41F8C2D8D2D8F2D43148F2D4308A2
:101B20000319932D942DA52D430A031D982D992D4E
:101B3000A22D0030B5000030B4000030B3000030FA
:101B4000B200A22DB417B501AD2D0030B5000030A4
:101B5000B4000030B3000030B20044084302031860
:101B6000B22DB32DF92D421FB62DB72DBC2D8030CF
:101B7000B6003608C206BC2D4408B6003608C500BB
:101B80004308B6003608C4004508B6003608C3004E
:101B90002E08B6003608C5003208B6003608AE007A
:101BA0004508B6003608B2002F08B6003608C50052
:101BB0003308B6003608AF004508B6003608B30053
:101BC0003008B6003608C5003408B6003608B00044
:101BD0004508B6003608B4003108B6003608C5001E
:101BE0003508B6003608B1004508B6003608B5001D
:101BF000F92DC5014408B600B701B609B709B60A00
:101C00000319B70A43083607B80037080318370A1C
:101C1000B9003908803AFF0080307F02031D122E80
:101C20001A303802031C152E162E572E831203135A
:101C3000310830042F042E04031D1F2E212E0130E5
:101C4000222E0030B6003608C5000030B10000304A
:101C5000B0000030AF000030AE004308B6003608D8
:101C6000C400602E572E451C362E372E402E4508B8
:101C7000B6000310360C0138B7003708C500432EF4
:101C80000310C50C432E2E1C462E472E492EC51779
:101C9000492E0130B600310DB10CB00CAF0CAE0CBA
:101CA000B60B4B2E0130B6003608C407572E8312F0
:101CB000031343084402031C5E2E5F2E332E602E56
:101CC000421B632E642EB32E4408031D682E692E1A
:101CD000732E0030B1000030B0000030AF00003093
:101CE000AE00FF2FFF2F3208AE0733080311031891
:101CF000013E03197C2EAF07340803110318013E7F
:101D00000319832EB007350803110318013E031988
:101D10008A2EB107311C8D2E8E2E7C2F451C912EC4
:101D2000922E9B2E4508B6000310360C0138B700E2
:101D30003708C5009E2E0310C50C9E2E2E1CA12E0A
:101D4000A22EA42EC517A42E0130B600310DB10C61
:101D5000B00CAF0CAE0CB60BA62E0130B600360898
:101D6000C4077C2F7C2F3108803AFF003508803A69
:101D70007F02031DC52E34083002031DC52E330813
:101D80002F02031DC52E32082E020318C82EC92E9D
:101D90002F2FFF30B600FF30B700FF30B800FF3004
:101DA000B9003208BA003308BB003408BC0035085B
:101DB000BD002E09BE002F09BF003009C000310947
:101DC000C100BE0A0319BF0A0319C00A0319C10AD8
:101DD0003E08BA073F0803183F0FEF2EF02EBB074F
:101DE00040080318400FF52EF62EBC0741080318D3
:101DF000410ABD073A08B6073B0803183B0F012FFD
:101E0000022FB7073C0803183C0F072F082FB8070D
:101E10003D0803183D0AB9073908B1003808B00079
:101E20003708AF003608AE008030B6003608C2066C
:101E3000C509C50A4508031D1E2F1F2F3D2F013060
:101E4000AE07003003180130AF070030031801302F
:101E5000B007003003180130B1073D2F3D2F320885
:101E6000AE023308031C330FAF023408031C340FD7
:101E7000B0023508031C350FB102310830042F04BD
:101E80002E04031D442F452F762F4508031D492F8F
:101E90004A2F762F0030B1000030B0000030AF0084
:101EA0000030AE00FF2FFF2F762F0130B600031059
:101EB000AE0DAF0DB00DB10DB60B572FC51F612F75
:101EC000622F632F2E14451C662F672F6A2F031471
:101ED000C50D6D2F0310C50D6D2F44080319712F0B
:101EE000722F762F0130C402762F762FB01F792FF4
:101EF0007A2F552F7C2F7C2FC301C51F802F812F58
:101F0000932F45087F390319862F872F8A2FC30106
:101F1000C30A932F2E1C8D2F8E2F932FC301C30A1C
:101F2000932F932F932F43080319972F982FCE2F7A
:101F30000130AE07003003180130AF07003003183E
:101F40000130B007003003180130B107311CA92F50
:101F5000AA2FCE2F2E08B6002F08B7003008B800E1
:101F60003108B9000130BA00390DB90CB80CB70C02
:101F7000B60CBA0BB42F3908B1003808B0003708D6
:101F8000AF003608AE00440A0319C72FC82FCE2F62
:101F90000130B6003608C407CE2FCE2F440A0319ED
:101FA000D22FD32FD92F4408031DD72FD82FE92F95
:101FB000D92F0030B1000030B0000030AF00003049
:101FC000AE004408031DE52FE62FE92FC201E92FDB
:101FD000E92F441CEC2FED2FEF2FB017F32F7F309C
:101FE000B6003608B0054408B6000310360CB7003A
:101FF0003708B100C21FFD2FFE2FFF2FB1170800B9
:04400E00D4E0FFFFFC
:00000001FF
