:020000040000FA
:060000000A128A11E82F2C
:100C6C008834BE34C434943466346D347D340734E3
:100C7C007F3467347E088A007F0882000A128A114A
:100C8C0040260A128A118000840A04087D06031982
:100C9C000034FF0A0319FE0A442E83160313850140
:100CAC008316031788018312031385018316031718
:100CBC008901073083160313860007308312031350
:100CCC0086000730831603139500073081008701D7
:100CDC00FF308312031387008316031388018312DA
:100CEC000313880108000A128A1153260A128A116A
:100CFC00743084002030F0000408F1000A30F20057
:100D0C007008840083130008F300F00A7108840053
:100D1C0073088000F10AF20B862E83120313061C53
:100D2C00982E992EF02E2F08031D9D2E9E2EF02E00
:100D3C008616770887000630F2001330F100AD30CC
:100D4C00F000F00BA72EF10BA72EF20BA72EAE2E58
:100D5C008312031386120616760887000630F200FB
:100D6C001330F100AD30F000F00BBA2EF10BBA2EAF
:100D7C00F20BBA2EC12E83120313061286157508B8
:100D8C0087000630F2001330F100AD30F000F00BAC
:100D9C00CD2EF10BCD2EF20BCD2ED42E83120313B0
:100DAC008611740887000630F2001330F100AD3064
:100DBC00F000F00BDF2EF10BDF2EF20BDF2EE62E08
:100DCC008312031387012F08013EF0007008AF0057
:100DDC00F02EF02E2F03031DF42EF52E702F740819
:100DEC008700692F061DFB2EFC2E082FAD01AD0AC6
:100DFC008230F100DD30F000F00B022FF10B022FEE
:100E0C00072F082F831203132D03031D0E2F0F2FF3
:100E1C002F2F0619122F132F2F2FAD010508031D8D
:100E2C00182F192F1C2F01308500202F0508F000DA
:100E3C007007850080300506031D252F262F2F2FC8
:100E4C002F08013EF0007008AF00AE01AE0A2F2F44
:100E5C002F2F861C322F332F3F2FAC01AC0A823040
:100E6C00F100DD30F000F00B392FF10B392F3E2F54
:100E7C003F2F831203132C03031D452F462F692F7D
:100E8C008618492F4A2F692FAC010808031D4F2FD4
:100E9C00502F532F01308800572F0808F00070078F
:100EAC00880080300806031D5C2F5D2F692F2F08EA
:100EBC00013EF0007008AF000230F0007008AE0088
:100ECC00692F692F692F2E0803196D2F6E2FF82E9D
:100EDC00702F702F02302F06031D752F762FE52FE4
:100EEC002E03031D7A2F7B2FAC2F0230F20004301F
:100EFC00F100BA30F000F00B812FF10B812FF20BC7
:100F0C00812F00008312031386170330F200083080
:100F1C00F1007730F000F00B912FF10B912FF20BC9
:100F2C00912F75088312031387000330F2000830E9
:100F3C00F1007730F000F00BA12FF10BA12FF20B89
:100F4C00A12F83120313AE01AF01AC2F02302E067A
:100F5C00031DB12FB22FE52F0230F2000430F10047
:100F6C00BA30F000F00BB82FF10BB82FF20BB82FF2
:100F7C0000008312031306170330F2000830F1004F
:100F8C007730F000F00BC82FF10BC82FF20BC82FE5
:100F9C0076088312031387000330F2000830F10047
:100FAC007730F000F00BD82FF10BD82FF20BD82F95
:100FBC0083120313AE01AF01E52FE52FE52F0A12C3
:100FCC008A11002883132A30FD000630FE003630CB
:100FDC00FF00203084000A128A1144260A128A115A
:100FEC00AA01AB01AC01AD01AE01AF0183010A1244
:040FFC008A11792EAF
:04400E00D4E0FFFFFC
:00000001FF
