:020000040000FA
:060000000A128A11F32F21
:10000C00F501F6017008710403190D280E284B2810
:10001C00F701F70A1D2801300310F00DF10DFF3E1A
:10002C00031D12280130F4007408F7071D28F11F76
:10003C002028212811282328232801300310F50D0E
:10004C00F60DFF3E031D242871087302031D302892
:10005C0070087202031C332834283C287008F20202
:10006C007108031CF303F30275143C2801300310D0
:10007C00F10CF00CFF3E031D3D280130F702031D6F
:10008C004828492823284B284B287608F100750866
:10009C00F000502808000A168A113C240A128A1112
:1000AC00D03083120313A0000030A1000A168A116D
:1000BC004E240A128A11003083120313A000A100EF
:1000CC000A168A114E240A128A110A168A1145241C
:1000DC000A128A110A168A113C240A128A11D1308A
:1000EC0083120313A0000030A1000A168A114E24BB
:1000FC000A128A110030F000F1000A168A114C2500
:10010C000A128A117108F7007008F6000A168A1193
:10011C00D4240A128A117608FD007D088316031375
:10012C00B9000A168A1145240A128A110A168A1174
:10013C003C240A128A11D13083120313A000003020
:10014C00A1000A168A114E240A128A110030F000FE
:10015C00F1000A168A114C250A128A117108F7004F
:10016C007008F6000A168A11D4240A128A1176082D
:10017C00FD007D0883160313B8000A168A11452466
:10018C000A128A110A168A113C240A128A11D130D9
:10019C0083120313A0000030A1000A168A114E240A
:1001AC000A128A110030F000F1000A168A114C254F
:1001BC000A128A117108F7007008F6000A168A11E3
:1001CC00D4240A128A117608FD007D0883160313C5
:1001DC00B7000A168A1145240A128A110A168A11C6
:1001EC003C240A128A11D13083120313A000003070
:1001FC00A1000A168A114E240A128A110030F0004E
:10020C00F1000A168A114C250A128A117108F7009E
:10021C007008F6000A168A11D4240A128A1176087C
:10022C00FD007D0883160313B7000A168A114524B6
:10023C000A128A110A168A113C240A128A11D13028
:10024C0083120313A0000030A1000A168A114E2459
:10025C000A128A110030F000F1000A168A114C259E
:10026C000A128A117108F7007008F6000A168A1132
:10027C00D4240A128A117608FD007D088316031314
:10028C00B6000A168A1145240A128A110A168A1116
:10029C003C240A128A11D13083120313A0000030BF
:1002AC00A1000A168A114E240A128A110030F0009D
:1002BC00F1000A168A114C250A128A117108F700EE
:1002CC007008F6000A168A11D4240A128A117608CC
:1002DC00FD007D0883160313B5000A168A11452408
:1002EC000A128A110A168A113C240A128A11D13078
:1002FC0083120313A0000030A1000A168A114E24A9
:10030C000A128A110030F000F1000A168A114C25ED
:10031C000A128A117108F7007008F6000A168A1181
:10032C00D4240A128A117608FD007D088316031363
:10033C00B4000A168A1145240A128A110A168A1167
:10034C003C240A128A11D13083120313A00000300E
:10035C00A1000A168A114E240A128A110030F000EC
:10036C00F1000A168A114C250A128A110A168A11F2
:10037C0045240A128A1108008312031327088039B6
:10038C00AC002C08B8002708AC002C07AD002D08D9
:10039C00BA00A61FD229D329D5293A14D5293A084F
:1003AC000319D929DA29EB293A0A031DDE29DF2999
:1003BC00E8290030A7000030A6000030A50000306E
:1003CC00A400E829A617A701F4290030A7000030E3
:1003DC00A6000030A5000030A400F4292B088039B9
:1003EC00AC002C08B900390838060319FE29FF297E
:1003FC00012A3817012A2B08AC002C07AD002D0858
:10040C00B900AA1F0A2A0B2A0D2A39140D2A3908F9
:10041C000319112A122A232A390A031D162A172A0C
:10042C00202A0030AB000030AA000030A9000030B8
:10043C00A800202AAA17AB012B2A0030AB000030F1
:10044C00AA000030A9000030A8003A0839020318AD
:10045C00302A312A772A381F342A352A3A2A803012
:10046C00AC002C08B8063A2A3A08AC002C08BB00A1
:10047C003908AC002C08BA003B08AC002C08B900B9
:10048C002408AC002C08BB002808AC002C08A400E5
:10049C003B08AC002C08A8002508AC002C08BB00BD
:1004AC002908AC002C08A5003B08AC002C08A900BE
:1004BC002608AC002C08BB002A08AC002C08A600AF
:1004CC003B08AC002C08AA002708AC002C08BB0089
:1004DC002B08AC002C08A7003B08AC002C08AB0088
:1004EC00772ABB013A08AC00AD01AC09AD09AC0AE6
:1004FC000319AD0A39082C07AE002D0803182D0A74
:10050C00AF002F08803AFF0080307F02031D902A35
:10051C001A302E02031C932A942AD52A8312031311
:10052C002708260425042404031D9D2A9F2A013034
:10053C00A02A0030AC002C08BB000030A700003013
:10054C00A6000030A5000030A4003908AC002C082F
:10055C00BA00DE2AD52A3B1CB42AB52ABE2A3B088F
:10056C00AC0003102C0C0138AD002D08BB00C12AC7
:10057C000310BB0CC12A241CC42AC52AC72ABB17CA
:10058C00C72A0130AC00270DA70CA60CA50CA40C97
:10059C00AC0BC92A0130AC002C08BA07D52A83123F
:1005AC00031339083A02031CDC2ADD2AB12ADE2A9D
:1005BC00381BE12AE22A312B3A08031DE62AE72AE6
:1005CC00F12A0030A7000030A6000030A500003052
:1005DC00A4007D2C7D2C2808A407290803110318DE
:1005EC00013E0319FA2AA5072A0803110318013E34
:1005FC000319012BA6072B0803110318013E03193D
:10060C00082BA707271C0B2B0C2BFA2B3B1C0F2B97
:10061C00102B192B3B08AC0003102C0C0138AD002F
:10062C002D08BB001C2B0310BB0C1C2B241C1F2BDC
:10063C00202B222BBB17222B0130AC00270DA70C33
:10064C00A60CA50CA40CAC0B242B0130AC002C0874
:10065C00BA07FA2BFA2B2708803AFF002B08803AAE
:10066C007F02031D432B2A082602031D432B290856
:10067C002502031D432B280824020318462B472B65
:10068C00AD2BFF30AC00FF30AD00FF30AE00FF30C3
:10069C00AF002808B0002908B1002A08B2002B08C6
:1006AC00B3002409B4002509B5002609B6002709B2
:1006BC00B700B40A0319B50A0319B60A0319B70A25
:1006CC003408B00735080318350F6D2B6E2BB107A6
:1006DC0036080318360F732B742BB2073708031820
:1006EC00370AB3073008AC0731080318310F7F2BDA
:1006FC00802BAD0732080318320F852B862BAE07E3
:10070C0033080318330AAF072F08A7002E08A600DA
:10071C002D08A5002C08A4008030AC002C08B806CD
:10072C00BB09BB0A3B08031D9C2B9D2BBB2B01302B
:10073C00A407003003180130A5070030031801305E
:10074C00A607003003180130A707BB2BBB2B2808CA
:10075C00A4022908031C290FA5022A08031C2A0F2E
:10076C00A6022B08031C2B0FA7022708260425041E
:10077C002404031DC22BC32BF42B3B08031DC72BD6
:10078C00C82BF42B0030A7000030A6000030A500C9
:10079C000030A4007D2C7D2CF42B0130AC00031018
:1007AC00A40DA50DA60DA70DAC0BD52BBB1FDF2BD8
:1007BC00E02BE12B24143B1CE42BE52BE82B03143E
:1007CC00BB0DEB2B0310BB0DEB2B3A080319EF2BD6
:1007DC00F02BF42B0130BA02F42BF42BA61FF72BC1
:1007EC00F82BD32BFA2BFA2BB901BB1FFE2BFF2BAB
:1007FC00112C3B087F390319042C052C082CB9014A
:10080C00B90A112C241C0B2C0C2C112CB901B90A73
:10081C00112C112C112C39080319152C162C4C2CBD
:10082C000130A407003003180130A507003003186D
:10083C000130A607003003180130A707271C272C0E
:10084C00282C4C2C2408AC002508AD002608AE0042
:10085C002708AF000130B0002F0DAF0CAE0CAD0C63
:10086C00AC0CB00B322C2F08A7002E08A6002D08BC
:10087C00A5002C08A4003A0A0319452C462C4C2C34
:10088C000130AC002C08BA074C2C4C2C3A0A03193A
:10089C00502C512C572C3A08031D552C562C672CD8
:1008AC00572C0030A7000030A6000030A500003007
:1008BC00A4003A08031D632C642C672CB801672C28
:1008CC00672C3A1C6A2C6B2C6D2CA617712C7F3064
:1008DC00AC002C08A6053A08AC0003102C0CAD009B
:1008EC002D08A700B81F7B2C7C2C7D2CA71708008B
:1008FC00831203133F088039C4004408C9003F0821
:10090C00C4004407C5004508CF00BE1F8E2C8F2C99
:10091C00912C4F14912C4F080319952C962CA62C26
:10092C004F0A031D9A2C9B2CA42C0030BF000030C6
:10093C00BE000030BD000030BC00A42CBE17AF2C94
:10094C000030BF000030BE000030BD000030BC00E5
:10095C00AF2C43088039C4004408C9064308C400BE
:10096C004407C5004508CE00C21FBD2CBE2CC02CB0
:10097C004E14C02C4E080319C42CC52CD52C4E0A71
:10098C00031DC92CCA2CD32C0030C3000030C2006C
:10099C000030C1000030C000D32CC217DE2C003058
:1009AC00C3000030C2000030C1000030C000DE2C9B
:1009BC004E080319E22CE32CE92C4F08031DE72CFD
:1009CC00E82CF32CE92C0030BF000030BE000030C6
:1009DC00BD000030BC00F22FF22F3C08C4004408CC
:1009EC00F00042080A168A1122250A128A1171088F
:1009FC0083120313D5007008D4005408C400C50139
:100A0C00C601C7014708CD004608CC004508CB00FD
:100A1C004408CA005508C400C501C601C7014708EF
:100A2C00D3004608D2004508D1004408D0003D0848
:100A3C00C4004408F00041080A168A1122250A1243
:100A4C008A11710883120313D5007008D40054085E
:100A5C00C400C501C601C7014408CA0745080311F3
:100A6C000318013E03193B2DCB074608031103184D
:100A7C00013E0319422DCC07470803110318013E10
:100A8C000319492DCD075508C400C501C601C7017E
:100A9C004408D007450803110318013E0319572DCC
:100AAC00D107460803110318013E03195E2DD20726
:100ABC00470803110318013E0319652DD3073E089F
:100ACC00C4004408F00040080A168A1122250A12B4
:100ADC008A11710883120313D5007008D4005408CE
:100AEC00C400C501C601C7014408CA074508031163
:100AFC000318013E0319832DCB0746080311031875
:100B0C00013E03198A2DCC07470803110318013E37
:100B1C000319912DCD075508C400C501C601C701A5
:100B2C004408D007450803110318013E03199F2DF3
:100B3C00D107460803110318013E0319A62DD2074D
:100B4C00470803110318013E0319AD2DD3070830D4
:100B5C00C4000310CA0DCB0DCC0DCD0DC40BAF2DA5
:100B6C003D08C4004408F00040080A168A112225EA
:100B7C000A128A11710883120313D5007008D4006D
:100B8C005408C4005508C500C601C7014408CA076B
:100B9C00450803110318013E0319D52DCB07460850
:100BAC0003110318013E0319DC2DCC074708031170
:100BBC000318013E0319E32DCD073C08C40044087B
:100BCC00F00041080A168A1122250A128A117108AE
:100BDC0083120313D5007008D4005408C4005508C0
:100BEC00C500C601C7014408CA074508031103180C
:100BFC00013E0319022ECB07460803110318013ED0
:100C0C000319092ECC07470803110318013E0319D9
:100C1C00102ECD070830C4000310CA0DCB0DCC0D1F
:100C2C00CD0DC40B122E3C08C4004408F000400843
:100C3C000A168A1122250A128A11710883120313CB
:100C4C00D5007008D4005408C4005508C500C6016E
:100C5C00C7014408CA07450803110318013E0319CC
:100C6C00382ECB07460803110318013E03193F2EFB
:100C7C00CC07470803110318013E0319462ECD0774
:100C8C003D08C4004408F00042080A168A112225C7
:100C9C000A128A11710883120313D5007008D4004C
:100CAC005408C4005508C500C601C7014408D00744
:100CBC00450803110318013E0319652ED107460898
:100CCC0003110318013E03196C2ED20747080311B8
:100CDC000318013E0319732ED3073E08C4004408C1
:100CEC00F00041080A168A1122250A128A1171088D
:100CFC0083120313D5007008D4005408C40055089F
:100D0C00C500C601C7014408D007450803110318E4
:100D1C00013E0319922ED107460803110318013E18
:100D2C000319992ED207470803110318013E031922
:100D3C00A02ED3073E08C4004408F00042080A164F
:100D4C008A1122250A128A11710883120313D50005
:100D5C007008D4005408C4005508C500C601C7016A
:100D6C0008300310C40DC50DC60DC70DFF3E031D85
:100D7C00B72E4408D007450803110318013E031988
:100D8C00C82ED107460803110318013E0319CF2EB4
:100D9C00D207470803110318013E0319D62ED307B7
:100DAC004A08C4004B08C5004C08C6004D08C700D3
:100DBC0018300310C70CC60CC50CC40CFF3E031D29
:100DCC00DF2E4408D007450803110318013E031910
:100DDC00F02ED107460803110318013E0319F72E14
:100DEC00D207470803110318013E0319FE2ED3073F
:100DFC000830C4000310CA0DCB0DCC0DCD0DC40BA7
:100E0C00002F4F084E07C400C501C50D4408823E93
:100E1C00D40045080318013EFF3ED500342F0130A5
:100E2C00C4000310D00DD10DD20DD30DC40B172F50
:100E3C00CD1F212F222F242F5014242F0130C4001A
:100E4C000310CA0DCB0DCC0DCD0DC40B262FFF30CE
:100E5C00D4070318D50AFF30D507342FD21F372FEC
:100E6C00382F152F392FCE01CD1F3D2F3E2F5E2F42
:100E7C00FF304A05C400FF304B05C500FF304C0560
:100E8C00C6007F304D05C70047084604450444049E
:100E9C000319512F522F552FCE01CE0A5E2F501C05
:100EAC00582F592F5E2FCE01CE0A5E2F5E2F5E2F4C
:100EBC004E080319622F632F962F0130D007003094
:100ECC0003180130D107003003180130D20700306D
:100EDC0003180130D307531C742F752F962F50080D
:100EEC00C4005108C5005208C6005308C7000130A1
:100EFC00C800470DC70CC60CC50CC40CC80B7F2F03
:100F0C004708D3004608D2004508D1004408D00059
:100F1C000130D4070318D50A0030D507962F962F29
:100F2C005508803AFF0080307F02031D9F2FFF3051
:100F3C005402031CA22FA32FAE2F7F308312031356
:100F4C00D3008030D2000030D1000030D000E52F2B
:100F5C00831203135508803AFF0080307F02031D73
:100F6C00B92F013054020318BC2FBD2FC92F0030EC
:100F7C0083120313D3000030D2000030D1000030B4
:100F8C00D000C901E52F831203135408C400440890
:100F9C00CF00FF30D005FF30D1057F30D2050030B7
:100FAC00D3054F1CDA2FDB2FDD2FD217DD2F4F0887
:100FBC00C4000310440CC5004508D300E52F4908B4
:100FCC00C4004408D3045308BF005208BE005108A3
:100FDC00BD005008BC00F22F08008313A030840021
:100FEC00C2300A168A1134240A128A1183010A1299
:040FFC008A15F82B2F
:10100600F701F801292877087207F5007308F4003C
:101016000318F40AF71F1028F4037408F60076087C
:1010260083120313FF00750884000A168A11002034
:101036000A128A150A168A1176240A128A150130AE
:10104600F7070318F80A0030F80729287708720707
:10105600F5007308F4000318F40AF71F3328F403A5
:101066007408F600760883120313FF0075088400DF
:101076000A168A1100200A128A15003A031D44280E
:101086004528062846280800831603178801890183
:1010960083160313860188018312031386018801D0
:1010A6000030A3000130A2008630A100A030A000CD
:1010B6000A168A11AC250A128A150A168A11E4251F
:1010C6000A128A150A168A112D240A128A15F301A4
:1010D600F30A01300A168A1199240A128A15113068
:1010E600F2008030F3000A128A1503200A128A15CC
:1010F600073083120313A8002808F30001300A16EC
:101106008A1199240A128A151430F2008030F300ED
:101116000A128A1503200A128A150A30831203134B
:10112600A8002808F30001300A168A1199240A1229
:101136008A151730F2008030F3000A128A15032050
:101146000A128A15163083120313A800280883167C
:101156000313B600023083120313A800280883166F
:101166000313B500143083120313A800280883164E
:101176000313B400B9013B3083120313A8002808F7
:1011860083160313B8000B3083120313A800280834
:1011960083160313B70008007008F4007108F50001
:1011A6007208F6007308F7000310760D770DF80045
:1011B6007808FA007A08031DE128E228EC280030B6
:1011C600F3000030F2000030F1000030F000682932
:1011D60068297008F4007108F5007208F6007308B3
:1011E600F7001F300310F70CF60CF50CF40CFF3E5D
:1011F600031DF5287408F8007808F900F217FF3087
:10120600F005FF30F105FF30F2050030F3059630AA
:10121600FA02FA1F0F29102935297A08803A973ED3
:1012260003181629172922290030F3000030F2008E
:101236000030F1000030F0006829682922290130C9
:101246000310F30CF20CF10CF00CFF3E031D2329E6
:101256000130F4007408FA07031D322933292229C4
:101266005829582920307A02031C3A293B2951294A
:101276000030F3000030F2000030F1000030F000E2
:101286006829682951290130F4000310F00DF10D89
:10129600F20DF30DF40B48290130FA027A08031D0A
:1012A60055295629462958295829790803195C29A8
:1012B6005D296829F009F109F209F309F00A031911
:1012C600F10A0319F20A0319F30A0800F80078086C
:1012D60003196E296F298329F31F7229732983291C
:1012E6007009FA007109FB007209FC007309FD0020
:1012F600FA0A0319FB0A0319FC0A0319FD0A8B29CA
:101306007308FD007208FC007108FB007008FA0003
:101316007308720471047004031D922993299D2990
:101326000030F3000030F2000030F1000030F00031
:101336002A2A2A2A9630F4007408F900B0290130C6
:10134600F4007408F90701300310FD0CFC0CFB0CCB
:10135600FA0CFF3E031DA729B029FE307D05031DAB
:10136600B529B629A229D329D3290130F400740856
:10137600F9070130FA07003003180130FB07003087
:1013860003180130FC07003003180130FD07013057
:101396000310FD0CFC0CFB0CFA0CFF3E031DCB29C5
:1013A600FF307D05031DD829D929B829E729E72962
:1013B6000130F9020130F4000310FA0DFB0DFC0DAB
:1013C600FD0DF40BDF29E729FC1BEA29EB29F2299D
:1013D600023079020318F029F129DB29F22979185C
:1013E600F529F629FE29FF30FA05FF30FB057F3087
:1013F600FC05FF30FD050310F90C7908F400F50132
:10140600F601F70118300310F40DF50DF60DF70D82
:10141600FF3E031D062A7408FA047508FB047608C5
:10142600FC047708FD04780803191A2A1B2A212AC6
:10143600F31F1E2A1F2A212AFD17212A7D08F300E1
:101446007C08F2007B08F1007A08F0002A2A0800DE
:101456000A168A113C240A128A15D0308312031305
:10146600A0000030A1000A168A114E240A128A151D
:10147600003083120313A000A1000A168A114E241D
:101486000A128A1583160313390883120313A2005E
:10149600A3012208F9002308FA000A168A117B25FF
:1014A6000A128A157A0883120313A1007908A0008C
:1014B6000A168A114E240A128A158316031338084F
:1014C60083120313A200A3012208F9002308FA00DD
:1014D6000A168A117B250A128A157A0883120313C3
:1014E600A1007908A0000A168A114E240A128A154C
:1014F60083160313370883120313A200A3012208DD
:10150600F9002308FA000A168A117B250A128A15A1
:101516007A0883120313A1007908A0000A168A111B
:101526004E240A128A15013083120313A0000030DC
:10153600A1000A168A114E240A128A15831603136D
:10154600360883120313A200A3012208F900230818
:10155600FA000A168A117B250A128A157A0883125E
:101566000313A1007908A0000A168A114E240A1254
:101576008A1583160313350883120313A200A301E9
:101586002208F9002308FA000A168A117B250A1296
:101596008A157A0883120313A1007908A0000A1697
:1015A6008A114E240A128A158316031334088312ED
:1015B6000313A200A3012208F9002308FA000A1661
:1015C6008A117B250A128A157A0883120313A10051
:1015D6007908A0000A168A114E240A128A150A16DC
:1015E6008A1145240A128A15080083120313AB00D8
:1015F6002130A3002308A600DE2B25302C06031974
:10160600052B062B122B2C08A3002B08840023087D
:10161600831380000130A3002308AB07DE2BA7014C
:10162600192BF22B362B362BDE2B362B0130A0074F
:10163600FF30200784000A168A110A200A128A152A
:10164600AC00A300A4012408003A03192B2BDE2BBF
:101656002308003A0319F22B643A0319362B0D3A84
:101666000319362BDE2B2608840083130008A900F5
:10167600840A0008AA000230A3002308A607AA1FAE
:10168600452B462B502B0330A3002308A704A9099A
:10169600AA09A90A0319AA0A502BAC01AC0A0530FB
:1016A6002C06031D572B582B5A2B822B822B2C08CA
:1016B600A3002307013E84000A168A110A200A1293
:1016C6008A15A4000A168A110A200A128A15A5008C
:1016D60025082A02031D712B240829020318742BDE
:1016E600752B772B822B822B0130A3002308AC07A6
:1016F60005302C06031D802B812B5A2B822B2708A5
:1017060003390319872B882B942B2D30A3002B0824
:1017160084002308831380000130A3002308AB074D
:10172600942B2C08A3002308A800D32B0A30F8001A
:101736000030F9002808A3002307013E84000A169A
:101746008A110A200A128A15F0000A168A110A203E
:101756000A128A15F1002A08F3002908F2000A1273
:101766008A1106200A128A157108FB007008FA0011
:101776000A168A111E260A128A157808303E831226
:101786000313A4002408AC002C08A3002B08840033
:101796002308831380000130A3002308AB07D32B53
:1017A600FF30A3002308A807280A031DDB2BDC2B28
:1017B600992BDE2BDE2B0130A007FF30200784009B
:1017C6000A168A110A200A128A15A3002308AC00F9
:1017D6002C08031DEF2BF02B002BF22BF22B2B08E2
:1017E600840083138001F72B08000A128A1547200C
:1017F6000A128A150A128A152B220A128A15032C36
:101806000A168A113C240A128A15513083120313D0
:10181600A0000030A1000A168A114E240A128A1569
:101826000030F000F1000A168A114C250A128A15BA
:10183600700883160313C2004208C0000A168A11F4
:1018460045240A128A150D3083160313C300FB3094
:10185600C200C20B2C2CC30B2C2C0A168A113C245A
:101866000A128A15613083120313A0000030A1000A
:101876000A168A114E240A128A150030F000F10069
:101886000A168A114C250A128A1570088316031344
:10189600C2004208BD000A168A1145240A128A159A
:1018A6000D3083160313C300FB30C200C20B592C44
:1018B600C30B592C0A168A113C240A128A15413088
:1018C60083120313A0000030A1000A168A114E24C9
:1018D6000A128A150030F000F1000A168A114C250A
:1018E6000A128A15700883160313C2004208BA004A
:1018F6000A168A1145240A128A150D308316031317
:10190600C300FB30C200C20B862CC30B862C4330AF
:1019160083120313D9007F30D8000030D70000307F
:10192600D6004030BF00A030BE000030BD00003001
:10193600BC00831603134008C200C301C401C501DD
:101946004508F3004408F2004308F1004208F0009D
:1019560000300A128A1569210A128A157308831241
:101966000313C3007208C2007108C1007008C000EA
:101976000A128A117E240A128A15831203133F085B
:10198600DD003E08DC003D08DB003C08DA000A12F8
:101996008A15F7250A128A15831203135908831626
:1019A6000313B30083120313580883160313B200FC
:1019B60083120313570883160313B100831203130C
:1019C600560883160313B0003308F3003208F200FA
:1019D6003108F1003008F0000A128A15CF200A12E9
:1019E6008A15700883160313C2004208BF004230EE
:1019F60083120313BF00C830BE000030BD000030A4
:101A0600BC0083160313330883120313A70083163F
:101A16000313320883120313A60083160313310837
:101A260083120313A50083160313300883120313CE
:101A3600A400831603133F08C200C301C401C501F5
:101A46004508F3004408F2004308F1004208F0009C
:101A560001300A128A1569210A128A15730883123F
:101A66000313A3007208A2007108A1007008A00069
:101A76000A168A1167240A128A1583120313230889
:101A8600AB002208AA002108A9002008A8000A1213
:101A96008A11C2210A128A15831203132708C3006A
:101AA6002608C2002508C1002408C0000A128A11AF
:101AB6007E240A128A15831203133F088316031322
:101AC600AF00831203133E0883160313AE0083127E
:101AD60003133D0883160313AD00831203133C085A
:101AE60083160313AC002F08F3002E08F2002D080E
:101AF600F1002C08F0000A128A15CF200A128A1566
:101B0600700883160313C2004208BE003E08C200D6
:101B1600420883120313B500B601B60A83160313EF
:101B26003F080A168A115F260A128A15073083169D
:101B36000313C2004208F30002300A168A119924E0
:101B46000A128A15831603133D080A168A11B6244B
:101B56000A128A1520300A168A1176240A128A1564
:101B66000A3083160313C2004208F30002300A1635
:101B76008A1199240A128A150A128A1151200A1208
:101B86008A150A308316031338020318CB2DCC2D81
:101B9600D32D30300A168A1176240A128A15D32DCF
:101BA6008316031338080A168A11B6240A128A15F0
:101BB6003A300A168A1176240A128A1583160313F6
:101BC60039080A168A11B6240A128A150E30F2004E
:101BD6008030F3000A128A1503200A128A15032C94
:101BE600032C0A128A110028831203135D08803918
:101BF600DE005E08E7005D08DE005E07DF005F08C6
:101C0600EE00DC1F072E082E0A2E6E140A2E6E0812
:101C160003190E2E0F2E202E6E0A031D132E142EC0
:101C26001D2E0030DD000030DC000030DB0000300F
:101C3600DA001D2EDC17DD01292E0030DD00003014
:101C4600DC000030DB000030DA00292E590880392C
:101C5600DE005E08E7065908DE005E07DF005F0863
:101C6600EF00D81F372E382E3A2E6F143A2E6F08F3
:101C760003193E2E3F2E502E6F0A031D432E442E6F
:101C86004D2E0030D9000030D8000030D70000308B
:101C9600D6004D2ED817D901582E0030D900003065
:101CA600D8000030D7000030D60059085804570431
:101CB6005604031D5F2E602E7A2E0030DD000030A4
:101CC600DC000030DB000030DA008030DC047F30DE
:101CD600DD046708DE005E08DD045D08D9005C08E7
:101CE600D8005B08D7005A08D600FF2FFF2F6E08D2
:101CF600031D7E2E7F2E912E0030DD000030DC008D
:101D06000030DB000030DA005D08D9005C08D8003E
:101D16005B08D7005A08D600FF2FFF2F6F08DE009A
:101D2600DF01DE09DF09DE0A0319DF0A6E085E0736
:101D3600E0005F0803185F0AE10060087F3EE800E4
:101D460061080318013E003EE9005D08E6005C08F4
:101D5600E5005B08E4005A08E3000030DD000030CF
:101D6600DC000030DB000030DA000030ED0000302F
:101D7600EC000030EB000030EA00EF01102F6F0896
:101D86000319C62EC72EE92E0130DE000310E30D1F
:101D9600E40DE50DE60DDE0BC92E0130DE00031065
:101DA600DA0DDB0DDC0DDD0DDE0BD22EED1FDC2E8C
:101DB600DD2EDF2E5A14DF2E0130DE000310EA0D71
:101DC600EB0DEC0DED0DDE0BE12EE92E590866024A
:101DD600031DF72E58086502031DF72E57086402E7
:101DE600031DF72E56086302031CFA2EFB2E0B2F3B
:101DF6006D175608E3025708031C570FE4025808EC
:101E0600031C580FE5025908031C590FE6020B2F55
:101E16000130DE005E08EF07102F1A306F02031C38
:101E2600152F162FC22E172F660865046404630447
:101E360003191E2F1F2F412F6A14412F412F0130E6
:101E4600DE000310DA0DDB0DDC0DDD0DDE0B242FBD
:101E5600ED1F2E2F2F2F312F5A14312F0130DE0078
:101E66000310EA0DEB0DEC0DED0DDE0B332FFF30FD
:101E7600E8070318E90AFF30E907412FDC1F442F62
:101E8600452F222F462FEF01ED1F4A2F4B2F6B2F89
:101E9600FF306A05DE00FF306B05DF00FF306C05A2
:101EA600E0007F306D05E100610860045F045E04B8
:101EB60003195E2F5F2F622FEF01EF0A6B2F5A1C5B
:101EC600652F662F6B2FEF01EF0A6B2F6B2F6B2F92
:101ED6006F0803196F2F702FA32F0130DA07003018
:101EE60003180130DB07003003180130DC0700302F
:101EF60003180130DD075D1C812F822FA32F5A089E
:101F0600DE005B08DF005C08E0005D08E1000130F0
:101F1600E200610DE10CE00CDF0CDE0CE20B8C2F15
:101F26006108DD006008DC005F08DB005E08DA009F
:101F36000130E8070318E90A0030E907A32FA32FA9
:101F46006908803AFF0080307F02031DAC2FFF3006
:101F56006802031CAF2FB02FBF2FFF30831203136D
:101F6600E8000030E9000030DD000030DC00003021
:101F7600DB000030DA00BF2F831203136908803AB2
:101F8600FF0080307F02031DCA2F0130680203184C
:101F9600CD2FCE2FDB2F83120313E801E90100308A
:101FA600DD000030DC000030DB000030DA00E70145
:101FB600831203136808DE005E08EE006E1CE42F31
:101FC600E52FE72FDC17EB2F7F30DE005E08DC0500
:101FD6006E08DE0003105E0CDF005F08DD00670898
:101FE600DE005E08DD045D08D9005C08D8005B08E9
:101FF600D7005A08D600FF2F0800FF1B0A288313B4
:102006007F1883170008840A0319FF0A0800103096
:102016008A000408840A82070034013400340A3432
:10202600003464340034E83403341034273425345F
:1020360064340034203420340034533431340034D2
:0C2046005334323400345334333400344B
:10285A0001300A168A1185240A168A1108006400B2
:10286A008001840A0406031900340406352C0A166A
:10287A008A1158240A168A118316031311140800A0
:10288A000A168A1158240A168A1183160313111577
:10289A0008000A168A1158240A168A118312031389
:1028AA00200893000800592C8316031314195E2C70
:1028BA005F2C592C11081F39031D642C652C592CC7
:1028CA00662C08008312031323082204210420041F
:1028DA000319702C712C742C8030A306742C752C5F
:1028EA000800F10083120313081471088600881483
:1028FA000D30F000F00B7F2C8312031388100800B0
:10290A00F200831203130810720886008814063036
:10291A00F1003030F000F00B902CF10B902C0000FD
:10292A008312031388100800F5007503031D9E2CFB
:10293A009F2CA72C73087F3EF40074088316031398
:10294A00C100AF2C7308BF3EF4007408831603134A
:10295A00C100AF2C41080A168A1185240A168A1169
:10296A00080083120313B4000B30AD002D08A00039
:10297A003408AE00AF012E08A1002F08A2003030A3
:10298A000A128A15F8220A168A113030F20000302B
:10299A00F3000A128A1503200A168A1108000F305A
:1029AA007605F80000307705F900760E0F39F00049
:1029BA00770EF039F004770E0F39F100F030F11D7F
:1029CA000030F1040A30F2000030F3000A168A11CE
:1029DA00FA240A168A1178087007F600790803188B
:1029EA00790A7107F700F92C0800F401F501FD2CAA
:1029FA00701C002D012D072D7208F4070318F50A23
:102A0A007308F50701300310F20DF30DFF3E031DA5
:102A1A00082D01300310F10CF00CFF3E031D0F2DA1
:102A2A0070087104031D1A2D1B2DFD2C1C2D750811
:102A3A00F1007408F000212D0800F800F401F501F6
:102A4A007008F200F3017208F6007308F7002D2DE2
:102A5A00781C302D312D372D7608F4070318F50A26
:102A6A007708F50701300310F60DF70DFF3E031D39
:102A7A00382D0310F80C7808031D442D452D2D2DF3
:102A8A00462D7508F1007408F0004B2D08000A164F
:102A9A008A1158240A168A118316031391150A16E5
:102AAA008A1158240A168A11831203131308F20092
:102ABA00F3017208F4007308F5000A168A11582403
:102ACA000A168A1170037104031D6C2D6D2D712D68
:102ADA00831603139112742D83160313911611167C
:102AEA007508F1007408F0007A2D08000A30F00029
:102AFA000030F1007A08F3007908F2000A168A1108
:102B0A008F270A168A117008FB007108FC00FB0E59
:102B1A00FC0EF030FC057B080F39FC04F030FB0595
:102B2A000A30F0000030F1007A08F3007908F20068
:102B3A000A168A11BF260A168A1170087B07F9003D
:102B4A0071080318710A7C07FA00AB2D08002830B7
:102B5A008312031394008316031391018312031340
:102B6A002008A4002108A5002208A6002308A7001F
:102B7A0002300310A40DA50DA60DA70DFF3E031DDF
:102B8A00BE2D2708F3002608F2002508F1002408C4
:102B9A00F0000030F7003D30F6000930F500003053
:102BAA00F4000A168A1122270A168A117008FF3EB3
:102BBA00831603139300940187150716080014302F
:102BCA00F4007930F300F30BE82DF40BE82DED2D2A
:102BDA0030300A168A1185240A168A1130300A16EC
:102BEA008A1185240A168A1130300A168A11852418
:102BFA000A168A1138300A168A1185240A168A1189
:102C0A0010300A168A1185240A168A1101300A160A
:102C1A008A1185240A168A1106300A168A11852411
:102C2A000A168A110E300A168A1185240A168A1182
:102C3A000800780879040319232E242E592EFD0141
:102C4A00FD0A332E01300310F80DF90DFF3E031D66
:102C5A00282E0130FC007C08FD07332EF91F362E82
:102C6A00372E272E392E392E79087B02031D3F2E47
:102C7A0078087A02031C422E432E4A2E7808FA025A
:102C8A007908031CFB03FB024A2E01300310F90CDE
:102C9A00F80CFF3E031D4B2E0130FD02031D562E7C
:102CAA00572E392E592E592E7B08F9007A08F8002A
:102CBA005E2E080083120313B8003608B7003708DF
:102CCA00F30002300A168A1199240A168A1183120D
:102CDA00031338080A168A11B6240A168A118312AF
:102CEA0003133608013EB7003708F30002300A160C
:102CFA008A1199240A168A112E300A168A11762404
:102D0A000A168A11831203133608023EB7003708DF
:102D1A00F30002300A168A1199240A168A110A3017
:102D2A0083120313350203189B2E9C2EA32E3030D8
:102D3A000A168A1176240A168A11A32E83120313FD
:102D4A0035080A168A11B6240A168A118312031341
:102D5A003608043EB7003708F30002300A168A1113
:102D6A0099240A168A1156300A168A1176240A16E6
:102D7A008A110800F601F31FC32EC42ECC2EF209C5
:102D8A00F309F20A0319F30AF601F60ACC2EF11F27
:102D9A00CF2ED02ED62EF009F109F00A0319F10A26
:102DAA00D62E700871040319DB2EDC2E112FF501C3
:102DBA00F50AEB2E01300310F00DF10DFF3E031D55
:102DCA00E02E0130F4007408F507EB2EF11FEE2E09
:102DDA00EF2EDF2EF12EF12E71087302031DF72E4E
:102DEA0070087202031CFA2EFB2E022F7008F202E0
:102DFA007108031CF303F302022F01300310F10CD4
:102E0A00F00CFF3E031D032F0130F502031D0E2FA8
:102E1A000F2FF12E112F112F76080319152F162FA8
:102E2A001C2FF209F309F20A0319F30A1C2F73087B
:102E3A00F1007208F000212F08000030FC00003079
:102E4A00FB000030FA000030F900730872047104C4
:102E5A0070040319312F322F852FFD01FD0A432FEC
:102E6A000130F8000310F00DF10DF20DF30DF80B1F
:102E7A00372F0130F8007808FD07432FF31F462F3C
:102E8A00472F352F492F492F0130F8000310F90D2C
:102E9A00FA0DFB0DFC0DF80B4B2F73087702031D7F
:102EAA00602F72087602031D602F71087502031DD8
:102EBA00602F70087402031C632F642F742F70082C
:102ECA00F4027108031C710FF5027208031C720FD9
:102EDA00F6027308031C730FF7027914742F01307A
:102EEA000310F30CF20CF10CF00CFF3E031D752FCE
:102EFA000130FD02031D822F832F492F852F852F35
:102F0A007C08F3007B08F2007A08F1007908F000E7
:102F1A008E2F0800F601F11F932F942F9C2FF00992
:102F2A00F109F00A0319F10AF601F60A9C2FF31FB8
:102F3A009F2FA02FAA2FF209F309F20A0319F30A05
:102F4A000130F4007408F606AA2FF701F801700898
:102F5A0071040319B12FB22FEF2FF501F50AC12F12
:102F6A0001300310F00DF10DFF3E031DB62F0130A5
:102F7A00F4007408F507C12FF11FC42FC52FB52F10
:102F8A00C72FC72F01300310F70DF80DFF3E031DA1
:102F9A00C82F71087302031DD42F70087202031C14
:102FAA00D72FD82FE02F7008F2027108031CF30301
:102FBA00F3027714E02F01300310F10CF00CFF3EFE
:102FCA00031DE12F0130F502031DEC2FED2FC72F52
:102FDA00EF2FEF2F76080319F32FF42FFA2FF709A3
:102FEA00F809F70A0319F80AFA2F7808F10077089E
:062FFA00F000FF2F0800AB
:04400E00D4E0FFFFFC
:00000001FF
