:020000040000FA
:060000000A128A11ED2F27
:100012000A128A1587200A128A1183160313911570
:100022000A128A1587200A128A11831203131308EF
:10003200F200F3017208F4007308F5000A128A153F
:1000420087200A128A1170037104031D29282A28A5
:100052002E28831603139112312883160313911647
:1000620011167508F1007408F000372808000A120A
:100072008A156F220A128A113E280A128A156B20EB
:100082000A128A115130F0000030F1000A128A156A
:100092007D200A128A110030F000F1000A128A1142
:1000A20009200A128A11700883160313AD002D0865
:1000B200AB000A128A1574200A128A110D308316B7
:1000C2000313AE00FB30AD00AD0B6528AE0B652807
:1000D2000A128A156B200A128A116130F000003070
:1000E200F1000A128A157D200A128A110030F000EE
:1000F200F1000A128A1109200A128A117008831665
:100102000313AD002D08A8000A128A1574200A12E2
:100112008A110D3083160313AE00FB30AD00AD0B18
:100122009028AE0B9028433083120313D9007F30FE
:10013200D8000030D7000030D6004030BF00A030D9
:10014200BE000030BD000030BC00831603132B0834
:10015200AD00AE01AF01B0013008F3002F08F2008C
:100162002E08F1002D08F00000300A128A153524FD
:100172000A128A11730883120313C3007208C200A1
:100182007108C1007008C0000A128A1178240A128C
:100192008A11831203133F08DD003E08DC003D088C
:1001A200DB003C08DA000A128A15F7250A128A11C6
:1001B20083120313590883160313A7008312031330
:1001C200580883160313A6008312031357088316D5
:1001D2000313A50083120313560883160313A40006
:1001E2002708F3002608F2002508F1002408F00091
:1001F2000A128A159B230A128A11700883160313A6
:10020200AD002D08AA00423083120313BF00C8308C
:10021200BE000030BD000030BC0083160313270867
:1002220083120313A70083160313260883120313F2
:10023200A60083160313250883120313A500831651
:100242000313240883120313A400831603132A083A
:10025200AD00AE01AF01B0013008F3002F08F2008B
:100262002E08F1002D08F00001300A128A153524FB
:100272000A128A11730883120313A3007208A200E0
:100282007108A1007008A0000A128A1596200A12AD
:100292008A11831203132308AB002208AA00210843
:1002A200A9002008A8000A128A11BC210A128A1188
:1002B200831203132708C3002608C2002508C100C1
:1002C2002408C0000A128A1178240A128A118312A1
:1002D20003133F0883160313A300831203133E087C
:1002E20083160313A200831203133D08831603131C
:1002F200A100831203133C0883160313A0002308F2
:10030200F3002208F2002108F1002008F0000A128E
:100312008A159B230A128A11700883160313AD00F3
:100322002D08A9002908AD002D0883120313B5007A
:10033200B601B60A831603132A080A128A15CE22B8
:100342000A128A11073083160313AD002D08F30039
:1003520002300A128A15C8200A128A118316031360
:1003620028080A128A15E5200A128A113E283E2818
:100372000A128A1100288312031327088039AC005D
:100382002C08B8002708AC002C07AD002D08BA00D5
:10039200A61FCC29CD29CF293A14CF293A0803190F
:1003A200D329D429E5293A0A031DD829D929E229D2
:1003B2000030A7000030A6000030A5000030A400E5
:1003C200E229A617A701EE290030A7000030A600F7
:1003D2000030A5000030A400EE292B088039AC00C3
:1003E2002C08B900390838060319F829F929FB291C
:1003F2003817FB292B08AC002C07AD002D08B900DB
:10040200AA1F042A052A072A3914072A39080319B8
:100412000B2A0C2A1D2A390A031D102A112A1A2A0C
:100422000030AB000030AA000030A9000030A80064
:100432001A2AAA17AB01252A0030AB000030AA0005
:100442000030A9000030A8003A08390203182A2A0D
:100452002B2A712A381F2E2A2F2A342A8030AC00E8
:100462002C08B806342A3A08AC002C08BB0039081C
:10047200AC002C08BA003B08AC002C08B9002408D8
:10048200AC002C08BB002808AC002C08A4003B08D8
:10049200AC002C08A8002508AC002C08BB002908D9
:1004A200AC002C08A5003B08AC002C08A9002608CB
:1004B200AC002C08BB002A08AC002C08A6003B08A4
:1004C200AC002C08AA002708AC002C08BB002B08A3
:1004D200AC002C08A7003B08AC002C08AB00712A2A
:1004E200BB013A08AC00AD01AC09AD09AC0A031975
:1004F200AD0A39082C07AE002D0803182D0AAF00EB
:100502002F08803AFF0080307F02031D8A2A1A30AA
:100512002E02031C8D2A8E2ACF2A83120313270848
:10052200260425042404031D972A992A01309A2AB5
:100532000030AC002C08BB000030A7000030A60041
:100542000030A5000030A4003908AC002C08BA0025
:10055200D82ACF2A3B1CAE2AAF2AB82A3B08AC00C5
:1005620003102C0C0138AD002D08BB00BB2A031070
:10057200BB0CBB2A241CBE2ABF2AC12ABB17C12A14
:100582000130AC00270DA70CA60CA50CA40CAC0BDB
:10059200C32A0130AC002C08BA07CF2A83120313F6
:1005A20039083A02031CD62AD72AAB2AD82A381B82
:1005B200DB2ADC2A2B2B3A08031DE02AE12AEB2A4C
:1005C2000030A7000030A6000030A5000030A400D3
:1005D200772C772C2808A407290803110318013E59
:1005E2000319F42AA5072A0803110318013E031967
:1005F200FB2AA6072B0803110318013E0319022B3D
:10060200A707271C052B062BF42B3B1C092B0A2BB7
:10061200132B3B08AC0003102C0C0138AD002D0845
:10062200BB00162B0310BB0C162B241C192B1A2BE8
:100632001C2BBB171C2B0130AC00270DA70CA60CE2
:10064200A50CA40CAC0B1E2B0130AC002C08BA0775
:10065200F42BF42B2708803AFF002B08803A7F0204
:10066200031D3D2B2A082602031D3D2B29082502C6
:10067200031D3D2B280824020318402B412BA72BD6
:10068200FF30AC00FF30AD00FF30AE00FF30AF00F6
:100692002808B0002908B1002A08B2002B08B300CC
:1006A2002409B4002509B5002609B6002709B700B8
:1006B200B40A0319B50A0319B60A0319B70A3408AA
:1006C200B00735080318350F672B682BB1073608BA
:1006D2000318360F6D2B6E2BB20737080318370A33
:1006E200B3073008AC0731080318310F792B7A2B86
:1006F200AD0732080318320F7F2B802BAE07330869
:100702000318330AAF072F08A7002E08A6002D08EA
:10071200A5002C08A4008030AC002C08B806BB0948
:10072200BB0A3B08031D962B972BB52B0130A40760
:10073200003003180130A507003003180130A60766
:10074200003003180130A707B52BB52B2808A402E7
:100752002908031C290FA5022A08031C2A0FA60236
:100762002B08031C2B0FA7022708260425042404A8
:10077200031DBC2BBD2BEE2B3B08031DC12BC22B33
:10078200EE2B0030A7000030A6000030A50000309C
:10079200A400772C772CEE2B0130AC000310A40DB3
:1007A200A50DA60DA70DAC0BCF2BBB1FD92BDA2B9A
:1007B200DB2B24143B1CDE2BDF2BE22B0314BB0DA3
:1007C200E52B0310BB0DE52B3A080319E92BEA2BA5
:1007D200EE2B0130BA02EE2BEE2BA61FF12BF22BE1
:1007E200CD2BF42BF42BB901BB1FF82BF92B0B2CBF
:1007F2003B087F390319FE2BFF2B022CB901B90AE2
:100802000B2C241C052C062C0B2CB901B90A0B2C21
:100812000B2C0B2C390803190F2C102C462C0130F1
:10082200A407003003180130A50700300318013077
:10083200A607003003180130A707271C212C222C01
:10084200462C2408AC002508AD002608AE00270877
:10085200AF000130B0002F0DAF0CAE0CAD0CAC0CE4
:10086200B00B2C2C2F08A7002E08A6002D08A500DF
:100872002C08A4003A0A03193F2C402C462C0130C4
:10088200AC002C08BA07462C462C3A0A03194A2C0B
:100892004B2C512C3A08031D4F2C502C612C512CFF
:1008A2000030A7000030A6000030A5000030A400F0
:1008B2003A08031D5D2C5E2C612CB801612C612C61
:1008C2003A1C642C652C672CA6176B2C7F30AC006D
:1008D2002C08A6053A08AC0003102C0CAD002D081C
:1008E200A700B81F752C762C772CA7170800831247
:1008F20003133F088039C4004408C9003F08C400FC
:100902004407C5004508CF00BE1F882C892C8B2CBC
:100912004F148B2C4F0803198F2C902CA02C4F0AAC
:10092200031D942C952C9E2C0030BF000030BE007D
:100932000030BD000030BC009E2CBE17A92C003038
:10094200BF000030BE000030BD000030BC00A92C4A
:1009520043088039C4004408C9064308C400440758
:10096200C5004508CE00C21FB72CB82CBA2C4E14B5
:10097200BA2C4E080319BE2CBF2CCF2C4E0A031DD5
:10098200C32CC42CCD2C0030C3000030C200003078
:10099200C1000030C000CD2CC217D82C0030C300DB
:1009A2000030C2000030C1000030C000D82C4E0818
:1009B2000319DC2CDD2CE32C4F08031DE12CE22C67
:1009C200ED2CE32C0030BF000030BE000030BD0033
:1009D2000030BC00EC2FEC2F3C08C4004408F000AF
:1009E20042080A128A1503210A128A117108831217
:1009F2000313D5007008D4005408C400C501C60111
:100A0200C7014708CD004608CC004508CB00440882
:100A1200CA005508C400C501C601C7014708D30072
:100A22004608D2004508D1004408D0003D08C40061
:100A32004408F00041080A128A1503210A128A1199
:100A4200710883120313D5007008D4005408C4003F
:100A5200C501C601C7014408CA07450803110318A6
:100A6200013E0319352DCB07460803110318013E39
:100A720003193C2DCC07470803110318013E031943
:100A8200432DCD075508C400C501C601C70144085E
:100A9200D007450803110318013E0319512DD10750
:100AA200460803110318013E0319582DD2074708BF
:100AB20003110318013E03195F2DD3073E08C4003A
:100AC2004408F00040080A128A1503210A128A110A
:100AD200710883120313D5007008D4005408C400AF
:100AE200C501C601C7014408CA0745080311031816
:100AF200013E03197D2DCB07460803110318013E61
:100B02000319842DCC07470803110318013E03196A
:100B12008B2DCD075508C400C501C601C701440885
:100B2200D007450803110318013E0319992DD10777
:100B3200460803110318013E0319A02DD2074708E6
:100B420003110318013E0319A72DD3070830C4006F
:100B52000310CA0DCB0DCC0DCD0DC40BA92D3D0834
:100B6200C4004408F00040080A128A1503210A1240
:100B72008A11710883120313D5007008D400540837
:100B8200C4005508C500C601C7014408CA07450884
:100B920003110318013E0319CF2DCB074608031199
:100BA2000318013E0319D62DCC0747080311031879
:100BB200013E0319DD2DCD073C08C4004408F000B6
:100BC20041080A128A1503210A128A117108831236
:100BD2000313D5007008D4005408C4005508C5009A
:100BE200C601C7014408CA07450803110318013E9C
:100BF2000319FC2DCB07460803110318013E031904
:100C0200032ECC07470803110318013E03190A2ECD
:100C1200CD070830C4000310CA0DCB0DCC0DCD0D8D
:100C2200C40B0C2E3C08C4004408F00040080A1211
:100C32008A1503210A128A11710883120313D5003F
:100C42007008D4005408C4005508C500C601C70185
:100C52004408CA07450803110318013E0319322E3E
:100C6200CB07460803110318013E0319392ECC079E
:100C7200470803110318013E0319402ECD073D0812
:100C8200C4004408F00042080A128A1503210A121D
:100C92008A11710883120313D5007008D400540816
:100CA200C4005508C500C601C7014408D00745085D
:100CB20003110318013E03195F2ED10746080311E1
:100CC2000318013E0319662ED207470803110318C1
:100CD200013E03196D2ED3073E08C4004408F000FC
:100CE20041080A128A1503210A128A117108831215
:100CF2000313D5007008D4005408C4005508C50079
:100D0200C601C7014408D007450803110318013E74
:100D120003198C2ED107460803110318013E03194B
:100D2200932ED207470803110318013E03199A2E86
:100D3200D3073E08C4004408F00042080A128A158C
:100D420003210A128A11710883120313D500700855
:100D5200D4005408C4005508C500C601C7010830B4
:100D62000310C40DC50DC60DC70DFF3E031DB12EE8
:100D72004408D007450803110318013E0319C22E87
:100D8200D107460803110318013E0319C92ED207E1
:100D9200470803110318013E0319D02ED3074A084E
:100DA200C4004B08C5004C08C6004D08C7001830E7
:100DB2000310C70CC60CC50CC40CFF3E031DD92E74
:100DC2004408D007450803110318013E0319EA2E0F
:100DD200D107460803110318013E0319F12ED20769
:100DE200470803110318013E0319F82ED3070830F0
:100DF200C4000310CA0DCB0DCC0DCD0DC40BFA2EC1
:100E02004F084E07C400C501C50D4408823ED400F8
:100E120045080318013EFF3ED5002E2F0130C400C5
:100E22000310D00DD10DD20DD30DC40B112FCD1F38
:100E32001B2F1C2F1E2F50141E2F0130C400031015
:100E4200CA0DCB0DCC0DCD0DC40B202FFF30D40716
:100E52000318D50AFF30D5072E2FD21F312F322F7C
:100E62000F2F332FCE01CD1F372F382F582FFF30A2
:100E72004A05C400FF304B05C500FF304C05C600D3
:100E82007F304D05C7004708460445044404031952
:100E92004B2F4C2F4F2FCE01CE0A582F501C522FC2
:100EA200532F582FCE01CE0A582F582F582F4E08A5
:100EB20003195C2F5D2F902F0130D00700300318EB
:100EC2000130D107003003180130D2070030031877
:100ED2000130D307531C6E2F6F2F902F5008C40080
:100EE2005108C5005208C6005308C7000130C800A7
:100EF200470DC70CC60CC50CC40CC80B792F47088C
:100F0200D3004608D2004508D1004408D000013081
:100F1200D4070318D50A0030D507902F902F550813
:100F2200803AFF0080307F02031D992FFF30540268
:100F3200031C9C2F9D2FA82F7F3083120313D300F5
:100F42008030D2000030D1000030D000DF2F831279
:100F520003135508803AFF0080307F02031DB32F30
:100F6200013054020318B62FB72FC32F003083125B
:100F72000313D3000030D2000030D1000030D00083
:100F8200C901DF2F831203135408C4004408CF00A1
:100F9200FF30D005FF30D1057F30D2050030D305B8
:100FA2004F1CD42FD52FD72FD217D72F4F08C400BD
:100FB2000310440CC5004508D300DF2F4908C400C4
:100FC2004408D3045308BF005208BE005108BD00B4
:100FD2005008BC00EC2F080083160313A001A101E6
:100FE200A201A301A401A501A601A701A801A901CB
:100FF200AA01AB01AC0183010A128A113828FF1B36
:101002000A2883137F1883170008840A0319FF0A2A
:10101200080008308A000408840A82070034013478
:1010220000340A34003464340034E83403341034B5
:101032002734253464340034533431340034533487
:0A10420032340034533433340034E8
:1010C80001300A128A15B4200A128A1508000A1279
:1010D8008A1587200A128A1583160313111408002B
:1010E8000A128A1587200A128A1583160313111506
:1010F80008000A128A1587200A128A1570088312B6
:1011080003139300080088288316031314198D28E5
:101118008E28882811081F39031D932894288828A9
:1011280095280800831203132308220421042004AD
:1011380003199F28A028A3288030A306A328A42841
:101148000800F1008312031308147108860088143C
:101158000D30F000F00BAE2883120313881008003E
:10116800F2008312031308107208860088140630F0
:10117800F1003030F000F00BBF28F10BBF28000061
:101188008312031388100800F5007503031DCD288A
:10119800CE28D62873087F3EF400740883160313FC
:1011A800AC00DE287308BF3EF400740883160313EE
:1011B800AC00DE282C080A128A15B4200A128A15F7
:1011C800080083120313B4000B30AD002D08A000F3
:1011D8003408AE00AF012E08A1002F08A20030305D
:1011E8000A128A15F7240A128A153030F2000030E4
:1011F800F3000A128A15E0210A128A150800F8007D
:10120800F401F5017008F200F3017208F6007308A2
:10121800F7000E29781C1129122918297608F407D5
:101228000318F50A7708F50701300310F60DF70DD6
:10123800FF3E031D19290310F80C7808031D252902
:1012480026290E2927297508F1007408F0002C2991
:1012580008002830831203139400831603139101A6
:10126800831203132008A4002108A5002208A60061
:101278002308A70002300310A40DA50DA60DA70D85
:10128800FF3E031D3F292708F3002608F200250822
:10129800F1002408F0000030F7003D30F600093076
:1012A800F5000030F4000A128A152E230A128A1556
:1012B8007008FF3E831603139300940187150716E1
:1012C80008001430F4007930F300F30B6929F40BAB
:1012D80069296E2930300A128A15B4200A128A1533
:1012E80030300A128A15B4200A128A1530300A12D0
:1012F8008A15B4200A128A1538300A128A15B420C1
:101308000A128A1510300A128A15B4200A128A1590
:1013180001300A128A15B4200A128A1506300A12F8
:101328008A15B4200A128A150E300A128A15B420BA
:101338000A128A150800780879040319A429A5292E
:10134800DA29FD01FD0AB42901300310F80DF90D61
:10135800FF3E031DA9290130FC007C08FD07B429C4
:10136800F91FB729B829A829BA29BA2979087B0207
:10137800031DC02978087A02031CC329C429CB2974
:101388007808FA027908031CFB03FB02CB29013019
:101398000310F90CF80CFF3E031DCC290130FD02A7
:1013A800031DD729D829BA29DA29DA297B08F900AF
:1013B8007A08F800DF290800F701F801062A7708FB
:1013C8007207F5007308F4000318F40AF71FED29F3
:1013D800F4037408F600760883120313FF007508F7
:1013E80084000A128A1500200A128A150A128A1520
:1013F800A5200A128A150130F7070318F80A0030E9
:10140800F807062A77087207F5007308F40003182E
:10141800F40AF71F102AF4037408F60076088312FA
:101428000313FF00750884000A128A1500200A12A7
:101438008A15003A031D212A222AE329232A0800B3
:10144800F501F6017008710403192B2A2C2A692A60
:10145800F701F70A3B2A01300310F00DF10DFF3EAA
:10146800031D302A0130F4007408F7073B2AF11FE6
:101478003E2A3F2A2F2A412A412A01300310F50D1E
:10148800F60DFF3E031D422A71087302031D4E2A02
:1014980070087202031C512A522A5A2A7008F20252
:1014A8007108031CF303F30275145A2A0130031060
:1014B800F10CF00CFF3E031D5B2A0130F702031DFF
:1014C800662A672A412A692A692A7608F100750876
:1014D800F0006E2A08008316031788018901831615
:1014E80003138601880183120313860188010030E3
:1014F800A3000130A2008630A100A030A0000A128B
:101508008A152D210A128A150A128A1565210A12CE
:101518008A150A128A1564200A128A15F301F30A39
:1015280001300A128A15C8200A128A150E30F200F4
:101538008030F3000A128A15E0210A128A15073052
:1015480083120313A8002808F30001300A128A1531
:10155800C8200A128A151130F2008030F3000A12EE
:101568008A15E0210A128A150D3083120313A80088
:101578002808F30001300A128A15C8200A128A15B1
:101588001430F2008030F3000A128A15E0210A12A2
:101598008A15080083120313B8003608B700370805
:1015A800F30002300A128A15C8200A128A1583121B
:1015B800031338080A128A15E5200A128A158312BD
:1015C80003133608013EB7003708F30002300A1249
:1015D8008A15C8200A128A152E300A128A15A520E3
:1015E8000A128A15831203133608023EB700370819
:1015F800F30002300A128A15C8200A128A150A3026
:1016080083120313350203180A2B0B2B122B3030CD
:101618000A128A15A5200A128A15122B831203139F
:1016280035080A128A15E5200A128A15831203134F
:101638003608043EB7003708F30002300A128A154C
:10164800C8200A128A1556300A128A15A5200A12CD
:101658008A1508000030FC000030FB000030FA005A
:101668000030F900730872047104700403193D2BEB
:101678003E2B912BFD01FD0A4F2B0130F800031082
:10168800F00DF10DF20DF30DF80B432B0130F800BE
:101698007808FD074F2BF31F522B532B412B552B4B
:1016A800552B0130F8000310F90DFA0DFB0DFC0D58
:1016B800F80B572B73087702031D6C2B7208760200
:1016C800031D6C2B71087502031D6C2B70087402C6
:1016D800031C6F2B702B802B7008F4027108031CFD
:1016E800710FF5027208031C720FF6027308031CCF
:1016F800730FF7027914802B01300310F30CF20CEE
:10170800F10CF00CFF3E031D812B0130FD02031D7F
:101718008E2B8F2B552B912B912B7C08F3007B085C
:10172800F2007A08F1007908F0009A2B0800700896
:10173800F4007108F5007208F6007308F70003104A
:10174800760D770DF8007808FA007A08031DAD2B9E
:10175800AE2BB82B0030F3000030F2000030F1005F
:101768000030F000342C342C7008F4007108F500B7
:101778007208F6007308F7001F300310F70CF60C18
:10178800F50CF40CFF3E031DC12B7408F800780813
:10179800F900F217FF30F005FF30F105FF30F205D0
:1017A8000030F3059630FA02FA1FDB2BDC2B012CF4
:1017B8007A08803A973E0318E22BE32BEE2B003091
:1017C800F3000030F2000030F1000030F000342C5B
:1017D800342CEE2B01300310F30CF20CF10CF00C4E
:1017E800FF3E031DEF2B0130F4007408FA07031DB8
:1017F800FE2BFF2BEE2B242C242C20307A02031CEA
:10180800062C072C1D2C0030F3000030F2000030AD
:10181800F1000030F000342C342C1D2C0130F40081
:101828000310F00DF10DF20DF30DF40B142C013033
:10183800FA027A08031D212C222C122C242C242C89
:1018480079080319282C292C342CF009F109F209FC
:10185800F309F00A0319F10A0319F20A0319F30A42
:101868000800F800780803193A2C3B2C4F2CF31F7A
:101878003E2C3F2C4F2C7009FA007109FB007209AD
:10188800FC007309FD00FA0A0319FB0A0319FC0A94
:101898000319FD0A572C7308FD007208FC00710833
:1018A800FB007008FA007308720471047004031DC9
:1018B8005E2C5F2C692C0030F3000030F200003001
:1018C800F1000030F000F62CF62C9630F400740885
:1018D800F9007C2C0130F4007408F907013003107A
:1018E800FD0CFC0CFB0CFA0CFF3E031D732C7C2C2E
:1018F800FE307D05031D812C822C6E2C9F2C9F2C85
:101908000130F4007408F9070130FA0700300318B1
:101918000130FB07003003180130FC0700300318C2
:101928000130FD0701300310FD0CFC0CFB0CFA0C18
:10193800FF3E031D972CFF307D05031DA42CA52C0D
:10194800842CB32CB32C0130F9020130F4000310BD
:10195800FA0DFB0DFC0DFD0DF40BAB2CB32CFC1B91
:10196800B62CB72CBE2C023079020318BC2CBD2C27
:10197800A72CBE2C7918C12CC22CCA2CFF30FA0512
:10198800FF30FB057F30FC05FF30FD050310F90C27
:101998007908F400F501F601F70118300310F40D89
:1019A800F50DF60DF70DFF3E031DD22C7408FA0451
:1019B8007508FB047608FC047708FD047808031909
:1019C800E62CE72CED2CF31FEA2CEB2CED2CFD1765
:1019D800ED2C7D08F3007C08F2007B08F1007A0802
:1019E800F000F62C080083120313AB002130A3008B
:1019F8002308A600DD2D25302C060319042D052DFE
:101A0800112D2C08A3002B088400230883138000C1
:101A18000130A3002308AB07DD2DA701182DF12DF8
:101A2800352D352DDD2D352D0130A007FF30200750
:101A380084000A128A150A200A128A15AC00A3002B
:101A4800A4012408003A03192A2DDD2D2308003AA1
:101A58000319F12D643A0319352D0D3A0319352D63
:101A6800DD2D2608840083130008A900840A0008D5
:101A7800AA000230A3002308A607AA1F442D452D5B
:101A88004F2D0330A3002308A704A909AA09A90A0E
:101A98000319AA0A4F2DAC01AC0A05302C06031D08
:101AA800562D572D592D812D812D2C08A300230744
:101AB800013E84000A128A150A200A128A15A40017
:101AC8000A128A150A200A128A15A50025082A0270
:101AD800031D702D240829020318732D742D762DEB
:101AE800812D812D0130A3002308AC0705302C0679
:101AF800031D7F2D802D592D812D270803390319AA
:101B0800862D872D932D2D30A3002B0884002308C4
:101B1800831380000130A3002308AB07932D2C0802
:101B2800A3002308A800D22D0A30F8000030F900DD
:101B38002808A3002307013E84000A128A150A20F8
:101B48000A128A15F0000A128A150A200A128A1542
:101B5800F1002A08F3002908F2000A128A15242243
:101B68000A128A157108FB007008FA000A128A1511
:101B78009F210A128A157808303E83120313A400A5
:101B88002408AC002C08A3002B0884002308831326
:101B980080000130A3002308AB07D22DFF30A3003B
:101BA8002308A807280A031DDA2DDB2D982DDD2D23
:101BB800DD2D0130A007FF30200784000A128A15A6
:101BC8000A200A128A15A3002308AC002C08031D5A
:101BD800EE2DEF2DFF2CF12DF12D2B088400831312
:101BE8008001F62D0800831203135D088039DE009A
:101BF8005E08E7005D08DE005E07DF005F08EE00B4
:101C0800DC1F072E082E0A2E6E140A2E6E080319E2
:101C18000E2E0F2E202E6E0A031D132E142E1D2E8F
:101C28000030DD000030DC000030DB000030DA007E
:101C38001D2EDC17DD01292E0030DD000030DC0010
:101C48000030DB000030DA00292E59088039DE0028
:101C58005E08E7065908DE005E07DF005F08EF0050
:101C6800D81F372E382E3A2E6F143A2E6F080319C4
:101C78003E2E3F2E502E6F0A031D432E442E4D2E0E
:101C88000030D9000030D8000030D7000030D6002E
:101C98004D2ED817D901582E0030D9000030D80061
:101CA8000030D7000030D6005908580457045604AD
:101CB800031D5F2E602E7A2E0030DD000030DC0020
:101CC8000030DB000030DA008030DC047F30DD04D7
:101CD8006708DE005E08DD045D08D9005C08D800EE
:101CE8005B08D7005A08D600FF2FFF2F6E08031D88
:101CF8007E2E7F2E912E0030DD000030DC0000307B
:101D0800DB000030DA005D08D9005C08D8005B0809
:101D1800D7005A08D600FF2FFF2F6F08DE00DF011B
:101D2800DE09DF09DE0A0319DF0A6E085E07E00034
:101D38005F0803185F0AE10060087F3EE800610859
:101D48000318013E003EE9005D08E6005C08E50076
:101D58005B08E4005A08E3000030DD000030DC00D6
:101D68000030DB000030DA000030ED000030EC001D
:101D78000030EB000030EA00EF01102F6F08031964
:101D8800C62EC72EE92E0130DE000310E30DE40D48
:101D9800E50DE60DDE0BC92E0130DE000310DA0D6D
:101DA800DB0DDC0DDD0DDE0BD22EED1FDC2EDD2E66
:101DB800DF2E5A14DF2E0130DE000310EA0DEB0D82
:101DC800EC0DED0DDE0BE12EE92E59086602031D20
:101DD800F72E58086502031DF72E57086402031DE5
:101DE800F72E56086302031CFA2EFB2E0B2F6D17D5
:101DF8005608E3025708031C570FE4025808031C4F
:101E0800580FE5025908031C590FE6020B2F013041
:101E1800DE005E08EF07102F1A306F02031C152F23
:101E2800162FC22E172F660865046404630403196D
:101E38001E2F1F2F412F6A14412F412F0130DE0022
:101E48000310DA0DDB0DDC0DDD0DDE0B242FED1F8D
:101E58002E2F2F2F312F5A14312F0130DE0003106F
:101E6800EA0DEB0DEC0DED0DDE0B332FFF30E8071F
:101E78000318E90AFF30E907412FDC1F442F452FDB
:101E8800222F462FEF01ED1F4A2F4B2F6B2FFF30CC
:101E98006A05DE00FF306B05DF00FF306C05E000EF
:101EA8007F306D05E100610860045F045E0403197A
:101EB8005E2F5F2F622FEF01EF0A6B2F5A1C652FE1
:101EC800662F6B2FEF01EF0A6B2F6B2F6B2F6F08AD
:101ED80003196F2F702FA32F0130DA070030031872
:101EE8000130DB07003003180130DC07003003182D
:101EF8000130DD075D1C812F822FA32F5A08DE00D9
:101F08005B08DF005C08E0005D08E1000130E200EA
:101F1800610DE10CE00CDF0CDE0CE20B8C2F61088C
:101F2800DD006008DC005F08DB005E08DA000130D5
:101F3800E8070318E90A0030E907A32FA32F690867
:101F4800803AFF0080307F02031DAC2FFF3068020B
:101F5800031CAF2FB02FBF2FFF3083120313E800ED
:101F68000030E9000030DD000030DC000030DB002C
:101F78000030DA00BF2F831203136908803AFF008C
:101F880080307F02031DCA2F013068020318CD2F4D
:101F9800CE2FDB2F83120313E801E9010030DD00A7
:101FA8000030DC000030DB000030DA00E70183128B
:101FB80003136808DE005E08EE006E1CE42FE52FB0
:101FC800E72FDC17EB2F7F30DE005E08DC056E089C
:101FD800DE0003105E0CDF005F08DD006708DE002E
:101FE8005E08DD045D08D9005C08D8005B08D700EE
:081FF8005A08D600FF2F080073
:04400E00D4E0FFFFFC
:00000001FF
