:020000040000FA
:100000000A128A11F32F01300A128A156B200A1284
:100010008A11080083120313B4000B30AD002D08C1
:10002000A0003408AE00AF012E08A1002F08A200E6
:1000300030300A128A11C2200A128A113030F200BE
:100040000030F3000A128A15A8210A128A1108004A
:100050007008F4007108F5007208F6007308F700E4
:100060000310760D770DF8007808FA007A08031D62
:100070003A283B2845280030F3000030F2000030D9
:10008000F1000030F000C128C1287008F4007108A8
:10009000F5007208F6007308F7001F300310F70C24
:1000A000F60CF50CF40CFF3E031D4E287408F80006
:1000B0007808F900F217FF30F005FF30F105FF3046
:1000C000F2050030F3059630FA02FA1F6828692815
:1000D0008E287A08803A973E03186F2870287B286C
:1000E0000030F3000030F2000030F1000030F0008A
:1000F000C128C1287B2801300310F30CF20CF10C4D
:10010000F00CFF3E031D7C280130F4007408FA0750
:10011000031D8B288C287B28B128B12820307A0237
:10012000031C93289428AA280030F3000030F20022
:100130000030F1000030F000C128C128AA280130A9
:10014000F4000310F00DF10DF20DF30DF40BA128E6
:100150000130FA027A08031DAE28AF289F28B12883
:10016000B12879080319B528B628C128F009F10982
:10017000F209F309F00A0319F10A0319F20A031943
:10018000F30A080083120313AB002130A3002308F5
:10019000A600A82925302C060319CF28D028DC2852
:1001A0002C08A3002B08840023088313800001304F
:1001B000A3002308AB07A829A701E328BC2900292D
:1001C0000029A82900290130A007FF30200784005A
:1001D0000A128A150A200A128A11AC00A300A4018F
:1001E0002408003A0319F528A8292308003A03191E
:1001F000BC29643A031900290D3A03190029A829DA
:100200002608840083130008A900840A0008AA00B5
:100210000230A3002308A607AA1F0F2910291A29B4
:100220000330A3002308A704A909AA09A90A0319EE
:10023000AA0A1A29AC01AC0A05302C06031D212993
:10024000222924294C294C292C08A3002307013EEC
:1002500084000A128A150A200A128A11A4000A12BE
:100260008A150A200A128A11A50025082A02031DF0
:100270003B292408290203183E293F2941294C29FA
:100280004C290130A3002308AC0705302C06031DC0
:100290004A294B2924294C292708033903195129B4
:1002A00052295E292D30A3002B08840023088313D4
:1002B00080000130A3002308AB075E292C08A300AF
:1002C0002308A8009D290A30F8000030F90028080A
:1002D000A3002307013E84000A128A150A200A128D
:1002E0008A11F0000A128A150A200A128A11F100F6
:1002F0002A08F3002908F2000A128A15EC210A12D2
:100300008A117108FB007008FA000A128A15672129
:100310000A128A117808303E83120313A4002408BD
:10032000AC002C08A3002B08840023088313800052
:100330000130A3002308AB079D29FF30A300230849
:10034000A807280A031DA529A6296329A829A829E1
:100350000130A007FF30200784000A128A150A2006
:100360000A128A11A3002308AC002C08031DB92926
:10037000BA29CA28BC29BC292B0884008313800110
:10038000C12908008312031327088039AC002C0808
:10039000B8002708AC002C07AD002D08BA00A61F36
:1003A000D229D329D5293A14D5293A080319D929AC
:1003B000DA29EB293A0A031DDE29DF29E829003072
:1003C000A7000030A6000030A5000030A400E829F6
:1003D000A617A701F4290030A7000030A6000030BE
:1003E000A5000030A400F4292B088039AC002C08AB
:1003F000B900390838060319FE29FF29012A3817E0
:10040000012A2B08AC002C07AD002D08B900AA1F4B
:100410000A2A0B2A0D2A39140D2A39080319112A20
:10042000122A232A390A031D162A172A202A0030E5
:10043000AB000030AA000030A9000030A800202A3C
:10044000AA17AB012B2A0030AB000030AA00003005
:10045000A9000030A8003A0839020318302A312ACE
:10046000772A381F342A352A3A2A8030AC002C08E3
:10047000B8063A2A3A08AC002C08BB003908AC0090
:100480002C08BA003B08AC002C08B9002408AC00CA
:100490002C08BB002808AC002C08A4003B08AC00CA
:1004A0002C08A8002508AC002C08BB002908AC00CB
:1004B0002C08A5003B08AC002C08A9002608AC00BD
:1004C0002C08BB002A08AC002C08A6003B08AC0096
:1004D0002C08AA002708AC002C08BB002B08AC0095
:1004E0002C08A7003B08AC002C08AB00772ABB0106
:1004F0003A08AC00AD01AC09AD09AC0A0319AD0A6C
:1005000039082C07AE002D0803182D0AAF002F085C
:10051000803AFF0080307F02031D902A1A302E029D
:10052000031C932A942AD52A83120313270826042E
:1005300025042404031D9D2A9F2A0130A02A00308F
:10054000AC002C08BB000030A7000030A600003033
:10055000A5000030A4003908AC002C08BA00DE2A3F
:10056000D52A3B1CB42AB52ABE2A3B08AC0003108E
:100570002C0C0138AD002D08BB00C12A0310BB0CA8
:10058000C12A241CC42AC52AC72ABB17C72A01307E
:10059000AC00270DA70CA60CA50CA40CAC0BC92A0B
:1005A0000130AC002C08BA07D52A8312031339088E
:1005B0003A02031CDC2ADD2AB12ADE2A381BE12A92
:1005C000E22A312B3A08031DE62AE72AF12A0030F5
:1005D000A7000030A6000030A5000030A4007D2C4C
:1005E0007D2C2808A407290803110318013E0319CC
:1005F000FA2AA5072A0803110318013E0319012B43
:10060000A6072B0803110318013E0319082BA7079F
:10061000271C0B2B0C2BFA2B3B1C0F2B102B192BF5
:100620003B08AC0003102C0C0138AD002D08BB00BA
:100630001C2B0310BB0C1C2B241C1F2B202B222B30
:10064000BB17222B0130AC00270DA70CA60CA50C64
:10065000A40CAC0B242B0130AC002C08BA07FA2BED
:10066000FA2B2708803AFF002B08803A7F02031DEF
:10067000432B2A082602031D432B29082502031DAC
:10068000432B280824020318462B472BAD2BFF30A1
:10069000AC00FF30AD00FF30AE00FF30AF002808E7
:1006A000B0002908B1002A08B2002B08B3002409C1
:1006B000B4002509B5002609B6002709B700B40A19
:1006C0000319B50A0319B60A0319B70A3408B007A3
:1006D00035080318350F6D2B6E2BB107360803183C
:1006E000360F732B742BB20737080318370AB3077A
:1006F0003008AC0731080318310F7F2B802BAD0772
:1007000032080318320F852B862BAE0733080318E7
:10071000330AAF072F08A7002E08A6002D08A50052
:100720002C08A4008030AC002C08B806BB09BB0A1A
:100730003B08031D9C2B9D2BBB2B0130A4070030D5
:1007400003180130A507003003180130A607003058
:1007500003180130A707BB2BBB2B2808A4022908CC
:10076000031C290FA5022A08031C2A0FA6022B0826
:10077000031C2B0FA7022708260425042404031DAD
:10078000C22BC32BF42B3B08031DC72BC82BF42B08
:100790000030A7000030A6000030A5000030A40003
:1007A0007D2C7D2CF42B0130AC000310A40DA50D85
:1007B000A60DA70DAC0BD52BBB1FDF2BE02BE12B20
:1007C00024143B1CE42BE52BE82B0314BB0DEB2B73
:1007D0000310BB0DEB2B3A080319EF2BF02BF42B76
:1007E0000130BA02F42BF42BA61FF72BF82BD32BD6
:1007F000FA2BFA2BB901BB1FFE2BFF2B112C3B0848
:100800007F390319042C052C082CB901B90A112CC5
:10081000241C0B2C0C2C112CB901B90A112C112CF5
:10082000112C39080319152C162C4C2C0130A40757
:10083000003003180130A507003003180130A60767
:10084000003003180130A707271C272C282C4C2C1C
:100850002408AC002508AD002608AE002708AF002C
:100860000130B0002F0DAF0CAE0CAD0CAC0CB00BCA
:10087000322C2F08A7002E08A6002D08A5002C0852
:10088000A4003A0A0319452C462C4C2C0130AC002C
:100890002C08BA074C2C4C2C3A0A0319502C512C1A
:1008A000572C3A08031D552C562C672C572C00301A
:1008B000A7000030A6000030A5000030A4003A08D0
:1008C000031D632C642C672CB801672C672C3A1C21
:1008D0006A2C6B2C6D2CA617712C7F30AC002C0869
:1008E000A6053A08AC0003102C0CAD002D08A7009B
:1008F000B81F7B2C7C2C7D2CA717080083120313B8
:100900003F088039C4004408C9003F08C4004407B8
:10091000C5004508CF00BE1F8E2C8F2C912C4F1484
:10092000912C4F080319952C962CA62C4F0A031DC9
:100930009A2C9B2CA42C0030BF000030BE0000304D
:10094000BD000030BC00A42CBE17AF2C0030BF008F
:100950000030BE000030BD000030BC00AF2C4308AA
:100960008039C4004408C9064308C4004407C500D0
:100970004508CE00C21FBD2CBE2CC02C4E14C02C6E
:100980004E080319C42CC52CD52C4E0A031DC92CA6
:10099000CA2CD32C0030C3000030C2000030C1008C
:1009A0000030C000D32CC217DE2C0030C300003052
:1009B000C2000030C1000030C000DE2C4E08031918
:1009C000E22CE32CE92C4F08031DE72CE82CF32C38
:1009D000E92C0030BF000030BE000030BD00003008
:1009E000BC00F22FF22F3C08C4004408F00042087B
:1009F0000A128A159C200A128A11710883120313A5
:100A0000D5007008D4005408C400C501C601C70150
:100A10004708CD004608CC004508CB004408CA0072
:100A20005508C400C501C601C7014708D3004608E0
:100A3000D2004508D1004408D0003D08C400440855
:100A4000F00041080A128A159C200A128A117108C6
:100A500083120313D5007008D4005408C400C501E4
:100A6000C601C7014408CA07450803110318013E1F
:100A700003193B2DCB07460803110318013E031948
:100A8000422DCC07470803110318013E0319492DD5
:100A9000CD075508C400C501C601C7014408D007E9
:100AA000450803110318013E0319572DD1074608C5
:100AB00003110318013E03195E2DD20747080311E5
:100AC0000318013E0319652DD3073E08C4004408EE
:100AD000F00040080A128A159C200A128A11710837
:100AE00083120313D5007008D4005408C400C50154
:100AF000C601C7014408CA07450803110318013E8F
:100B00000319832DCB07460803110318013E03196F
:100B10008A2DCC07470803110318013E0319912DB4
:100B2000CD075508C400C501C601C7014408D00758
:100B3000450803110318013E03199F2DD1074608EC
:100B400003110318013E0319A62DD207470803110C
:100B50000318013E0319AD2DD3070830C40003105C
:100B6000CA0DCB0DCC0DCD0DC40BAF2D3D08C4006F
:100B70004408F00040080A128A159C200A128A11C3
:100B8000710883120313D5007008D4005408C40000
:100B90005508C500C601C7014408CA074508031126
:100BA0000318013E0319D52DCB074608031103187E
:100BB000013E0319DC2DCC07470803110318013E41
:100BC0000319E32DCD073C08C4004408F000410898
:100BD0000A128A159C200A128A11710883120313C3
:100BE000D5007008D4005408C4005508C500C601DB
:100BF000C7014408CA07450803110318013E031939
:100C0000022ECB07460803110318013E0319092ED3
:100C1000CC07470803110318013E0319102ECD0716
:100C20000830C4000310CA0DCB0DCC0DCD0DC40B84
:100C3000122E3C08C4004408F00040080A128A152D
:100C40009C200A128A11710883120313D5007008C0
:100C5000D4005408C4005508C500C601C7014408A3
:100C6000CA07450803110318013E0319382ECB07A4
:100C7000460803110318013E03193F2ECC0747080D
:100C800003110318013E0319462ECD073D08C40089
:100C90004408F00042080A128A159C200A128A11A0
:100CA000710883120313D5007008D4005408C400DF
:100CB0005508C500C601C7014408D00745080311FF
:100CC0000318013E0319652ED107460803110318C6
:100CD000013E03196C2ED207470803110318013E89
:100CE0000319732ED3073E08C4004408F0004108DE
:100CF0000A128A159C200A128A11710883120313A2
:100D0000D5007008D4005408C4005508C500C601B9
:100D1000C7014408D007450803110318013E031911
:100D2000922ED107460803110318013E0319992E8C
:100D3000D207470803110318013E0319A02ED30759
:100D40003E08C4004408F00042080A128A159C209C
:100D50000A128A11710883120313D5007008D40097
:100D60005408C4005508C500C601C7010830031067
:100D7000C40DC50DC60DC70DFF3E031DB72E44089B
:100D8000D007450803110318013E0319C82ED107E7
:100D9000460803110318013E0319CF2ED207470856
:100DA00003110318013E0319D62ED3074A08C400C5
:100DB0004B08C5004C08C6004D08C700183003108A
:100DC000C70CC60CC50CC40CFF3E031DDF2E440827
:100DD000D007450803110318013E0319F02ED1076F
:100DE000460803110318013E0319F72ED2074708DE
:100DF00003110318013E0319FE2ED3070830C40067
:100E00000310CA0DCB0DCC0DCD0DC40B002F4F0818
:100E10004E07C400C501C50D4408823ED4004508F4
:100E20000318013EFF3ED500342F0130C4000310EB
:100E3000D00DD10DD20DD30DC40B172FCD1F212FE7
:100E4000222F242F5014242F0130C4000310CA0D68
:100E5000CB0DCC0DCD0DC40B262FFF30D4070318BE
:100E6000D50AFF30D507342FD21F372F382F152F33
:100E7000392FCE01CD1F3D2F3E2F5E2FFF304A056B
:100E8000C400FF304B05C500FF304C05C6007F3065
:100E90004D05C70047084604450444040319512F73
:100EA000522F552FCE01CE0A5E2F501C582F592F8E
:100EB0005E2FCE01CE0A5E2F5E2F5E2F4E080319E5
:100EC000622F632F962F0130D007003003180130B6
:100ED000D107003003180130D20700300318013069
:100EE000D307531C742F752F962F5008C400510838
:100EF000C5005208C6005308C7000130C800470D9E
:100F0000C70CC60CC50CC40CC80B7F2F4708D300F8
:100F10004608D2004508D1004408D0000130D4076B
:100F20000318D50A0030D507962F962F5508803A1A
:100F3000FF0080307F02031D9F2FFF305402031CEF
:100F4000A22FA32FAE2F7F3083120313D300803044
:100F5000D2000030D1000030D000E52F83120313FF
:100F60005508803AFF0080307F02031DB92F013001
:100F700054020318BC2FBD2FC92F00308312031356
:100F8000D3000030D2000030D1000030D000C901C1
:100F9000E52F831203135408C4004408CF00FF3028
:100FA000D005FF30D1057F30D2050030D3054F1C6E
:100FB000DA2FDB2FDD2FD217DD2F4F08C4000310EF
:100FC000440CC5004508D300E52F4908C400440877
:100FD000D3045308BF005208BE005108BD0050089A
:100FE000BC00F22F08008313A0308400BC300A1626
:100FF0008A11EF270A128A1183010A128A15252CF9
:10100000FF1B0A2883137F1883170008840A03191B
:10101000FF0A080008308A000408840A82070034A6
:10102000013400340A34003464340034E8340334C6
:101030001034273425346434003420342034003410
:101040005334313400345334323400345334333471
:0210500000346A
:101056000A128A153E200A128A15831603131115E1
:1010660008000A128A153E200A128A157008831291
:101076000313930008003F2883160313141944280A
:1010860045283F2811081F39031D4A284B283F28A9
:101096004C28080083120313230822042104200489
:1010A6000319562857285A288030A3065A285B2841
:1010B6000800F100831203130814710886008814CF
:1010C6000D30F000F00B652883120313881008001A
:1010D600F200831203130810720886008814063083
:1010E600F1003030F000F00B7628F10B7628000086
:1010F6008312031388100800F5007503031D842866
:1011060085288D2873087F3EF40074088316031320
:10111600BB0095287308BF3EF400740883160313BA
:10112600BB0095283B080A128A156B200A128A15FD
:101136000800F800F401F5017008F200F3017208E6
:10114600F6007308F700A728781CAA28AB28B12850
:101156007608F4070318F50A7708F5070130031037
:10116600F60DF70DFF3E031DB2280310F80C7808A4
:10117600031DBE28BF28A728C0287508F1007408DB
:10118600F000C52808000A128A153E200A128A15A0
:101196008316031391150A128A153E200A128A1520
:1011A600831203131308F200F3017208F4007308A4
:1011B600F5000A128A153E200A128A157003710478
:1011C600031DE628E728EB28831603139112EE2861
:1011D60083160313911611167508F1007408F000B2
:1011E600F42808002830831203139400831603138F
:1011F6009101831203132008A4002108A5002208E8
:10120600A6002308A70002300310A40DA50DA60D05
:10121600A70DFF3E031D07292708F3002608F20045
:101226002508F1002408F0000030F7003D30F600F4
:101236000930F5000030F4000A128A15F6220A1267
:101246008A157008FF3E83160313930094018715D1
:10125600071608001430F4007930F300F30B312937
:10126600F40B3129362930300A128A156B200A12FE
:101276008A1530300A128A156B200A128A15303008
:101286000A128A156B200A128A1538300A128A1534
:101296006B200A128A1510300A128A156B200A1260
:1012A6008A1501300A128A156B200A128A15063031
:1012B6000A128A156B200A128A150E300A128A152E
:1012C6006B200A128A1508007808790403196C291C
:1012D6006D29A229FD01FD0A7C2901300310F80DB4
:1012E600F90DFF3E031D71290130FC007C08FD0746
:1012F6007C29F91F7F29802970298229822979086A
:101306007B02031D882978087A02031C8B298C2905
:1013160093297808FA027908031CFB03FB02932938
:1013260001300310F90CF80CFF3E031D942901301F
:10133600FD02031D9F29A0298229A229A2297B0833
:10134600F9007A08F800A7290800F701F801CE2964
:1013560077087207F5007308F4000318F40AF71FFC
:10136600B529F4037408F600760883120313FF0008
:10137600750884000A128A1500200A128A150A12B4
:101386008A155C200A128A150130F7070318F80A35
:101396000030F807CE2977087207F5007308F400C5
:1013A6000318F40AF71FD829F4037408F600760820
:1013B60083120313FF00750884000A128A150020A1
:1013C6000A128A15003A031DE929EA29AB29EB29F5
:1013D6000800F501F601700871040319F329F429D0
:1013E600312AF701F70A032A01300310F00DF10D37
:1013F600FF3E031DF8290130F4007408F707032A9D
:10140600F11F062A072AF729092A092A013003109B
:10141600F50DF60DFF3E031D0A2A71087302031D22
:10142600162A70087202031C192A1A2A222A700820
:10143600F2027108031CF303F3027514222A013029
:101446000310F10CF00CFF3E031D232A0130F702B6
:10145600031D2E2A2F2A092A312A312A7608F1005D
:101466007508F000362A08008316031788018901DB
:1014760083160313860188018312031386018801EC
:101486000030A3000130A2008630A100A030A000E9
:101496000A128A15F5200A128A150A128A152D21B2
:1014A6000A128A150A128A1103200A128A15F301F2
:1014B600F30A01300A128A157F200A128A151130A2
:1014C600F2008030F3000A128A15A8210A128A1542
:1014D600073083120313A8002808F30001300A120C
:1014E6008A157F200A128A151430F2008030F30024
:1014F6000A128A15A8210A128A150D3083120313BF
:10150600A8002808F30001300A128A157F200A1263
:101516008A151730F2008030F3000A128A15A821C6
:101526000A128A15080083120313B8003608B7009A
:101536003708F30002300A128A157F200A128A152C
:101546008312031338080A128A110A200A128A150E
:10155600831203133608013EB7003708F300023042
:101566000A128A157F200A128A152E300A128A1547
:101576005C200A128A15831203133608023EB7004E
:101586003708F30002300A128A157F200A128A15DC
:101596000A308312031335020318D22AD32ADA2A11
:1015A60030300A128A155C200A128A15DA2A83124A
:1015B600031335080A128A110A200A128A158312A1
:1015C60003133608043EB7003708F30002300A1248
:1015D6008A157F200A128A1556300A128A155C204F
:1015E6000A128A1508000030FC000030FB000030AB
:1015F600FA000030F90073087204710470040319CC
:10160600052B062B592BFD01FD0A172B0130F8007F
:101616000310F00DF10DF20DF30DF80B0B2B01304D
:10162600F8007808FD07172BF31F1A2B1B2B092B25
:101636001D2B1D2B0130F8000310F90DFA0DFB0DC3
:10164600FC0DF80B1F2B73087702031D342B720851
:101656007602031D342B71087502031D342B7008A6
:101666007402031C372B382B482B7008F4027108C0
:10167600031C710FF5027208031C720FF602730841
:10168600031C730FF7027914482B01300310F30C77
:10169600F20CF10CF00CFF3E031D492B0130FD024C
:1016A600031D562B572B1D2B592B592B7C08F3004A
:1016B6007B08F2007A08F1007908F000622B080036
:1016C600F80078080319682B692B7D2BF31F6C2B08
:1016D6006D2B7D2B7009FA007109FB007209FC0065
:1016E6007309FD00FA0A0319FB0A0319FC0A031918
:1016F600FD0A852B7308FD007208FC007108FB00CB
:101706007008FA007308720471047004031D8C2BB0
:101716008D2B972B0030F3000030F2000030F100E3
:101726000030F000242C242C9630F4007408F900C4
:10173600AA2B0130F4007408F90701300310FD0CE0
:10174600FC0CFB0CFA0CFF3E031DA12BAA2BFE3052
:101756007D05031DAF2BB02B9C2BCD2BCD2B013044
:10176600F4007408F9070130FA0700300318013055
:10177600FB07003003180130FC0700300318013066
:10178600FD0701300310FD0CFC0CFB0CFA0CFF3EB0
:10179600031DC52BFF307D05031DD22BD32BB22B8A
:1017A600E12BE12B0130F9020130F4000310FA0DB0
:1017B600FB0DFC0DFD0DF40BD92BE12BFC1BE42BD3
:1017C600E52BEC2B023079020318EA2BEB2BD52BF9
:1017D600EC2B7918EF2BF02BF82BFF30FA05FF30A6
:1017E600FB057F30FC05FF30FD050310F90C790879
:1017F600F400F501F601F70118300310F40DF50DAC
:10180600F60DF70DFF3E031D002C7408FA0475084B
:10181600FB047608FC047708FD0478080319142CE9
:10182600152C1B2CF31F182C192C1B2CFD171B2CED
:101836007D08F3007C08F2007B08F1007A08F000CE
:10184600242C08000A128A1537220A128A152B2C14
:101856000A168A11F7270A128A155130F00000304D
:10186600F1000A128A1534200A128A150030F00097
:10187600F1000A128A15C6200A128A157008831604
:101886000313BC003C08BA000A128A152B200A1260
:101896008A150D3083160313BD00FB30BC00BC0B4C
:1018A600522CBD0B522C0A168A11F7270A128A15DA
:1018B6006130F0000030F1000A128A1534200A1255
:1018C6008A150030F000F1000A128A15C6200A12A5
:1018D6008A15700883160313BC003C08B7000A1269
:1018E6008A152B200A128A150D3083160313BD00A4
:1018F600FB30BC00BC0B7D2CBD0B7D2C0A168A115F
:10190600F7270A128A154130F0000030F1000A125A
:101916008A1534200A128A150030F000F1000A12E6
:101926008A15C6200A128A15700883160313BC008E
:101936003C08B4000A128A152B200A128A150D30AB
:1019460083160313BD00FB30BC00BC0BA82CBD0BDB
:10195600A82C433083120313D9007F30D8000030FF
:10196600D7000030D6004030BF00A030BE000030A7
:10197600BD000030BC00831603133A08BC00BD014D
:10198600BE01BF013F08F3003E08F2003D08F1002A
:101996003C08F00000300A128A1563230A128A15E1
:1019A600730883120313C3007208C2007108C100D2
:1019B6007008C0000A128A117E240A128A15831240
:1019C60003133F08DD003E08DC003D08DB003C0851
:1019D600DA000A128A15F7250A128A1583120313EA
:1019E600590883160313B30083120313580883168A
:1019F6000313B20083120313570883160313B100AF
:101A060083120313560883160313B0003308F3003A
:101A16003208F2003108F1003008F0000A128A118B
:101A260028200A128A15700883160313BC003C0886
:101A3600B900423083120313BF00C830BE00003025
:101A4600BD000030BC008316031333088312031352
:101A5600A70083160313320883120313A600831606
:101A66000313310883120313A500831603133008EA
:101A760083120313A400831603133908BC00BD01A7
:101A8600BE01BF013F08F3003E08F2003D08F10029
:101A96003C08F00001300A128A1563230A128A15DF
:101AA600730883120313A3007208A2007108A10031
:101AB6007008A0000A128A154D200A128A15831290
:101AC60003132308AB002208AA002108A900200856
:101AD600A8000A128A11C2210A128A158312031358
:101AE6002708C3002608C2002508C1002408C00034
:101AF6000A128A117E240A128A15831203133F08DA
:101B060083160313AF00831203133E0883160313D1
:101B1600AE00831203133D0883160313AD00831230
:101B260003133C0883160313AC002F08F3002E089A
:101B3600F2002D08F1002C08F0000A128A11282064
:101B46000A128A15700883160313BC003C08B800F5
:101B56003808BC003C0883120313B500B601B60A68
:101B66008316031339080A128A1596220A128A1551
:101B7600073083160313BC003C08F30002300A1238
:101B86008A157F200A128A158316031337080A124C
:101B96008A110A200A128A1520300A128A155C2038
:101BA6000A128A150D3083160313BC003C08F30095
:101BB60002300A128A157F200A128A158316031329
:101BC60034080A128A110A200A128A150E30F20007
:101BD6008030F3000A128A15A8210A128A152B2CC6
:101BE6002B2C0A128A110028831203135D088039F0
:101BF600DE005E08E7005D08DE005E07DF005F08C6
:101C0600EE00DC1F072E082E0A2E6E140A2E6E0812
:101C160003190E2E0F2E202E6E0A031D132E142EC0
:101C26001D2E0030DD000030DC000030DB0000300F
:101C3600DA001D2EDC17DD01292E0030DD00003014
:101C4600DC000030DB000030DA00292E590880392C
:101C5600DE005E08E7065908DE005E07DF005F0863
:101C6600EF00D81F372E382E3A2E6F143A2E6F08F3
:101C760003193E2E3F2E502E6F0A031D432E442E6F
:101C86004D2E0030D9000030D8000030D70000308B
:101C9600D6004D2ED817D901582E0030D900003065
:101CA600D8000030D7000030D60059085804570431
:101CB6005604031D5F2E602E7A2E0030DD000030A4
:101CC600DC000030DB000030DA008030DC047F30DE
:101CD600DD046708DE005E08DD045D08D9005C08E7
:101CE600D8005B08D7005A08D600FF2FFF2F6E08D2
:101CF600031D7E2E7F2E912E0030DD000030DC008D
:101D06000030DB000030DA005D08D9005C08D8003E
:101D16005B08D7005A08D600FF2FFF2F6F08DE009A
:101D2600DF01DE09DF09DE0A0319DF0A6E085E0736
:101D3600E0005F0803185F0AE10060087F3EE800E4
:101D460061080318013E003EE9005D08E6005C08F4
:101D5600E5005B08E4005A08E3000030DD000030CF
:101D6600DC000030DB000030DA000030ED0000302F
:101D7600EC000030EB000030EA00EF01102F6F0896
:101D86000319C62EC72EE92E0130DE000310E30D1F
:101D9600E40DE50DE60DDE0BC92E0130DE00031065
:101DA600DA0DDB0DDC0DDD0DDE0BD22EED1FDC2E8C
:101DB600DD2EDF2E5A14DF2E0130DE000310EA0D71
:101DC600EB0DEC0DED0DDE0BE12EE92E590866024A
:101DD600031DF72E58086502031DF72E57086402E7
:101DE600031DF72E56086302031CFA2EFB2E0B2F3B
:101DF6006D175608E3025708031C570FE4025808EC
:101E0600031C580FE5025908031C590FE6020B2F55
:101E16000130DE005E08EF07102F1A306F02031C38
:101E2600152F162FC22E172F660865046404630447
:101E360003191E2F1F2F412F6A14412F412F0130E6
:101E4600DE000310DA0DDB0DDC0DDD0DDE0B242FBD
:101E5600ED1F2E2F2F2F312F5A14312F0130DE0078
:101E66000310EA0DEB0DEC0DED0DDE0B332FFF30FD
:101E7600E8070318E90AFF30E907412FDC1F442F62
:101E8600452F222F462FEF01ED1F4A2F4B2F6B2F89
:101E9600FF306A05DE00FF306B05DF00FF306C05A2
:101EA600E0007F306D05E100610860045F045E04B8
:101EB60003195E2F5F2F622FEF01EF0A6B2F5A1C5B
:101EC600652F662F6B2FEF01EF0A6B2F6B2F6B2F92
:101ED6006F0803196F2F702FA32F0130DA07003018
:101EE60003180130DB07003003180130DC0700302F
:101EF60003180130DD075D1C812F822FA32F5A089E
:101F0600DE005B08DF005C08E0005D08E1000130F0
:101F1600E200610DE10CE00CDF0CDE0CE20B8C2F15
:101F26006108DD006008DC005F08DB005E08DA009F
:101F36000130E8070318E90A0030E907A32FA32FA9
:101F46006908803AFF0080307F02031DAC2FFF3006
:101F56006802031CAF2FB02FBF2FFF30831203136D
:101F6600E8000030E9000030DD000030DC00003021
:101F7600DB000030DA00BF2F831203136908803AB2
:101F8600FF0080307F02031DCA2F0130680203184C
:101F9600CD2FCE2FDB2F83120313E801E90100308A
:101FA600DD000030DC000030DB000030DA00E70145
:101FB600831203136808DE005E08EE006E1CE42F31
:101FC600E52FE72FDC17EB2F7F30DE005E08DC0500
:101FD6006E08DE0003105E0CDF005F08DD00670898
:101FE600DE005E08DD045D08D9005C08D8005B08E9
:0A1FF600D7005A08D600FF2F08009C
:102FDE0064008001840A0406031900340406F02FED
:102FEE000A128A153E200A168A118316031311142B
:022FFE000800C9
:04400E00D4E0FFFFFC
:00000001FF
