:020000040000FA
:060000000A128A11F92F1B
:100D5A000A128A11C9260A128A1183160313111458
:100D6A0008000A128A11C9260A128A118316031365
:100D7A00111508000A128A11C9260A128A11700866
:100D8A008312031393000800CA2E8316031314193F
:100D9A00CF2ED02ECA2E11081F39031DD52ED62EBE
:100DAA00CA2ED72E080083160317880189018316D5
:100DBA000313860188018312031386018801003018
:100DCA00A3000130A2008630A100A030A0000A12C0
:100DDA008A1154270A128A1108000A128A11C9268E
:100DEA000A128A118316031391150A128A11C92647
:100DFA000A128A11831203131308F200F30172080C
:100E0A00F4007308F5000A128A11C9260A128A1117
:100E1A0070037104031D122F132F172F8316031348
:100E2A0091121A2F83160313911611167508F100E1
:100E3A007408F000202F08000A128A11D8260A1214
:100E4A008A110A128A11AD260A128A115130F0004B
:100E5A000030F1000A128A11BF260A128A110030E4
:100E6A00F000F1000A128A11F2260A128A11700899
:100E7A008312031386000A128A11B6260A128A11ED
:100E8A000D3083120313A900FB30A800A80B4B2FC7
:100E9A00A90B4B2F262F262F0A128A110028283039
:100EAA00831203139400831603139101831203130D
:100EBA002008A4002108A5002208A6002308A700EC
:100ECA0002300310A40DA50DA60DA70DFF3E031DAC
:100EDA00662F2708F3002608F2002508F1002408E7
:100EEA00F0000030F7003D30F6000930F500003020
:100EFA00F4000A128A118C270A128A117008FF3E1E
:100F0A00831603139300940187150716080000300F
:100F1A00FC000030FB000030FA000030F9007308D2
:100F2A0072047104700403199B2F9C2FEF2FFD018B
:100F3A00FD0AAD2F0130F8000310F00DF10DF20D8E
:100F4A00F30DF80BA12F0130F8007808FD07AD2F3B
:100F5A00F31FB02FB12F9F2FB32FB32F0130F800FB
:100F6A000310F90DFA0DFB0DFC0DF80BB52F7308E4
:100F7A007702031DCA2F72087602031DCA2F710851
:100F8A007502031DCA2F70087402031CCD2FCE2FC1
:100F9A00DE2F7008F4027108031C710FF502720843
:100FAA00031C720FF6027308031C730FF7027914FD
:100FBA00DE2F01300310F30CF20CF10CF00CFF3EA3
:100FCA00031DDF2F0130FD02031DEC2FED2FB32F80
:100FDA00EF2FEF2F7C08F3007B08F2007A08F1006C
:100FEA007908F000F82F080083120313AA0183017D
:060FFA000A128A11212FEA
:04400E00D4E0FFFFFC
:00000001FF
