:020000040000FA
:060000000A128A11EE2F26
:1000080001300A128A15F2200A128A1108000030FB
:10001800FC000030FB000030FA000030F9007308E3
:1000280072047104700403191A281B286E28FD0134
:10003800FD0A2C280130F8000310F00DF10DF20D27
:10004800F30DF80B20280130F8007808FD072C285C
:10005800F31F2F2830281E28322832280130F800B4
:100068000310F90DFA0DFB0DFC0DF80B342873087D
:100078007702031D492872087602031D4928710872
:100088007502031D492870087402031C4C284D286A
:100098005D287008F4027108031C710FF5027208DC
:1000A800031C720FF6027308031C730FF70279140E
:1000B8005D2801300310F30CF20CF10CF00CFF3E3C
:1000C800031D5E280130FD02031D6B286C283228B1
:1000D8006E286E287C08F3007B08F2007A08F1008D
:1000E8007908F000772808000A128A15DC220A121B
:1000F8008A117E280A128A15A9200A128A115130FB
:10010800F0000030F1000A128A15BB200A128A1189
:100118000030F000F1000A128A156B210A128A11C8
:10012800700883160313AC002C08AA000A128A155B
:10013800B2200A128A110D3083160313AD00FB306A
:10014800AC00AC0BA528AD0BA528433083120313D4
:10015800D9007F30D8000030D7000030D6004030BA
:10016800BF00A030BE000030BD000030BC008316C8
:1001780003132A08AC00AD01AE01AF012F08F3004C
:100188002E08F2002D08F1002C08F00000300A12A9
:100198008A1535240A128A11730883120313C300BF
:1001A8007208C2007108C1007008C0000A128A11E2
:1001B80079240A128A11831203133F08DD003E08CE
:1001C800DC003D08DB003C08DA000A128A15F72536
:1001D8000A128A1183120313590883160313A700FE
:1001E80083120313580883160313A60083120313FC
:1001F800570883160313A5008312031356088316A2
:100208000313A4002708F3002608F2002508F100CC
:100218002408F0000A128A159B230A128A11700812
:1002280083160313AC002C08A90042308312031371
:10023800BF00C830BE000030BD000030BC008316CF
:100248000313270883120313A70083160313260832
:1002580083120313A60083160313250883120313BE
:10026800A50083160313240883120313A40083161E
:1002780003132908AC00AD01AE01AF012F08F3004C
:100288002E08F2002D08F1002C08F00001300A12A7
:100298008A1535240A128A11730883120313A300DE
:1002A8007208A2007108A1007008A0000A128A153D
:1002B800D4200A128A11831203132308AB002208E0
:1002C800AA002108A9002008A8000A128A11BD2145
:1002D8000A128A11831203132708C3002608C200D2
:1002E8002508C1002408C0000A128A1179240A12BC
:1002F8008A11831203133F0883160313A300831282
:1003080003133E0883160313A200831203133D0848
:1003180083160313A100831203133C0883160313E7
:10032800A0002308F3002208F2002108F1002008A9
:10033800F0000A128A159B230A128A117008831684
:100348000313AC002C08A8002808AC002C08831262
:100358000313B500B601B60A8316031329080A1257
:100368008A153B230A128A117E287E280A128A11CE
:1003780000288312031327088039AC002C08B80022
:100388002708AC002C07AD002D08BA00A61FCD2900
:10039800CE29D0293A14D0293A080319D429D529C5
:1003A800E6293A0A031DD929DA29E3290030A700EA
:1003B8000030A6000030A5000030A400E329A617ED
:1003C800A701EF290030A7000030A6000030A500E3
:1003D8000030A400EF292B088039AC002C08B900A4
:1003E800390838060319F929FA29FC293817FC298C
:1003F8002B08AC002C07AD002D08B900AA1F052A50
:10040800062A082A3914082A390803190C2A0D2A39
:100418001E2A390A031D112A122A1B2A0030AB0092
:100428000030AA000030A9000030A8001B2AAA1733
:10043800AB01262A0030AB000030AA000030A9002A
:100448000030A8003A08390203182B2A2C2A722AED
:10045800381F2F2A302A352A8030AC002C08B806DD
:10046800352A3A08AC002C08BB003908AC002C0827
:10047800BA003B08AC002C08B9002408AC002C08D2
:10048800BB002808AC002C08A4003B08AC002C08D2
:10049800A8002508AC002C08BB002908AC002C08D3
:1004A800A5003B08AC002C08A9002608AC002C08C5
:1004B800BB002A08AC002C08A6003B08AC002C089E
:1004C800AA002708AC002C08BB002B08AC002C089D
:1004D800A7003B08AC002C08AB00722ABB013A0805
:1004E800AC00AD01AC09AD09AC0A0319AD0A390875
:1004F8002C07AE002D0803182D0AAF002F08803AEC
:10050800FF0080307F02031D8B2A1A302E02031C45
:100518008E2A8F2AD02A831203132708260425043B
:100528002404031D982A9A2A01309B2A0030AC0023
:100538002C08BB000030A7000030A6000030A50042
:100548000030A4003908AC002C08BA00D92AD02AF7
:100558003B1CAF2AB02AB92A3B08AC0003102C0C6C
:100568000138AD002D08BB00BC2A0310BB0CBC2A07
:10057800241CBF2AC02AC22ABB17C22A0130AC00D9
:10058800270DA70CA60CA50CA40CAC0BC42A013093
:10059800AC002C08BA07D02A8312031339083A0290
:1005A800031CD72AD82AAC2AD92A381BDC2ADD2AE8
:1005B8002C2B3A08031DE12AE22AEC2A0030A70076
:1005C8000030A6000030A5000030A400782C782C5C
:1005D8002808A407290803110318013E0319F52A5E
:1005E800A5072A0803110318013E0319FC2AA607C8
:1005F8002B0803110318013E0319032BA707271C17
:10060800062B072BF52B3B1C0A2B0B2B142B3B081B
:10061800AC0003102C0C0138AD002D08BB00172BC3
:100628000310BB0C172B241C1A2B1B2B1D2BBB17C1
:100638001D2B0130AC00270DA70CA60CA50CA40C93
:10064800AC0B1F2B0130AC002C08BA07F52BF52B8F
:100658002708803AFF002B08803A7F02031D3E2BB3
:100668002A082602031D3E2B29082502031D3E2BBE
:10067800280824020318412B422BA82BFF30AC007A
:10068800FF30AD00FF30AE00FF30AF002808B000EB
:100698002908B1002A08B2002B08B3002409B400C5
:1006A8002509B5002609B6002709B700B40A0319B9
:1006B800B50A0319B60A0319B70A3408B00735088A
:1006C8000318350F682B692BB10736080318360F46
:1006D8006E2B6F2BB20737080318370AB307300899
:1006E800AC0731080318310F7A2B7B2BAD07320882
:1006F8000318320F802B812BAE0733080318330AF7
:10070800AF072F08A7002E08A6002D08A5002C0863
:10071800A4008030AC002C08B806BB09BB0A3B0813
:10072800031D972B982BB62B0130A4070030031814
:100738000130A507003003180130A6070030031860
:100748000130A707B62BB62B2808A4022908031CDA
:10075800290FA5022A08031C2A0FA6022B08031C2E
:100768002B0FA7022708260425042404031DBD2BEC
:10077800BE2BEF2B3B08031DC22BC32BEF2B0030E6
:10078800A7000030A6000030A5000030A400782C97
:10079800782CEF2B0130AC000310A40DA50DA60D8D
:1007A800A70DAC0BD02BBB1FDA2BDB2BDC2B2414B7
:1007B8003B1CDF2BE02BE32B0314BB0DE62B0310B4
:1007C800BB0DE62B3A080319EA2BEB2BEF2B013074
:1007D800BA02EF2BEF2BA61FF22BF32BCE2BF52B08
:1007E800F52BB901BB1FF92BFA2B0C2C3B087F39D1
:1007F8000319FF2B002C032CB901B90A0C2C241C5B
:10080800062C072C0C2CB901B90A0C2C0C2C0C2C1E
:1008180039080319102C112C472C0130A40700307B
:1008280003180130A507003003180130A60700306F
:1008380003180130A707271C222C232C472C240837
:10084800AC002508AD002608AE002708AF0001302F
:10085800B0002F0DAF0CAE0CAD0CAC0CB00B2D2CAA
:100868002F08A7002E08A6002D08A5002C08A40014
:100878003A0A0319402C412C472C0130AC002C08B3
:10088800BA07472C472C3A0A03194B2C4C2C522CEC
:100898003A08031D502C512C622C522C0030A70012
:1008A8000030A6000030A5000030A4003A08031D5F
:1008B8005E2C5F2C622CB801622C622C3A1C652CD1
:1008C800662C682CA6176C2C7F30AC002C08A6056B
:1008D8003A08AC0003102C0CAD002D08A700B81F77
:1008E800762C772C782CA7170800831203133F085F
:1008F8008039C4004408C9003F08C4004407C50043
:100908004508CF00BE1F892C8A2C8C2C4F148C2CA8
:100918004F080319902C912CA12C4F0A031D952CDC
:10092800962C9F2C0030BF000030BE000030BD0068
:100938000030BC009F2CBE17AA2C0030BF0000302E
:10094800BE000030BD000030BC00AA2C430880392E
:10095800C4004408C9064308C4004407C500450844
:10096800CE00C21FB82CB92CBB2C4E14BB2C4E0881
:100978000319BF2CC02CD02C4E0A031DC42CC52C27
:10098800CE2C0030C3000030C2000030C10000305F
:10099800C000CE2CC217D92C0030C3000030C200D2
:1009A8000030C1000030C000D92C4E080319DD2CDE
:1009B800DE2CE42C4F08031DE22CE32CEE2CE42C57
:1009C8000030BF000030BE000030BD000030BC0069
:1009D800ED2FED2F3C08C4004408F00042080A122D
:1009E8008A1541210A128A11710883120313D5004E
:1009F8007008D4005408C400C501C601C7014708DF
:100A0800CD004608CC004508CB004408CA0055086C
:100A1800C400C501C601C7014708D3004608D20073
:100A28004508D1004408D0003D08C4004408F0003F
:100A380041080A128A1541210A128A117108831283
:100A48000313D5007008D4005408C400C501C601BA
:100A5800C7014408CA07450803110318013E0319D2
:100A6800362DCB07460803110318013E03193D2D07
:100A7800CC07470803110318013E0319442DCD077D
:100A88005508C400C501C601C7014408D007450878
:100A980003110318013E0319522DD107460803110B
:100AA8000318013E0319592DD207470803110318EB
:100AB800013E0319602DD3073E08C4004408F00026
:100AC80040080A128A1541210A128A1171088312F4
:100AD8000313D5007008D4005408C400C501C6012A
:100AE800C7014408CA07450803110318013E031942
:100AF8007E2DCB07460803110318013E0319852DE7
:100B0800CC07470803110318013E03198C2DCD07A4
:100B18005508C400C501C601C7014408D0074508E7
:100B280003110318013E03199A2DD1074608031132
:100B38000318013E0319A12DD20747080311031812
:100B4800013E0319A82DD3070830C4000310CA0DAD
:100B5800CB0DCC0DCD0DC40BAA2D3D08C400440807
:100B6800F00040080A128A1541210A128A117108F8
:100B780083120313D5007008D4005408C400550824
:100B8800C500C601C7014408CA0745080311031870
:100B9800013E0319D02DCB07460803110318013E67
:100BA8000319D72DCC07470803110318013E031971
:100BB800DE2DCD073C08C4004408F00041080A12A5
:100BC8008A1541210A128A11710883120313D5006C
:100BD8007008D4005408C4005508C500C601C701F0
:100BE8004408CA07450803110318013E0319FD2DDF
:100BF800CB07460803110318013E0319042ECC073E
:100C0800470803110318013E03190B2ECD070830BE
:100C1800C4000310CA0DCB0DCC0DCD0DC40B0D2E89
:100C28003C08C4004408F00040080A128A15412113
:100C38000A128A11710883120313D5007008D400B0
:100C48005408C4005508C500C601C7014408CA07AE
:100C5800450803110318013E0319332ECB07460834
:100C680003110318013E03193A2ECC074708031154
:100C78000318013E0319412ECD073D08C40044085E
:100C8800F00042080A128A1541210A128A117108D5
:100C980083120313D5007008D4005408C400550803
:100CA800C500C601C7014408D00745080311031849
:100CB800013E0319602ED107460803110318013EAF
:100CC8000319672ED207470803110318013E0319B9
:100CD8006E2ED3073E08C4004408F00041080A12EB
:100CE8008A1541210A128A11710883120313D5004B
:100CF8007008D4005408C4005508C500C601C701CF
:100D08004408D007450803110318013E03198D2E26
:100D1800D107460803110318013E0319942ED20780
:100D2800470803110318013E03199B2ED3073E08F9
:100D3800C4004408F00042080A128A1541210A1228
:100D48008A11710883120313D5007008D40054085F
:100D5800C4005508C500C601C70108300310C40DFA
:100D6800C50DC60DC70DFF3E031DB22E4408D007A2
:100D7800450803110318013E0319C32ED10746087D
:100D880003110318013E0319CA2ED207470803119D
:100D98000318013E0319D12ED3074A08C4004B0893
:100DA800C5004C08C6004D08C70018300310C70C12
:100DB800C60CC50CC40CFF3E031DDA2E4408D00730
:100DC800450803110318013E0319EB2ED107460805
:100DD80003110318013E0319F22ED2074708031125
:100DE8000318013E0319F92ED3070830C400031075
:100DF800CA0DCB0DCC0DCD0DC40BFB2E4F084E07E5
:100E0800C400C501C50D4408823ED4004508031836
:100E1800013EFF3ED5002F2F0130C4000310D00D36
:100E2800D10DD20DD30DC40B122FCD1F1C2F1D2F8A
:100E38001F2F50141F2F0130C4000310CA0DCB0DF3
:100E4800CC0DCD0DC40B212FFF30D4070318D50AC4
:100E5800FF30D5072F2FD21F322F332F102F342FCB
:100E6800CE01CD1F382F392F592FFF304A05C40026
:100E7800FF304B05C500FF304C05C6007F304D05DF
:100E8800C700470846044504440403194C2F4D2F56
:100E9800502FCE01CE0A592F501C532F542F592FA3
:100EA800CE01CE0A592F592F592F4E0803195D2FFD
:100EB8005E2F912F0130D007003003180130D10781
:100EC800003003180130D207003003180130D3076F
:100ED800531C6F2F702F912F5008C4005108C50064
:100EE8005208C6005308C7000130C800470DC70C98
:100EF800C60CC50CC40CC80B7A2F4708D30046088B
:100F0800D2004508D1004408D0000130D4070318A6
:100F1800D50A0030D507912F912F5508803AFF0048
:100F280080307F02031D9A2FFF305402031C9D2F2F
:100F38009E2FA92F7F3083120313D3008030D20055
:100F48000030D1000030D000E02F83120313550881
:100F5800803AFF0080307F02031DB42F0130540215
:100F68000318B72FB82FC42F003083120313D300F0
:100F78000030D2000030D1000030D000C901E02F8D
:100F8800831203135408C4004408CF00FF30D0056F
:100F9800FF30D1057F30D2050030D3054F1CD52F47
:100FA800D62FD82FD217D82F4F08C4000310440CBF
:100FB800C5004508D300E02F4908C4004408D304FD
:100FC8005308BF005208BE005108BD005008BC00BD
:100FD800ED2F080083160313A001A101A201A301AC
:100FE800A401A501A601A701A801A901AA01AB01B5
:100FF80083010A128A117828FF1B0A2883137F1895
:1010080083170008840A0319FF0A080008308A00B9
:101018000408840A82070034013400340A34003496
:1010280064340034E8340334103427342534643409
:1010380000345334313400345334323400345334AC
:041048003334003409
:101152000A128A15C5200A128A158316031311145E
:1011620008000A128A15C5200A128A15831603136B
:10117200111508000A128A15C5200A128A1570086C
:101182008312031393000800C6288316031314194D
:10119200CB28CC28C62811081F39031DD128D228F4
:1011A200C628D3280800831203132308220421042B
:1011B20020040319DD28DE28E1288030A306E12877
:1011C200E2280800F1008312031308147108860054
:1011D20088140D30F000F00BEC28831203138810F2
:1011E2000800F200831203130810720886008814A4
:1011F2000630F1003030F000F00BFD28F10BFD2835
:1012020000008312031388100800F5007503031D04
:101212000B290C29142973087F3EF40074088316E5
:101222000313AB001C297308BF3EF4007408831635
:101232000313AB001C292B080A128A15F2200A128A
:101242008A15080083120313B4000B30AD002D0879
:10125200A0003408AE00AF012E08A1002F08A200A2
:1012620030300A128A15F7240A128A153030F20039
:101272000030F3000A128A154D220A128A1508005C
:10128200F800F401F5017008F200F3017208F600AB
:101292007308F7004C29781C4F29502956297608E3
:1012A200F4070318F50A7708F50701300310F60D65
:1012B200F70DFF3E031D57290310F80C7808031D94
:1012C200632964294C2965297508F1007408F00026
:1012D2006A2908000A128A15C5200A128A1583167D
:1012E200031391150A128A15C5200A128A15831250
:1012F20003131308F200F3017208F4007308F500F7
:101302000A128A15C5200A128A1570037104031D78
:101312008B298C2990298316031391129329831602
:101322000313911611167508F1007408F00099293B
:1013320008002830831203139400831603139101CB
:10134200831203132008A4002108A5002208A60086
:101352002308A70002300310A40DA50DA60DA70DAA
:10136200FF3E031DAC292708F3002608F2002508DA
:10137200F1002408F0000030F7003D30F60009309B
:10138200F5000030F4000A128A110B200A128A15A5
:101392007008FF3E83160313930094018715071606
:1013A20008001430F4007930F300F30BD629F40B63
:1013B200D629DB2930300A128A15F2200A128A1540
:1013C20030300A128A15F2200A128A1530300A12B7
:1013D2008A15F2200A128A1538300A128A15F2206A
:1013E2000A128A1510300A128A15F2200A128A1578
:1013F20001300A128A15F2200A128A1506300A12E0
:101402008A15F2200A128A150E300A128A15F22063
:101412000A128A150800780879040319112A122A77
:10142200472AFD01FD0A212A01300310F80DF90DAA
:10143200FF3E031D162A0130FC007C08FD07212A0D
:10144200F91F242A252A152A272A272A79087B0206
:10145200031D2D2A78087A02031C302A312A382AE1
:101462007808FA027908031CFB03FB02382A0130D0
:101472000310F90CF80CFF3E031D392A0130FD025E
:10148200031D442A452A272A472A472A7B08F900AE
:101492007A08F8004C2A0800F701F801732A770845
:1014A2007207F5007308F4000318F40AF71F5A2AAA
:1014B200F4037408F600760883120313FF0075081C
:1014C20084000A128A1500200A128A150A128A1545
:1014D200E3200A128A150130F7070318F80A0030D0
:1014E200F807732A77087207F5007308F4000318E7
:1014F200F40AF71F7D2AF4037408F60076088312B3
:101502000313FF00750884000A128A1500200A12CC
:101512008A15003A031D8E2A8F2A502A902A080023
:10152200F501F601700871040319982A992AD62A3E
:10153200F701F70AA82A01300310F00DF10DFF3E62
:10154200031D9D2A0130F4007408F707A82AF11F31
:10155200AB2AAC2A9C2AAE2AAE2A01300310F50D22
:10156200F60DFF3E031DAF2A71087302031DBB2A4D
:1015720070087202031CBE2ABF2AC72A7008F20230
:101582007108031CF303F3027514C72A0130031018
:10159200F10CF00CFF3E031DC82A0130F702031DB7
:1015A200D32AD42AAE2AD62AD62A7608F10075087A
:1015B200F000DB2A080083160317880189018316CD
:1015C2000313860188018312031386018801003008
:1015D200A3000130A2008630A100A030A0000A12B0
:1015E2008A159A210A128A150A128A15D2210A121A
:1015F2008A150A128A1104200A128A15F301F30AC3
:1016020001300A128A1506210A128A150E30F200DA
:101612008030F3000A128A154D220A128A15073009
:1016220083120313A8002808F30001300A128A1556
:1016320006210A128A151130F2008030F3000A12D4
:101642008A154D220A128A150D3083120313A8003F
:101652002808F30001300A128A1506210A128A1597
:101662001430F2008030F3000A128A154D220A1259
:101672008A15080083120313B8003608B70037082A
:10168200F30002300A128A1506210A128A15831201
:10169200031338080A128A1523210A128A158312A3
:1016A20003133608013EB7003708F30002300A126E
:1016B2008A1506210A128A152E300A128A15E3208B
:1016C2000A128A15831203133608023EB70037083E
:1016D200F30002300A128A1506210A128A150A300C
:1016E2008312031335020318772B782B7F2B3030AC
:1016F2000A128A15E3200A128A157F2B831203131A
:1017020035080A128A1523210A128A158312031335
:101712003608043EB7003708F30002300A128A1571
:1017220006210A128A1556300A128A15E3200A1275
:101732008A1508007008F4007108F5007208F600B6
:101742007308F7000310760D770DF8007808FA0099
:101752007A08031DAD2BAE2BB82B0030F3000030FE
:10176200F2000030F1000030F000342C342C70080C
:10177200F4007108F5007208F6007308F7001F30D4
:101782000310F70CF60CF50CF40CFF3E031DC12BF5
:101792007408F8007808F900F217FF30F005FF30FE
:1017A200F105FF30F2050030F3059630FA02FA1F18
:1017B200DB2BDC2B012C7A08803A973E0318E22BB4
:1017C200E32BEE2B0030F3000030F2000030F1008A
:1017D2000030F000342C342CEE2B01300310F30CCB
:1017E200F20CF10CF00CFF3E031DEF2B0130F40064
:1017F2007408FA07031DFE2BFF2BEE2B242C242C3E
:1018020020307A02031C062C072C1D2C0030F3001A
:101812000030F2000030F1000030F000342C342CA3
:101822001D2C0130F4000310F00DF10DF20DF30D3B
:10183200F40B142C0130FA027A08031D212C222CFD
:10184200122C242C242C79080319282C292C342C12
:10185200F009F109F209F309F00A0319F10A03196F
:10186200F20A0319F30A0800F800780803193A2C5F
:101872003B2C4F2CF31F3E2C3F2C4F2C7009FA00AF
:101882007109FB007209FC007309FD00FA0A0319D1
:10189200FB0A0319FC0A0319FD0A572C7308FD0001
:1018A2007208FC007108FB007008FA0073087204E9
:1018B20071047004031D5E2C5F2C692C0030F30050
:1018C2000030F2000030F1000030F000F62CF62C6F
:1018D2009630F4007408F9007C2C0130F40074088E
:1018E200F90701300310FD0CFC0CFB0CFA0CFF3E57
:1018F200031D732C7C2CFE307D05031D812C822C54
:101902006E2C9F2C9F2C0130F4007408F9070130D3
:10191200FA07003003180130FB07003003180130CA
:10192200FC07003003180130FD0701300310FD0CE5
:10193200FC0CFB0CFA0CFF3E031D972CFF307D05BF
:10194200031DA42CA52C842CB32CB32C0130F9023A
:101952000130F4000310FA0DFB0DFC0DFD0DF40B2C
:10196200AB2CB32CFC1BB62CB72CBE2C023079024C
:101972000318BC2CBD2CA72CBE2C7918C12CC22C50
:10198200CA2CFF30FA05FF30FB057F30FC05FF3023
:10199200FD050310F90C7908F400F501F601F701D1
:1019A20018300310F40DF50DF60DF70DFF3E031D73
:1019B200D22C7408FA047508FB047608FC04770834
:1019C200FD0478080319E62CE72CED2CF31FEA2C12
:1019D200EB2CED2CFD17ED2C7D08F3007C08F200BA
:1019E2007B08F1007A08F000F62C0800831203133A
:1019F200AB002130A3002308A600DD2D25302C06E4
:101A02000319042D052D112D2C08A3002B08840089
:101A12002308831380000130A3002308AB07DD2DC8
:101A2200A701182DF12D352D352DDD2D352D013048
:101A3200A007FF30200784000A128A150A200A1222
:101A42008A15AC00A300A4012408003A03192A2D28
:101A5200DD2D2308003A0319F12D643A0319352DBF
:101A62000D3A0319352DDD2D260884008313000855
:101A7200A900840A0008AA000230A3002308A607CE
:101A8200AA1F442D452D4F2D0330A3002308A70480
:101A9200A909AA09A90A0319AA0A4F2DAC01AC0A7D
:101AA20005302C06031D562D572D592D812D812DC4
:101AB2002C08A3002307013E84000A128A150A207B
:101AC2000A128A15A4000A128A150A200A128A1515
:101AD200A50025082A02031D702D240829020318D7
:101AE200732D742D762D812D812D0130A3002308B5
:101AF200AC0705302C06031D7F2D802D592D812D1D
:101B0200270803390319862D872D932D2D30A30025
:101B12002B0884002308831380000130A3002308CC
:101B2200AB07932D2C08A3002308A800D22D0A305E
:101B3200F8000030F9002808A3002307013E8400C2
:101B42000A128A150A200A128A15F0000A128A1548
:101B52000A200A128A15F1002A08F3002908F20065
:101B62000A128A1591220A128A157108FB0070085E
:101B7200FA000A128A150C220A128A157808303ED7
:101B820083120313A4002408AC002C08A3002B0822
:101B920084002308831380000130A3002308AB07CD
:101BA200D22DFF30A3002308A807280A031DDA2D2F
:101BB200DB2D982DDD2DDD2D0130A007FF30200714
:101BC20084000A128A150A200A128A15A300230821
:101BD200AC002C08031DEE2DEF2DFF2CF12DF12D65
:101BE2002B08840083138001F62D0800831203134F
:101BF2005D088039DE005E08E7005D08DE005E07F2
:101C0200DF005F08EE00DC1F072E082E0A2E6E147E
:101C12000A2E6E0803190E2E0F2E202E6E0A031D99
:101C2200132E142E1D2E0030DD000030DC0000309B
:101C3200DB000030DA001D2EDC17DD01292E00301A
:101C4200DD000030DC000030DB000030DA00292E3D
:101C520059088039DE005E08E7065908DE005E0793
:101C6200DF005F08EF00D81F372E382E3A2E6F1490
:101C72003A2E6F0803193E2E3F2E502E6F0A031D77
:101C8200432E442E4D2E0030D9000030D8000030B3
:101C9200D7000030D6004D2ED817D901582E00306B
:101CA200D9000030D8000030D7000030D6005908E3
:101CB200580457045604031D5F2E602E7A2E0030FE
:101CC200DD000030DC000030DB000030DA00803064
:101CD200DC047F30DD046708DE005E08DD045D0899
:101CE200D9005C08D8005B08D7005A08D600FF2F3D
:101CF200FF2F6E08031D7E2E7F2E912E0030DD00F9
:101D02000030DC000030DB000030DA005D08D90072
:101D12005C08D8005B08D7005A08D600FF2FFF2FB7
:101D22006F08DE00DF01DE09DF09DE0A0319DF0AC0
:101D32006E085E07E0005F0803185F0AE1006008B2
:101D42007F3EE80061080318013E003EE9005D089D
:101D5200E6005C08E5005B08E4005A08E300003096
:101D6200DD000030DC000030DB000030DA00003043
:101D7200ED000030EC000030EB000030EA00EF0133
:101D8200102F6F080319C62EC72EE92E0130DE0070
:101D92000310E30DE40DE50DE60DDE0BC92E013057
:101DA200DE000310DA0DDB0DDC0DDD0DDE0BD22EB5
:101DB200ED1FDC2EDD2EDF2E5A14DF2E0130DE0069
:101DC2000310EA0DEB0DEC0DED0DDE0BE12EE92E0D
:101DD20059086602031DF72E58086502031DF72EE7
:101DE20057086402031DF72E56086302031CFA2EDD
:101DF200FB2E0B2F6D175608E3025708031C570FD3
:101E0200E4025808031C580FE5025908031C590F35
:101E1200E6020B2F0130DE005E08EF07102F1A30AA
:101E22006F02031C152F162FC22E172F660865048A
:101E32006404630403191E2F1F2F412F6A14412FBC
:101E4200412F0130DE000310DA0DDB0DDC0DDD0D5C
:101E5200DE0B242FED1F2E2F2F2F312F5A14312F4F
:101E62000130DE000310EA0DEB0DEC0DED0DDE0B83
:101E7200332FFF30E8070318E90AFF30E907412F43
:101E8200DC1F442F452F222F462FEF01ED1F4A2F33
:101E92004B2F6B2FFF306A05DE00FF306B05DF0032
:101EA200FF306C05E0007F306D05E10061086004E1
:101EB2005F045E0403195E2F5F2F622FEF01EF0AAA
:101EC2006B2F5A1C652F662F6B2FEF01EF0A6B2FBA
:101ED2006B2F6B2F6F0803196F2F702FA32F0130F9
:101EE200DA07003003180130DB0700300318013035
:101EF200DC07003003180130DD075D1C812F822FC3
:101F0200A32F5A08DE005B08DF005C08E0005D08D2
:101F1200E1000130E200610DE10CE00CDF0CDE0CAF
:101F2200E20B8C2F6108DD006008DC005F08DB003B
:101F32005E08DA000130E8070318E90A0030E90711
:101F4200A32FA32F6908803AFF0080307F02031D70
:101F5200AC2FFF306802031CAF2FB02FBF2FFF3012
:101F620083120313E8000030E9000030DD00003086
:101F7200DC000030DB000030DA00BF2F83120313D5
:101F82006908803AFF0080307F02031DCA2F0130AA
:101F920068020318CD2FCE2FDB2F83120313E80123
:101FA200E9010030DD000030DC000030DB000030F1
:101FB200DA00E701831203136808DE005E08EE0010
:101FC2006E1CE42FE52FE72FDC17EB2F7F30DE00AE
:101FD2005E08DC056E08DE0003105E0CDF005F08A1
:101FE200DD006708DE005E08DD045D08D9005C08DC
:0E1FF200D8005B08D7005A08D600FF2F080061
:04400E00D4E0FFFFFC
:00000001FF
