:020000040000FA
:060000000A128A110C280F
:10000800FE00030EF7000A08F8000A128A115029A8
:100018000A128A110F28F001F101F201F301F4012B
:1000280083120313A40183010A128A11EF28F9002D
:10003800B8281F119F111F129F1283160317081447
:10004800831603130514EE281F159F111F129F1204
:10005800831603178814831603138514EE281F11BB
:100068009F151F129F128316031708158316031373
:100078000515EE281F159F151F129F1283160317CB
:100088008815831603138515EE281F119F111F1657
:100098009F12831603170816831603138516EE2876
:1000A8001F159F111F169F12831603178816831694
:1000B80003130914EE281F119F151F169F1283168C
:1000C80003170817831603138914EE281F159F15A5
:1000D8001F169F1283160317881783160313091513
:1000E800EE281F119F111F129F168316031709145C
:1000F800831603130615EE281F159F111F129F164E
:10010800831603178914831603138615EE281F1107
:100118009F151F129F1683160317091583160313BD
:100128008614EE281F159F151F129F168316031796
:100138008915831603130616EE281F119F111F1623
:100148009F16831603170916831603130614EE2841
:100158001F159F111F169F168316031789168316DE
:1001680003138616EE28EE28790883120313A000DD
:10017800A1012108003A0319C228EE282008003AF4
:1001880003191D28013A03192828033A03193328AB
:10019800013A03193E28073A03194928013A031975
:1001A8005428033A03195F28013A03196A280F3AB9
:1001B80003197528013A03198028033A03198B2873
:1001C800013A03199628073A0319A128013A031995
:1001D800AC28EE2808000A128A11C1210A128A11D5
:1001E80001300A128A118A210A128A1100300A1271
:1001F8008A111B200A128A1101300A128A111B2047
:100208000A128A110729740803190B290C293A299B
:10021800013083120313A3002308F107711C152969
:100228001629272900300A128A1105220A128A1172
:100238000A128A112D220A128A1183120313A300AB
:100248002308F300382901300A128A1105220A12FC
:100258008A110A128A112D220A128A118312031393
:10026800A3002308F2003829F4013A298312031362
:100278009F183F29402941299F14851F4429452952
:100288004829730886000729720886000729072964
:1002980007290A128A110C28831203139F1855295B
:1002A80056295929F401F40A0C138C1D5C295D297F
:1002B80083290A128A1113220A128A11F600760873
:1002C800F0007003031D69296A29712973080A124D
:1002D8008A1127220A128A117F2902307006031D0B
:1002E800762977297F2972080A128A1127220A1289
:1002F8008A117F297F29831203138C118329780897
:100308008A00770E8300FE0E7E0E0900F9000B1797
:10031800831603130C17831203130C13831603138A
:100328009F139F121F12831203131F14A8299F13D0
:100338001F13BE299F131F17BE299F171F13BE29FE
:100348009F171F17BE29BE297908A000A1012108FF
:10035800003A0319B029BE292008003A03199B293D
:10036800013A03199E29033A0319A129013A0319ED
:10037800A429BE299F148B17080083120313850133
:10038800860187018801890180308316031385005F
:100398008601870187120716880189018B170B17B9
:1003A800831203138C11831603138C15851683127D
:1003B8000313A001A101A20124300A128A11E72126
:1003C8000A128A110800F900831603138712791D8F
:1003D800EE29EF29F7298312031322088316031342
:1003E80094008715FF29831203132008220483161B
:1003F80003139400871179088312031321049400CE
:10040800080083120313A0002008F900F90DF90D64
:100418001F087906C33979069F00122A08000A12B4
:100428008A111E220A128A118312031385171308D0
:100438001D2A08001F2A83160313141C242A252AA0
:100448001F2A262A0800F500750883120313930053
:0C0458000800831203131E08312A08005C
:04400E00D4E0FFFFFC
:00000001FF
